:1000000047C09CC760C05FC05EC05DC05CC05BC0D5
:100010005AC059C058C057C056C0BDC854C053C0BC
:1000200052C051C050C04FC04EC04DC04CC04BC05C
:100030004AC049C00002030507090A0C0E1011133B
:100040001516181A1C1D1F2122242527292A2C2D9C
:100050002F303234353638393B3C3E3F4042434402
:10006000454748494A4B4D4E4F50515253545556AF
:10007000575758595A5B5B5C5D5D5E5F5F606061BE
:1000800061616262626363636364646464646400A4
:1000900011241FBECFEFD4E0DEBFCDBF11E0A0E042
:1000A000B1E0E8EDFEE102C005900D92A438B10781
:1000B000D9F714E0A4E8B1E001C01D92A736B1075A
:1000C000E1F78DD807CF9CCF68E671E066DE843B10
:1000D000910520F0845B90404FEF01C041E08A35EC
:1000E000910530F024EB30E0B901681B790BCB01AE
:1000F000FC01EC5CFF4F8491849F802D11240895B6
:100100004F925F926F927F928F929F92AF92BF9227
:10011000CF92DF92EF92FF921F93CF93DF9300D0A5
:1001200000D0CDB7DEB76B017C0197FF0AC0F09419
:10013000E094D094C094C11CD11CE11CF11C1FEFB1
:1001400001C011E0C701B60120E432E44FE050E005
:100150006DDE422E552466247724C701B60120E1C6
:1001600037E240E050E062DE69837A838B839C83D0
:10017000C301B2012CE330E040E050E0E2DD4B018E
:100180005C01C301B20120EC3DEB40EF5FEFD9DD34
:100190006C0D7D1D8E1D9F1D20E137E240E050E07B
:1001A00045DE820E911CA11CB11CC501B4012CE3DB
:1001B00030E040E050E0C5DD6B017C0169817A816F
:1001C0008B819C81BEDD4B015C01C701B60124E639
:1001D00030E040E050E0B5DD6B017C01C501B401C9
:1001E00003DEC20ED31EE41EF51E1F3F41F4F09441
:1001F000E094D094C094C11CD11CE11CF11CC70137
:10020000B6010F900F900F900F90DF91CF911F913B
:10021000FF90EF90DF90CF90BF90AF909F908F9026
:100220007F906F905F904F9008952F923F924F92E2
:100230005F926F927F928F929F92AF92BF92CF9276
:10024000DF92EF92FF920F931F93CF93DF93CDB77F
:10025000DEB762970FB6F894DEBF0FBECDBF6983DD
:100260007A838B839C832D833E834F83588727011A
:100270003801A986BA86CB86DC869E868D866E1569
:100280007F058007910781F42A153B054C055D0524
:1002900059F4D4011D921D921D921C921397EFA147
:1002A000F8A511821082BDC189819A81AB81BC8180
:1002B000840D951DA61DB71DB7FF07C0B095A0956D
:1002C000909581959F4FAF4FBF4FBC01CD0120E866
:1002D00034E84EE150E088DDC901865A9F4FF4DED4
:1002E000082F69817A818B819C810ADF4B015C0137
:1002F000C301B20105DF69837A838B839C836D819F
:100300007E818F819885FCDE6B017C0169857A8511
:100310008B859C85F5DE6C197D098E099F092981E5
:100320003A814B815C81281939094A095B09298383
:100330003A834B835C83202F332727FD3095432F4F
:10034000532FFFDC24E630E040E050E06FDD290170
:100350003A012224239402E0C02ED12CE12CF12C6E
:1003600089809A80AB80BC800FC0C301B201A70115
:1003700096015CDD29013A01C501B401A70196018E
:1003800055DD49015A01220CB301A20177FE07C0D5
:1003900044275527BA0144195509660977094F3F83
:1003A0003FEF530730E0630730E07307F0F6D50105
:1003B000C401B7FE07C088279927DC01881999096D
:1003C000AA09BB098F3FEFEF9E07E0E0AE07E0E030
:1003D000BE0758F689829A82AB82BC8249875A87C7
:1003E0006B877C878F87988BA98BBA8BC301B201EF
:1003F000A3019201A6DC6B017C01C501B401A5013A
:1004000094019FDCDC01CB01332433940FC0F2E074
:10041000F694E794D794C794FA95D1F712E0B6957D
:10042000A795979587951A95D1F7330C4B2F55279C
:10043000662777270F2D112722273327400F511FBB
:10044000621F731F4F3F51056105710509F0F8F6F2
:100450009C01AD012C0D3D1D4E1D5F1D2D833E8366
:100460004F83588749015A01B694A794979487946B
:1004700081149104A104B10439F100E010E002C03C
:10048000460157016D817E818F819885A501940178
:10049000ABDC69017A01C80CD91CEA1CFB1CF69480
:1004A000E794D794C794D501C4018C199D09AE096E
:1004B000BF0982309105A105B10550F00F5F1F4FB4
:1004C0000A311105E9F604C0CD80DE80EF80F884A2
:1004D000232D30E040E050E0C701B60132DC4B0193
:1004E0005C014FA158A54115510509F47DC0611566
:1004F00071058105910509F46EC089859A85AB85E2
:10050000BC852F85388949895A8982179307A407A2
:10051000B507C0F0CA01B90124E630E040E050E080
:1005200010DCA501940160DCC22E00E010E002C0E6
:100530000F5F1F4FC801C8DDC8161CF10A35110531
:10054000B9F71FC069857A858B859C8524E630E0E4
:1005500040E050E0F6DBA501940146DC022FCC24FC
:10056000DD2403C00894C11CD11CC601ADDD0817F1
:1005700024F03AE5C316D104A9F70AE510E00C19F6
:100580001D0989819A81AB81BC810097A105B105C4
:1005900029F477FC23C08AE590E022C029813A81C2
:1005A0004B815C8112161306140615064CF477FC79
:1005B00003C08AE590E00CC0C801825F9E4F10C066
:1005C00077FC04C0C801865A9F4F0AC08EE091E0B4
:1005D000801B910B05C080E090E002C08EE091E0AE
:1005E000AFA1B8A58D939C93C501B40125E331E07B
:1005F00040E050E0A6DB28EE33E040E050E0F4DBE2
:1006000069017A01222D30E040E050E0C701B601D7
:1006100098DBDC01CB01ED85FE8580839183A2838D
:10062000B38362960FB6F894DEBF0FBECDBFDF91E5
:10063000CF911F910F91FF90EF90DF90CF90BF90DF
:10064000AF909F908F907F906F905F904F903F9072
:100650002F9008953F924F925F926F927F928F9268
:100660009F92AF92BF92CF92DF92EF92FF920F9341
:100670001F93CF93DF932C01362E69017A018901F4
:100680009A01F7FE07C00027112798010C191D09D0
:100690002E093F09C1E09AE0892E912CA12CB12CA2
:1006A00008C0C901B801A5019401C0DB89019A0104
:1006B000CF5F0A301105210531059CF7F7FCCF5FAC
:1006C000832D90E09C012C0F311D213231050CF05F
:1006D00056C04201880E991EF7FE0AC0F094E094BD
:1006E000D094C094C11CD11CE11CF11CDFEF01C0EF
:1006F000D0E0540100E08AE0482E512C612C712C8E
:1007000001C0022FC701B601A30192018FDB69016D
:100710007A01605DF50161935F01202F2F5F1C144A
:100720001D041E041F046CF3DF3F49F4E22FFF2772
:10073000E7FDF095E80DF91D8DE280832F5FE22F34
:10074000FF27E7FDF095E80DF91D10822150522F8B
:10075000569540E030E0842F90E0F401E80FF91F57
:100760006081D901A81BB90BA80DB91D8C9180839C
:100770006C934F5F541778F78C2F830D01C081E283
:10078000DF91CF911F910F91FF90EF90DF90CF906D
:10079000BF90AF909F908F907F906F905F904F90A1
:1007A0003F900895CF93DF93DC01D62FBA01FA0171
:1007B00001900020E9F73197CE2FC41B2D2F30E098
:1007C000C9018C0F911D813291050CF0C1E24C2FB3
:1007D00050E0CD01820F931F5EDB8C2F8D0FDF91D8
:1007E000CF9108950F931F93CF93DF93EC0132DFE6
:1007F000682FCE01A801D6DFDF91CF911F910F9115
:1008000008950F931F93CF93DF93EC01E42FF0E053
:10081000EE0FFF1FE05BFB4F1081218130E040E0D5
:1008200050E018DFFE01E80FF11D9EE29083682F73
:100830006F5F1A3030F4FE01E60FF11D90E39083F4
:100840006F5F212F30E040E050E0CE0100E011E08A
:10085000C9DFDF91CF911F910F9108952F923F92A1
:100860004F925F926F927F928F929F92AF92BF92C0
:10087000CF92DF92EF92FF920F931F93CF93DF936C
:100880001C01C62F69017A01211531054105510569
:1008900021F44AE051E086DF5DC0CA01B90120E4DD
:1008A00032E44FE050E0C2DA29013A0155246624CF
:1008B0007724C301B20120EC3DEB40EF5FEF41DA5A
:1008C0006C0D7D1D8E1D9F1DE0E18E2EE7E29E2E9C
:1008D000A12CB12CA5019401A9DAD22FC701B60130
:1008E000A5019401A3DA4B015C01002351F01C1413
:1008F0001D041E041F047CF468E0C62E61E0D62EA1
:1009000013C01C141D041E041F0454F456E0C52E0D
:1009100051E0D52E09C042E0C42E41E0D42E04C0DF
:1009200034E0C32E31E0D32EC1016C2FA30192011C
:1009300006E111E057DF682F2D2F30E040E050E056
:10094000C10108E111E04EDF682FC101A50194014A
:10095000860148DFDF91CF911F910F91FF90EF90BB
:10096000DF90CF90BF90AF909F908F907F906F90CF
:100970005F904F903F902F900895FF920F931F9399
:10098000CF93DF93D1E08091CA038D3209F0D0E09C
:10099000CD2F00E010E0980116C0C901B8012AE08F
:1009A00030E040E050E0CDD9DC01CB010F2D10E06C
:1009B00000531040222717FD2095322F080F191FD2
:1009C0002A1F3B1FCF5FEC2FF0E0E653FC4FF08077
:1009D0008F2D80538A3010F4CB30F8F2DD2321F0D4
:1009E0006FEF7FEFCB0104C061E070E080E090E04A
:1009F000A9019801A6D9DF91CF911F910F91FF9086
:100A00000895FF920F931F93CF93DF93FF24F394E6
:100A10008091CA038D3209F0FF24CF2D00E010E051
:100A20009801EC2FF0E0E653FC4FD0818D2F8053DE
:100A30008A3058F5C901B8012AE030E040E050E0C2
:100A400080D9DC01CB010D2F10E00053104022278C
:100A500017FD2095322F080F191F2A1F3B1FCF5F4C
:100A6000CB30F8F2FF2021F06FEF7FEFCB0104C015
:100A700061E070E080E090E0A901980162D9DF9127
:100A8000CF911F910F91FF900895DE3241F3EACF8D
:100A90008091C803882301F58AEC93E06AE171E054
:100AA00045E050E0EAD9009731F481E08093C80333
:100AB0001092710108958AEC93E060E271E045E0E4
:100AC00050E0DBD9009709F00DC182E08093C803A4
:100AD00084E68093710108958091C703882309F407
:100AE00001C180917101853609F43FC08636E0F47A
:100AF000843009F467C0853050F4823009F441C075
:100B0000833008F042C0813009F0ECC02EC086303E
:100B100009F479C0863008F459C0873009F479C0E7
:100B2000893009F0DFC07BC08A3609F44FC08B36AC
:100B300048F4883651F1893608F044C0873609F008
:100B4000D1C01FC08C3609F486C08C3608F46FC043
:100B50008D3609F488C0883C09F0C4C0EAECF3E0A3
:100B600080E090E0DC0120E0B1C007DFDC01CB01D8
:100B700080939D0190939E01A0939F01B093A0014B
:100B800008953FDFDC01CB0114C08091CA03833597
:100B900009F0A8C08091930190919401A0919501D2
:100BA000B0919601B095A095909581959F4FAF4FCC
:100BB000BF4F8093930190939401A0939501B093BC
:100BC000960108951EDFDC01CB0114C08091CA0399
:100BD000873509F087C08091970190919801A09185
:100BE0009901B0919A01B095A095909581959F4FEC
:100BF000AF4FBF4F8093970190939801A0939901B5
:100C0000B0939A010895B9DEDC01CB018093A10174
:100C10000895B3DEDC01CB018093A2010895ADDE1F
:100C2000DC01CB0190939C0180939B010895A5DE8C
:100C3000AB01BC012FEC31E0429FC001439F900DFE
:100C4000529F900D11246AEF70E0A7D87093A40111
:100C50006093A301089591DEDC01CB019093A6017E
:100C60008093A501089589DEDC01CB018093A70163
:100C70009093A801A093A901B093AA01089534E02C
:100C8000880F991FAA1FBB1F3A95D1F7342F3154F3
:100C9000363020F450E0475350400FC0342F3156C7
:100CA000363020F450E04755504007C0342F3053C1
:100CB0003A3058F450E040535040662757FD609555
:100CC000762F840F951FA61FB71F2F5F41914423D6
:100CD00011F02B30A1F621E03091C903381320E048
:100CE0002093AB010895883108F56831F8F4482F56
:100CF00046954695469550E08095877021E030E016
:100D000002C0220F331F8A95E2F7FA01EE0FFF1F90
:100D1000E40FF51FA3E0EE0FFF1FAA95E1F7E60F22
:100D2000F11DE450FC4F8081822B80830895CF9287
:100D3000DF92EF92FF920F931F93CF93DF93382FA1
:100D4000A62FC42F422F50E0461B510957FF03C066
:100D5000509541955F4FEC2FF0E0E31BF109F7FF51
:100D600003C0F095E195FF4FD1E0E417F50714F0CB
:100D7000D0E006C08C2FC22F282F832F3A2FA82F08
:100D8000C31730F48A2FA22F282F832F3C2FC82F70
:100D90001C2F131BE22FF0E0EA1BF109F7FF03C041
:100DA000F095E195FF4F0E2F812F62E0E9D7F82EE5
:100DB000DA2EA21718F4CC24C39402C0CC24CA940F
:100DC000E32E0EC0DD2319F08D2D6E2D02C08E2D69
:100DD0006D2D89DFF01AF7FE02C0DC0CF10EE394F2
:100DE000CE1580F7DF91CF911F910F91FF90EF907B
:100DF000DF90CF900895FF920F931F93CF93DF93CF
:100E000000D000D00F92CDB7DEB7182F81E0982F19
:100E1000911B9D838C83812F8195880F8B831A82F0
:100E20001983BBE0FB2EF10E8BE06F2D5CDF0BE036
:100E3000011B8BE0602F57DF8F2D6BE054DF802F7D
:100E40006BE051DF1BE04BC08D8187FD0AC08981BB
:100E5000815089838B818E5F8B839D818B81890FEC
:100E60008D838A818F5F8A838C818E5F8C839D8145
:100E70008C81890F8D838A816981655F855F33DF0E
:100E80008A816981655F912F981B892F2CDF8A8168
:100E90009981612F691B855F26DF8A819981612F86
:100EA000691B912F981B892F1EDF89816A81655FDD
:100EB000855F19DF89816A81655F912F981B892F72
:100EC00012DF89819A81612F691B855F0CDF89811F
:100ED0009A81612F691B912F981B892F04DF9A81BA
:100EE000898198170CF4B0CF0F900F900F900F904E
:100EF0000F90DF91CF911F910F91FF900895109265
:100F00008C0110928B0110928A011092890110922B
:100F10008801109287011092860110928501089530
:100F2000EEDFA2EFB3E0E5EDF3E08AE001900D9291
:100F30008150E1F781E08093F10308951F920F92B1
:100F40000FB60F9211242F933F934F935F936F939C
:100F50007F938F939F93AF93BF93EF93FF9388E219
:100F60008A95F1F780916204909163044A99FBC0DD
:100F7000009709F48CC080916404813021F08230A4
:100F800009F085C053C02091AC0198E19A95F1F722
:100F90008091650490E0BC0155E0660F771F5A957B
:100FA000E1F7680F791F80E090E030E0A901E5E00B
:100FB000440F551FEA95E1F7420F531F43555E4F0B
:100FC00063547D4FFA01E80FF91F2081203221F090
:100FD000222311F0219A02C021980000FB01E80FA2
:100FE000F91F20812EBD000000000000000000005D
:100FF00000000000000000000000000000000000F1
:10100000000000000000000001968132910509F007
:10101000D9CF000000000000000000000000000028
:101020000000000000001EBC219831C0E3E1F1E0A7
:101030003197F1F700C000002091650430E080E0B6
:1010400090E024503C4FF901E80FF91F40814EBD5C
:10105000219A0000000000000000000000000000D5
:101060000000000000000000000000000000000080
:101070000000000000000000000000000000000070
:10108000489688349105F9F6219800001EBC10920C
:1010900064044091620450916304CA0101969093E4
:1010A0006304809362048E36910511F421E004C03C
:1010B0008F36910519F422E0209384016091C503D5
:1010C0007091C60320917B0130917C0186179707B0
:1010D00080F08217930768F491E090936404861B74
:1010E0008093650490917D01923009F043C086950C
:1010F0002DC08217930769F582E080938401809167
:10110000AC0190E0019666E070E05BD68093AC01A4
:10111000FC01EE0FFF1FEB59FE4F20813181309310
:10112000C6032093C50382589E4FFC0180818093A3
:101130007D0190E043E0880F991F4A95E1F7820F07
:10114000931F90937C0180937B0181E080936504E1
:1011500011C0485650404831510560F492E09093D8
:1011600064048956F3CF893C910520F01092630402
:1011700010926204FF91EF91BF91AF919F918F9177
:101180007F916F915F914F913F912F910F900FBE83
:101190000F901F9018951F920F920FB60F92112467
:1011A0002F933F938F939F932091660430E080911B
:1011B0006204909163042817390721F48BB198E0F9
:1011C00089278BB980916204809366049F918F91E7
:1011D0003F912F910F900FBE0F901F901895CF93B6
:1011E000DF93CDB7DEB72E970FB6F894DEBF0FBEF4
:1011F000CDBF20E12BB988E08AB929988CE084B969
:1012000080916F00816080936F0080918100826087
:101210008093810083E08093690031E03DBB80E8EA
:1012200080BF10927B001EBC8DB58E7F8DBD84E586
:101230008CBDE091AC01F0E0EE0FFF1FEB59FE4FCB
:10124000808191819093C6038093C50310927E00A4
:1012500080917C00806480937C0080917A0086601D
:1012600080937A0010927B003093C50087E38093CF
:10127000C40086E08093C2002093C10078948091DE
:10128000C00087FFF0C00091C600909171019F3FA0
:1012900021F4043209F0E7C010C0043271F00532C5
:1012A00030F40A3099F10D3009F0CAC02FC00A326B
:1012B000C1F00C3209F0C4C00FC01092C7031092E5
:1012C000C8031092C90310927101EAECF3E08BE0BD
:1012D00011928150E9F7C7C08091C903802780939C
:1012E000C903D6DBEAECF3E08BE011928150E9F719
:1012F0001092C703809171018F5F809371010A3250
:1013000009F0B1C088EC80937101ADC0C1DB8FEFF3
:10131000809371018091AB01882309F4A4C060918E
:10132000D5037091D6038091D7039091D803209173
:10133000D9033091DA034091DB035091DC03E09054
:101340009301F09094010091950110919601A09065
:101350009701B0909801C0909901D0909A016E15B4
:101360007F058007910729F42A153B054C055D058B
:10137000D1F000D0ADB7BEB712961C921E92119755
:101380004E010894811C911C50D780918B01909143
:101390008C0129813A81820F931F90938C01809355
:1013A0008B010F900F90A5EDB3E0E3E9F1E089E147
:1013B00001900D928150E1F781E08093EE038091DE
:1013C0008E0190918F019093F0038093EF038091B1
:1013D000E5039091E60321E08330910508F020E0D9
:1013E000209372012091F103222349F42091E30319
:1013F0002223C9F18A309105B0F192DD34C02091E9
:10140000890130918A012817390720F490938A01C5
:10141000809389018091DD039091DE032091FA038E
:101420003091FB03821B930B20918701309188013F
:1014300028173907C4F4909388018093870113C05B
:101440008091C703E82FF0E0E653FC4F0083983CFF
:1014500029F09091C90390279093C9038A3018F41A
:101460008F5F8093C7034C9912C081E080939101F4
:1014700080919201833398F05B9A8091AB0188232D
:1014800071F08091A101882351F04ADD08C080915C
:10149000910181115B9810929101109292018091BB
:1014A0008401823009F085C0109284018091AC01E2
:1014B000F3E78F2EF2E09F2ED40120E030E060E0D1
:1014C00070E090E0AC0115E0440F551F1A95E1F76C
:1014D000480F591F43555E4FFA01E60FF71F8081F1
:1014E0008032E1F08823D1F08B3550F4282F30E0A2
:1014F000E3E0220F331FEA95E1F72852314010C094
:10150000982F9556993060F4282F30E093E0220F01
:10151000331F9A95E1F72057314002C02FEF3FEF7C
:101520002D933D936F5F7F4F61327105A9F6EE24D5
:10153000FF2488E0C82EAA24AA94F40101911191F5
:101540004F0180916401992787FD9095801791073D
:1015500061F0FFEF0F3F1F0781F085EB92E0B801CC
:1015600048E050E0A7D400936401A5EBB2E020E08E
:1015700030E0C70183549D4F09C0A5EBB2E0EC2DCC
:101580001D92EA95E9F7A0926401EFCF4D91FC011D
:10159000E20FF31F40832F5D3F4FF1E028303F07FC
:1015A000A9F70894E11CF11C31E2E316F10429F6D5
:1015B00066CE80918401813009F061CE1092840161
:1015C00080919101882329F0809192018F5F80930F
:1015D000920180919001882309F048C18091A10176
:1015E000882311F05B9A04C08BB198E089278BB9EE
:1015F0008091F103882309F449C000D06091D5039C
:101600007091D6038091D7039091D8032091D9038C
:101610003091DA034091DB035091DC03E090F20358
:10162000F090F3030091F4031091F503A090F603FA
:10163000B090F703C090F803D090F903E4E4F4E02D
:10164000ADB7BEB71296FC93EE9311970F2EF6E44A
:101650008F2EF4E09F2EF02DE8D5809146049091D6
:101660004704A0914804B0914904409185015091EC
:10167000860160E070E00F900F90481759076A07E5
:101680007B0720F49093860180938501EAE5F4E0DE
:10169000FE83ED8383E791E098878F83A7E7B1E02E
:1016A000BA87A98721E5C22E24E0D22EEE243AE0A3
:1016B000432E512C612C712C80917C00807F809373
:1016C0007C0080917C008E2980937C0080917A0040
:1016D000806A80937A0080917A00806480937A0097
:1016E00080917A0084FFFCCF80917A0080618093A2
:1016F0007A0080917A008F7580937A0060917800EB
:1017000070917900ED81FE8161937193FE83ED8389
:1017100080E090E026E331E040E050E012D3A30106
:10172000920162D3AF81B8856D91B887AF8370E0C5
:1017300080E090E006D3E985FA852191FA87E98770
:1017400030E040E050E050D389019A01480159014E
:101750007AE0B694A794979487947A95D1F78B867C
:101760009C86AD86BE861601089421083108882D16
:1017700090E0982F8827990F990FA0E0B0E04801DA
:101780005901881A990AAA0ABB0AC501B40124E6BC
:1017900030E040E050E0D5D2DC01CB01FAE0B69574
:1017A000A79597958795FA95D1F7F1018083EB85F9
:1017B000D601EC93E39482E0882E912CC80CD91CBE
:1017C00094E0992EE91409F077CF81E090E0209120
:1017D000E5033091E603293C310510F480E090E008
:1017E00090934B0480934A048091DD039091DE0333
:1017F0002091FA033091FB03821B930B21E030E030
:1018000043E18938940710F420E030E030934D0430
:1018100020934C0421E030E08091460490914704ED
:10182000A0914804B09149048131E7E29E07E0E0CD
:10183000AE07E0E0BE0710F420E030E030934F0444
:1018400020934E049091510484E6989FC001112486
:1018500020915004820F911D21E0F1E0843F9F0709
:1018600008F020E0209358041092590480919001D0
:101870008F5F8093900180919001823378F0109275
:10188000900180918E018F5F80938E0180918D01F8
:1018900090E001968170907080938D0180918E010F
:1018A0008C3338F010928E0180918F018F5F80937E
:1018B0008F0180918F018C3310F010928F016DEAAF
:1018C000C62E61E0D62EEE24A7C1F601E80FF91F5F
:1018D0001082019681329105C1F7EE20D1F58DEA93
:1018E00091E060E046E251E05DD78DEA91E067E08B
:1018F00049E251E057D78DEA91E06EE04CE251E0C9
:1019000051D780918F018A3028F480E38093C801F9
:101910006CE101C06BE120918F0130E040E050E0CC
:101920008DEA91E006E111E05DD7682F80918E018C
:101930008A3038F4E62FF0E0E355FE4F80E38083F1
:101940006F5F20918E0130E040E050E08DEA91E041
:10195000A8C088248394E81409F050C08EEC91E06C
:1019600060E24EE251E01ED780915804882321F0B6
:1019700080918D01882329F08EEC91E060E040E0B9
:1019800040D780915904882321F080918D018823CC
:1019900029F08EEC91E067E041E033D720915504C7
:1019A00084E6289F9001112480915404280F311D52
:1019B00041E0253F340790F42937310590F028574E
:1019C000304044E650E0249FC001259F900D349F95
:1019D000900D11246CE771E0E0D105C064E670E081
:1019E00002C060E070E0262F30E040E050E08EEC76
:1019F00091E06EE00FE211E0F5D602C182E0E81658
:101A0000D1F480917201882309F4FAC08091F10326
:101A1000882331F08FEE91E067E041E351E0EFC0C1
:101A200080918D01882309F4EBC08FEE91E06AE08C
:101A300044E451E0E4C093E0E91609F050C080911D
:101A40007201882309F4DCC08091F103882359F1E5
:101A5000209185013091860140E050E080E192E0E4
:101A600067E0F8D52091890130918A0140E050E08B
:101A700080E192E06CE0EED520918B0130918C01F9
:101A800040E050E080E192E060E1E4D52091870100
:101A900030918801442737FD4095542F80E192E032
:101AA00066E1D8D5ADC02091D5033091D6034091E1
:101AB000D7035091D80380E192E064E001E0CED6F4
:101AC000682F6E5F2091D9033091DA034091DB03D8
:101AD0005091DC0380E192E000E0C0D691C0A4E028
:101AE000EA1609F065C080914A0490914B04009772
:101AF00021F080918D01882351F02091E5033091F0
:101B0000E60340E050E081E392E060E0A3D58091FD
:101B1000F103882339F481E392E065E040E551E088
:101B200041D616C080914E0490914F04009721F049
:101B300080918D01882361F0209146043091470403
:101B4000409148045091490481E392E065E082D5D8
:101B50008091E303882351F02091E40330E040E0DA
:101B600050E081E392E067E175D506C081E392E041
:101B700067E140E551E016D680914C0490914D0408
:101B8000009721F080918D018823D1F12091DD0310
:101B90003091DE038091FA039091FB03281B390BEF
:101BA000442737FD4095542F81E392E06CE179CFD3
:101BB00082E592E060E042E551E0F4D582E592E012
:101BC00065E046E551E0EED59091F103682F6D5F39
:101BD000992329F082E592E04AE551E004C082E5CC
:101BE00092E04CE551E0DED582E592E067E14EE51A
:101BF00051E0D8D582E592E06CE140E651E0D2D5E3
:101C0000E394E1E2F0E0CE0EDF1EF6E0EF1621F401
:101C10002CEF33E043E010C080E090E056CEF901B5
:101C2000E80FF91F1082019688319105C1F74150E4
:101C3000285E3F4F442319F080E090E0F0CF009100
:101C40004404109145048091E7039091E803081B38
:101C5000190B8BE0D0D88091460490914704A09155
:101C60004804B09149048A309105A105B10518F4E2
:101C700082E0C1D804CB8091E5039091E6038A30DD
:101C8000910520F08091A101882351F485E065E061
:101C900041E121E14CD885E061E141E125E04FC01F
:101CA000C801865A9F4F10D2E82EC8010DD2E82FE6
:101CB0008E2D992787FD909523E0880F991F2A95EF
:101CC000E1F724E630E0B9017CD04B018E2F992753
:101CD00087FD909543E0880F991F4A95E1F7B90178
:101CE00070D05B01682D5BE0E52EEA0C8BE0C82E1E
:101CF000C818655F8A194E2D2C2D19D802E010E006
:101D0000C401B8015ED0709561957F4F462F455F45
:101D1000C501B80156D09B01309521953F4F255FF5
:101D20008E2D6C2D04D8C401B8014BD0462F455FD1
:101D3000C501B80146D0262F255F8E2D6C2DF7D713
:101D40009ECA629FD001739FF001829FE00DF11D3A
:101D5000649FE00DF11D929FF00D839FF00D749F25
:101D6000F00D659FF00D9927729FB00DE11DF91FD1
:101D7000639FB00DE11DF91FBD01CF01112408952E
:101D800087FB082E062687FD819567FD619569D042
:101D90000EF4919507FC81950895AA1BBB1B51E198
:101DA00007C0AA1FBB1FA617B70710F0A61BB70BCB
:101DB000881F991F5A95A9F780959095BC01CD0170
:101DC000089597FB092E07260AD077FD04D0E5DF9A
:101DD00006D000201AF4709561957F4F0895F6F7AC
:101DE000909581959F4F0895A1E21A2EAA1BBB1BC7
:101DF000FD010DC0AA1FBB1FEE1FFF1FA217B307D7
:101E0000E407F50720F0A21BB30BE40BF50B661FEC
:101E1000771F881F991F1A9469F7609570958095B0
:101E200090959B01AC01BD01CF01089597FB092E50
:101E300005260ED057FD04D0D7DF0AD0001C38F499
:101E400050954095309521953F4F4F4F5F4F0895E6
:101E5000F6F790958095709561957F4F8F4F9F4FC6
:101E60000895991B79E004C0991F961708F0961BF6
:101E7000881F7A95C9F780950895FB01DC014150D0
:101E8000504030F08D910190801919F40020B9F77D
:101E9000881B990B0895FB01DC014150504048F02C
:101EA00001900D920020C9F701C01D924150504091
:101EB000E0F70895DC01CB01FC01F999FECF06C0E3
:101EC000F2BDE1BDF89A319600B40D9241505040F8
:081ED000B8F70895F894FFCF64
:101ED80056005300570045004E002D2D3A2D2D2E4B
:101EE8002D2D2D2D3F003A002E0047504747410029
:101EF8004750524D43006A31006A3200690000259C
:101F0800004C4F5320205350442054524950202015
:101F1800414C54004E4F20484F4D4520504F5300E0
:101F28002D00535044004C4F530066006700680072
:101F3800414C5400FF32004200AA00CD00FF0018B7
:101F480001FF010101010101010601020002010274
:041F58000101020180
:00000001FF
