:1000000047C0D7CD60C05FC05EC05DC05CC05BC094
:100010005AC059C058C057C056C0FECE54C053C075
:1000200052C051C050C04FC04EC04DC04CC04BC05C
:100030004AC049C00002030507090A0C0E1011133B
:100040001516181A1C1D1F2122242527292A2C2D9C
:100050002F303234353638393B3C3E3F4042434402
:10006000454748494A4B4D4E4F50515253545556AF
:10007000575758595A5B5B5C5D5D5E5F5F606061BE
:1000800061616262626363636364646464646400A4
:1000900011241FBECFEFD4E0DEBFCDBF11E0A0E042
:1000A000B1E0E6EFFFE102C005900D92A237B10783
:1000B000D9F714E0A2E7B1E001C01D92AD34B10759
:1000C000E1F7C0D596CF9CCF2F923F924F925F928F
:1000D0006F927F928F929F92AF92BF92CF92DF9258
:1000E000EF92FF920F931F93DF93CF9300D000D036
:1000F0000F92CDB7DEB77B018C0197FD7BC0E1E0AD
:10010000E983C801B70120E432E44FE050E029DF81
:10011000A22EBB24CC24DD2480E1682E87E2782E39
:10012000812C912CC801B701A40193011ADF6A83C5
:100130007B838C839D83C601B5012CE330E040E0D6
:1001400050E09BDE1B012C01C601B50120EC3DEB0C
:1001500040EF5FEF92DE6E0D7F1D801F911FA401A7
:100160009301FFDE220E311C411C511C6A817B81F0
:100170008C819D812CE330E040E050E07EDE5B012D
:100180006C01C201B10120E737E140E050E075DECB
:100190007B018C01C601B50124E630E040E050E06F
:1001A000BEDEE20EF31E041F151FF981FF3F41F46E
:1001B00010950095F094E094E11CF11C011D111DB7
:1001C000C801B7010F900F900F900F900F90CF9133
:1001D000DF911F910F91FF90EF90DF90CF90BF9034
:1001E000AF909F908F907F906F905F904F903F90D7
:1001F0002F90089510950095F094E094E11CF11C67
:10020000011D111D8FEF89837CCF4F925F926F92FA
:100210007F928F929F92AF92BF92CF92DF92EF9296
:10022000FF920F931F93DF93CF930F92CDB7DEB75B
:100230002C01C62E79018A0117FD7AC02A303105BA
:10024000410551050CF491C0DD24D3946AE0862E5B
:10025000912CA12CB12CCA01B901A501940181DE18
:10026000D3942A30310541055105ACF717FD5EC026
:100270008C2D90E09C012D0D311D213231050CF0AB
:1002800053C0480E591E17FD5BC0198252019AE0F7
:10029000692E712C812C912CC801B701A401930106
:1002A00060DE605DF50161935F018E2F8419790135
:1002B0008A01121613061406150674F3F981FF3F1E
:1002C00009F449C0E82FFF27E7FDF095E40DF51D7F
:1002D00010828150682F6695282F30E040E0842FEF
:1002E00090E0D201A80FB91F5C91F901E81BF90B4E
:1002F000E40DF51D80818C9350834F5F641778F770
:100300008D2D8C0D0F90CF91DF911F910F91FF904C
:10031000EF90DF90CF90BF90AF909F908F907F90A5
:100320006F905F904F90089581E2ECCFD394A0CF6F
:1003300022273327A9012E193F09400B510B7ECFED
:1003400010950095F094E094E11CF11C011D111D25
:100350006FEF69839BCFE82FFF27E7FDF095E40D52
:10036000F51D9DE290838F5FADCFDD24D3947ECFCA
:100370000F931F939C01162FFA01DA010D900020B4
:10038000E9F711970A2F041B402F50E0862F90E0C9
:10039000BA01680F791F613271051CF041E250E02B
:1003A00001E2820F931FBF0105DE802F810F1F9195
:1003B0000F9108950F931F93CF93DF93EC0125DFE7
:1003C000682FCE01A801D4DFDF91CF911F910F914B
:1003D00008952F923F924F925F926F927F928F92E9
:1003E0009F92AF92BF92CF92DF92EF92FF920F93C4
:1003F0001F93CF93DF93EC01162F21153105410593
:10040000510509F4B8C0002309F07DC01216130687
:10041000140615060CF0B3C0E4E02E2EE1E03E2EEB
:1004200069017A0157FDBEC0C701B60120E432E47C
:100430004FE050E096DD422E552466247724C30118
:10044000B20120EC3DEB40EF5FEF17DD6C0D7D1D41
:100450008E1D9F1D24E630E040E050E00EDD2CE3D1
:1004600030E040E050E05BDD49015A0180E392EE6C
:10047000AFEFBFEF880E991EAA1EBB1ECE01612FE3
:10048000A301920104E111E095DF182F90E1891694
:1004900097E2990690E0A90690E0B906D8F47501B4
:1004A0006401C701B6012AE030E040E050E0E5DC3D
:1004B0006B017C01CE01612F20E030E0A901A5DEB7
:1004C000182FA0E1CA16A7E2DA06A0E0EA06A0E02B
:1004D000FA0638F3CE01612FA501940181016ADF8C
:1004E000DF91CF911F910F91FF90EF90DF90CF9010
:1004F000BF90AF909F908F907F906F905F904F9044
:100500003F902F9008951216130614061506E4F571
:10051000A0E02A2EA1E03A2E69017A0157FD39C0E8
:10052000C701B60120E432E44FE050E01ADD422E6C
:10053000552466247724C301B20120EC3DEB40EF43
:100540005FEF9BDC6C0D7D1D8E1D9F1D24E630E052
:1005500040E050E092DC2CE330E040E050E0DFDCB3
:1005600049015A0183EB9BEEAFEFBFEF880E991E56
:10057000AA1EBB1E83CF48E051E0FADEB1CF76E081
:10058000272E71E0372E4CCFF2E02F2EF1E03F2ED8
:10059000C3CFF094E094D094C094C11CD11CE11C52
:1005A000F11CBECFF094E094D094C094C11CD11C37
:1005B000E11CF11C39CFFF920F931F93FF24F3949A
:1005C0008091AF038D3209F0FF24EF2DF0E0E1556B
:1005D000FC4F0081802F80538A3070F020E030E0A3
:1005E000A901FF2071F561E070E080E090E045DC5A
:1005F0001F910F91FF9008951F2D20E030E0A90179
:10060000CA01B9012AE030E040E050E036DC202F9A
:1006100030E020533040442737FD4095542F260FBB
:10062000371F481F591F1F5FE12FF0E0E155FC4FB6
:100630000081802F80538A30A0F61B3008F3FF2002
:1006400091F26FEF7FEFCB0118DC1F910F91FF90BC
:100650000895883110F4683108F00895482F4695C0
:100660004695469550E08095877021E030E002C0C5
:10067000220F331F8A95E2F7FA01EE0FFF1FE40FF6
:10068000F51FEE0FFF1FEE0FFF1FEE0FFF1FE60F10
:10069000F11DE75BFC4F8081822B80830895FF92E0
:1006A0000F931F93DF93CF9300D000D00F92CDB75D
:1006B000DEB7182F81E0982F911B99838A83812FB1
:1006C0008195880F8B831C821D839BE0F92EF10E90
:1006D0008BE06F2DBEDF0BE0011B8BE0602FB9DFDD
:1006E0008F2D6BE0B6DF802F6BE0B3DF9C818D81B7
:1006F00098170CF051C01BE0898187FD0AC08D81DD
:1007000081508D838B818E5F8B8399818B81890F43
:1007100089838C818F5F8C838A818E5F8A839981A4
:100720008A81890F89838C816D81655F855F91DF07
:100730008C816D81655F912F981B892F8ADF8C8159
:100740009D81612F691B855F84DF8C819D81612F75
:10075000691B912F981B892F7CDF8D816C81655FD0
:10076000855F77DF8D816C81655F912F981B892F65
:1007700070DF8D819C81612F691B855F6ADF8D81B0
:100780009C81612F691B912F981B892F62DF9C81AF
:100790008D8198170CF4B0CF0F900F900F900F90A1
:1007A0000F90CF91DF911F910F91FF900895AF921D
:1007B000BF92CF92DF92EF92FF920F931F93CF934E
:1007C000DF93D42E422F50E0E62EFF24ED2DF0E0F3
:1007D000A82FB0E08A010E191F0917FD5FC0EF01B5
:1007E000CA1BDB0BD7FD62C0CC24C394C017D10752
:1007F0000CF43FC0CC24FA01D701D81608F442C04B
:10080000AD01DF01FA01621708F445C0AA24AA94D9
:10081000D81620F1BD2CB81AEB2CB7FC4FC0E594CC
:10082000162FAE1BBF0BB7FD45C0FA2E082F09C00F
:10083000812F602F0EDFEF18E7FC0BC00F5FD01683
:1008400068F0CC20A9F7802F612F03DFEF18E7FEB7
:10085000F5CF1A0DEB0C0F5FD01698F7DF91CF9103
:100860001F910F91FF90EF90DF90CF90BF90AF90CE
:1008700008959D2DD22E292F982F862F692FD816B7
:1008800008F0BECF962F622F292F982F8D2DD92EAD
:10089000621708F0BBCFAA24A394BACF1095019594
:1008A0001F4FEF01CA1BDB0BD7FF9ECFD095C19521
:1008B000DF4F9ACFB095A195BF4FB7CFE394AFCF9D
:1008C000FF920F931F93FF24F3948091AF038D3217
:1008D00009F0FF241F2D20E030E0A90116C0CA0155
:1008E000B9012AE030E040E050E0C7DA202F30E0E4
:1008F00020533040442737FD4095542F260F371F93
:10090000481F591F1F5F1B3058F4E12FF0E0E155DD
:10091000FC4F0081802F80538A3008F30E3291F310
:10092000FF2049F461E070E080E090E0A6DA1F91DA
:100930000F91FF9008956FEF7FEFCB019EDA1F912B
:100940000F91FF9008958091AD03882371F18091FC
:10095000AC03882349F180916701853689F086369A
:1009600008F042C0843009F471C0853008F078C0C6
:10097000823009F445C0833008F00DC18130A1F404
:100980001ADE60939D0370939E0380939F03909360
:10099000A003089580E090E0DC0121E03091AE03F7
:1009A000381320E02093AB0308958FEA93E066E1CB
:1009B00071E045E050E0F0DA009781F08FEA93E0D3
:1009C0006CE171E045E050E0E7DA009769F782E01A
:1009D0008093AD0384E680936701089581E080935E
:1009E000AD031092670108958A36A1F08B3608F0A6
:1009F00048C0883609F4CFC0893640F58736A1F65D
:100A00005FDF6093930370939403809395039093B7
:100A1000960308958091AF03873531F6809197034F
:100A200090919803A0919903B0919A03B095A095E5
:100A3000909581959F4FAF4FBF4F809397039093B1
:100A40009803A0939903B0939A03089539DF6093B4
:100A50009703709398038093990390939A03089552
:100A6000863009F494C08630A8F2873009F48BC030
:100A7000893009F099CF9FDD70939C0360939B03AD
:100A800008958C3609F479C08C3608F463C08D362D
:100A900009F456C0883C09F087CF2091AF03222388
:100AA00009F478CFE0EBF3E080E090E0DC0114C0E3
:100AB00030E027533040442737FD4095542F820FB4
:100AC000931FA41FB51F2191222309F466CF33E0A1
:100AD000EB3BF30709F461CF880F991FAA1FBB1FD7
:100AE000880F991FAA1FBB1F880F991FAA1FBB1F22
:100AF000880F991FAA1FBB1F322F31543630C0F206
:100B0000322F3156363060F430E0275530404427DC
:100B100037FD4095542F820F931FA41FB51FD3CFCD
:100B2000322F30533A3078F630E0205330404427AB
:100B300037FD4095542F820F931FA41FB51FC3CFBD
:100B40003ADD6093A7037093A8038093A903909361
:100B5000AA03089530DD4FEC51E0649F9001659F3A
:100B6000300D749F300D1124C9016AEF70E0B0D9C7
:100B70007093A4036093A30308951DDD7093A603EF
:100B80006093A503089517DD6093A203089513DD14
:100B90006093A10308958091AF03833509F004CFDA
:100BA0008091930390919403A0919503B091960343
:100BB000B095A095909581959F4FAF4FBF4F809373
:100BC000930390939403A0939503B0939603089591
:100BD000EF92FF920F931F93CF93DF93EC01E62FD9
:100BE000F0E0EE0FFF1FE35CFB4FE080FF2400E02E
:100BF00010E0218130E040E050E064E006DBFE01DF
:100C0000E80FF11D9EE29083682F6F5F8AE0E8167F
:100C1000F1040105110534F4FE01E60FF11D80E336
:100C200080836F5FCE01A8019701EFDA682FCE01B4
:100C300042E251E09DDBDF91CF911F910F91FF9038
:100C4000EF900895DF93CF93CDB7DEB764970FB6DB
:100C5000F894DEBF0FBECDBF20E12BB988E08AB982
:100C600029988CE084B980916F00816080936F0037
:100C70008091810082608093810083E0809369008D
:100C800031E03DBB80E880BF10927B001EBC8DB57B
:100C90008E7F8DBD84E58CBDE0917601F0E0EE0F96
:100CA000FF1FEB5AFE4F80819181909379018093D1
:100CB000780110927E0080917C00806480937C009B
:100CC00080917A00866080937A0010927B00309346
:100CD000C50087E38093C40086E08093C200209320
:100CE000C1007894E7E24E2EE4E05E2E8091C000D1
:100CF00087FD1DC14C999CC081E080939103809138
:100D000092038333E8F0109292035B9A8091AB03D5
:100D10008823B1F08091A103882391F0AAEDB3E07C
:100D2000EAEBF3E08AE001900D928150E1F781E077
:100D30008093D9031092E4031092D5031092D60346
:100D400080917701823009F480C0809177018130F1
:100D500069F61092770180919103882329F08091A0
:100D600092038F5F809392038091E40369E1A4D89A
:100D7000992309F4ACC28091E4038F5F8093E4036C
:100D80008091E403823378F01092E4038091D503DC
:100D90008F5F8093D50380914C0490E00196817021
:100DA000907080934C048091D5038C3338F010926E
:100DB000D5038091D6038F5F8093D6038091D603AD
:100DC0008C3310F01092D603EE24E39480E090E090
:100DD00051E2A52EB12C40E3642E34E6832E1C0193
:100DE000222D822D90E08A9DF0018B9DF00D9A9D21
:100DF000F00D1124E558FE4F81E211928150E9F780
:100E0000222309F4BCC0213009F4C5C1223009F401
:100E10000CC2233009F462C3243009F41EC26E2DC3
:100E2000663008F0E0C00894211C311CE394D8CF50
:100E30008091910381115B9810929103109292031B
:100E400080917701823009F080CF10927701209154
:100E5000760130E081E290E0289FD001299FB00D1B
:100E6000389FB00D1124A558BE4F75EEE72E73E0E4
:100E7000F72EF70180E090E013C02B3508F072C127
:100E8000822F90E0880F991F880F991F880F991F54
:100E9000885291408193919324E0E732F20769F000
:100EA0002D91203211F0222341F78FEF9FEF819394
:100EB000919324E0E732F20799F780E090E048E070
:100EC000A42E88248A943C01D7010D911D917D01A7
:100ED00080916801992787FD90950817190769F097
:100EE000BFEF0F3F1B0709F44DC187E294E0B80143
:100EF00048E050E06ED80093680180912704F30128
:100F0000EF5BFD4FA8E2B4E001C08D918083B19604
:100F100004E0AF32B007C9F70894611C711C11E2FC
:100F20006116710489F68091C00087FFE3CE0091BD
:100F3000C600909167019F3F09F424C3043209F46D
:100F400024C3053208F031C30A3009F44EC30D3012
:100F500009F44BC38091AC03E82FF0E0E155FC4F5E
:100F60000083983C29F09091AE0390279093AE03B4
:100F70008A3008F0BFCE8F5F8093AC03BBCE8BE787
:100F800091E061E044E251E0F3D980914A04882382
:100F900021F080914C04882321F08BE791E060E000
:100FA00017DE80914904882331F08BE791E06CE0F3
:100FB00047E251E0DDD98BE791E062E149E251E09F
:100FC000D7D9682F6E5F2091BA033091BB0340914F
:100FD000BC035091BD038BE791E001E0FAD96E2D7F
:100FE000663008F420CF80E090E0FC01EE0FFF1F98
:100FF000E80FF91FEE0FFF1FEE0FFF1FEE0FFF1F91
:10100000E75BFC4F20E011922F5F2831E1F701965A
:101010008330910551F70091330410913404E0902E
:10102000CC03F090CD038BE03ADB80912F049091BC
:101030003004A0913104B09132048A309105A105A9
:10104000B10508F448C28091A103882309F48FC236
:1010500098012E193F09C901865A9F4F68E671E031
:1010600037D7843B910508F42EC1845B90406FEF25
:101070008A35910530F044EB50E0DA01A81BB90B3A
:10108000CD018C5C9F4FFC018491869F602D1124C3
:10109000062F112707FD1095C90168E671E018D7E2
:1010A000843B910508F411C1845B90404FEF8A3571
:1010B000910530F024EB30E05901A81AB90AC501B6
:1010C0008C5C9F4FFC01E490C801880F991F880F2A
:1010D000991F880F991F24E630E0B9010DD74B0105
:1010E000E49E802D1124992787FD9095880F991FE4
:1010F000880F991F880F991FB901FED68B01682DA3
:10110000ABE0AA2EA00E8BE0E82EE818655F801BEE
:101110004A2D2E2D4CDBC40197FCA0C295958795D6
:10112000909581959F4F482F455FC80117FD94C248
:1011300095958795909581959F4F282F255F8A2DAE
:101140006E2D35DB97FC84C2A40155954795455F0C
:1011500017FD7BC215950795202F255F8A2D6E2DD3
:1011600026DBC4CD322F3556393008F093CE822F8E
:1011700090E0880F991F880F991F880F991F80573B
:10118000914088CEF201BA2C1192BA94E9F780927C
:10119000680180E0B4CE80914804482D849FC0014E
:1011A000112420914704820F911D0097F1F08CE9E2
:1011B00091E061E04BE251E0DBD880914804582D8A
:1011C000859FC001112420914704820F911D009733
:1011D00061F080914B04882321F080914C04882396
:1011E00021F08CE991E061E0F3DC209149042223B5
:1011F00009F067C18091C803882341F12091C90398
:1012000030E040E050E08CE991E062E1FED72091CF
:10121000BE033091BF034091C0035091C1038CE9DC
:1012200091E065E100E0D5D8FACD8091D90388231B
:1012300009F084C180914C04882309F4F0CD8DEB32
:1012400091E06AE047E351E093D8E9CD8CE991E081
:1012500062E140E351E08CD8DACF2091CA033091AB
:10126000CB0340E050E08FEF91E060E0CED78FEF0E
:1012700091E065E04BE451E07BD88091D6038A3061
:1012800008F055C160921A026CE12091D60330E05B
:1012900040E050E08FEF91E000E511E08BD8682F3F
:1012A0008091D5038A3030F4E62FF0E0E150FE4F14
:1012B00060826F5F2091D50330E040E050E08FEF17
:1012C00091E0A3D7ACCD61E0D3CE41E0F0CE8091E8
:1012D000A103882309F42DC15B9A8091D903882347
:1012E00009F0BEC185E3882E84E0982E09E6602EC1
:1012F00001E0702E1DE6212E11E0312E8DE394E0E9
:101300001982BAE0AB2EB12CC12CD12C9A878987D7
:1013100080917C00807F80937C0080917C0059814B
:10132000852B80937C0080917A00806A80937A007C
:1013300080917A00806480937A0029853A85809133
:101340007A0084FFFCCF3A87298780917A008061F8
:1013500080937A0080917A008F7580937A00209133
:10136000780030917900D4012D933D934D0146E3EF
:1013700051E074D5A6019501D2D579018A01F30116
:1013800021913F0130E040E050E0C801B70175D540
:10139000D1012D911D0130E040E050E0C0D5790130
:1013A0008A01AAE016950795F794E794AA95D1F7D4
:1013B000ED82FE820F8318878E2D90E0982F88276C
:1013C000990F990FA0E0B0E079018A01E81AF90AB3
:1013D0000A0B1B0BC801B70124E630E040E050E0E7
:1013E0004CD5EAE09695879577956795EA95D1F77C
:1013F000A985BA856C93ED811196EC931197F981CB
:10140000FF5FF9831296BA87A987F43009F080CF7D
:1014100080913D0490913E0490934604809345044E
:1014200080913F0490914004909348048093470436
:101430009091420484E6989FC001112420914104B8
:10144000820F911D01E0853F900708F0FBC08937AE
:10145000910508F4E7C2AC014857504024E630E05B
:10146000429FC001439F900D529F900D11246CE745
:1014700071E02ED5609349049091460484E6989FCC
:10148000C001112420914504820F911D21E013E039
:10149000883E910708F020E020934A049091480488
:1014A00084E6989FC001112420914704820F911D6A
:1014B00021E033E0883E930708F020E020934B04BE
:1014C0005ACC30E040E050E08CE991E06CE00EE274
:1014D00011E070D78FCE82E0E2D808CC8EED91E09B
:1014E00060E043E451E044D72091C2033091C3034C
:1014F0008091E2039091E303281B390B442737FDC9
:101500004095542F8EED91E067E07FD68EED91E00F
:1015100069E147E451E02CD72091CC033091CD0311
:1015200040E050E08EED91E06DE16FD67CCC6BE158
:10153000ACCE8BB198E089278BB9CFCE8DEB91E003
:1015400060E042E351E014D78DEB91E062E044E3C8
:1015500051E00ED720912F04309130044091310496
:10156000509132048DEB91E065E04FD65CCC85E084
:1015700065E041E121E11BD985E061E141E125E040
:1015800016D9B4CB043209F0B5CB1092AC0310924B
:10159000AD031092AE0310926701EFEAF3E01192EF
:1015A00003E0EA3BF007D9F7A5CB0A3241F00C3251
:1015B00009F0D0CC8091AE0380278093AE03C3D9CD
:1015C000EFEAF3E0119213E0EA3BF107D9F710924A
:1015D000AC03809167018F5F809367010A3209F045
:1015E00089CB88EC8093670185CBADD94FEF4093D1
:1015F000670120919B0330919C038091C2039091DD
:10160000C303821793070CF05FC281E08093D3037A
:101610008091AB03882309F46DCBAAEBB3E0E3E937
:10162000F3E089E101900D928150E1F781E0809330
:10163000D4038091D5039091D6039093D8038093DF
:10164000D70358CB64E670E015CF0F5F1F4F82CDF4
:101650000894811C911C78CD01966ACD01965ECDCF
:10166000E090BA03F090BB030091BC031091BD035E
:101670006090BE037090BF038090C0039090C10340
:10168000A090DA03B090DB03C090DC03D090DD03C0
:101690002091DE033091DF034091E0035091E1039C
:1016A00029833A834B835C83EA14FB040C051D05F4
:1016B00009F4F2C1C601B5016E0D7F1D801F911F97
:1016C00097FD0CC220E834E84EE150E028D4C9016F
:1016D000865A9F4F68E671E0FBD3843B910508F47E
:1016E000FAC1845B904033243A948A35910530F0F6
:1016F00024EB30E0A901481B590BCA018C5C9F4FB9
:10170000FC012490C801B701DFD46D837E838F83F1
:101710009887C601B501D8D45B016C01C401B3013F
:10172000D3D47B018C0169817A818B819C81CCD45B
:101730009B01AC012E193F09400B510BED80FE803F
:101740000F811885AE18BF08C00AD10A239C602DEE
:101750001124772767FD7095872F972F8ED324E666
:1017600030E040E050E0FDD379018A013324339426
:1017700028C02FEF62162FEF720620E0820620E0CD
:10178000920660F4D601C501D7FC27C08F3F3FEF1A
:10179000930730E0A30730E0B30738F1C801B70181
:1017A00022E030E040E050E0DCD379018A01C6015C
:1017B000B50122E030E040E050E0D3D359016A01A6
:1017C000330C3701480117FFD4CF66247724430137
:1017D0006E187F08800A910ACCCF88279927DC01F0
:1017E0008A199B09AC09BD09D1CF89879A87AB8734
:1017F000BC87C801B701A80197013FD369837A83E9
:101800008B839C83C601B501A601950136D3698BF4
:101810007A8B8B8B9C8B69817A818B819C81492F00
:1018200055276627772789899A89AB89BC898B2FA9
:101830009927AA27BB278D879E87AF87B88B480F2C
:10184000591F6A1F7B1F4F3F51056105710509F044
:1018500008F44CC12224239429893A894B895C8954
:10186000ED82FE820F831887AD86BE86CF86D88A2A
:10187000A980BA80CB80DC80D694C794B794A79413
:10188000D694C794B794A794A982BA82CB82DC82FB
:1018900056954795379527955695479537952795AA
:1018A000220CE52EFF24002711278D2D9927AA272A
:1018B000BB27E80EF91E0A1F1B1F6FEFE616F10487
:1018C0000105110509F0A0F6298B3A8B4B8B5C8B37
:1018D000ED80FE800F811885AD84BE84CF84D888CA
:1018E00089819A81AB81BC8129893A894B895C893C
:1018F000820F931FA41FB51F89839A83AB83BC8378
:10190000B695A795979587958D839E83AF83B88766
:101910000097A105B10509F4D2C080E090E09E8750
:101920008D870CC08D859E8501969E878D878A3117
:10193000910521F12D833E834F83588769817A81F8
:101940008B819C812D813E814F815885E8D26D81AC
:101950007E818F819885260F371F481F591F569506
:10196000479537952795DC01CB01821B930BA40B80
:10197000B50B82309105A105B105A0F6CA01B901E8
:10198000222D30E040E050E078D269837A838B8367
:101990009C83611571058105910509F446C029856F
:1019A0003A854B855C85621673068406950608F4B5
:1019B000A0C0CA01B90124E630E040E050E05DD2A9
:1019C00029813A814B815C81AAD2622E20E030E0ED
:1019D00041E080E090E064EB862E912C8C5C9F4F80
:1019E000FC018491849F402D112464160CF449C09D
:1019F0002A35310509F445C02F5F3F4FC90168E61C
:101A000071E066D2843B910558F0845B90404FEFC3
:101A10008A35910518F3B401681B790BCB01DECF31
:101A200041E0F6CF60E070E025CD80E090E090935B
:101A300034048093330469817A818B819C8125E30E
:101A400031E040E050E019D228EE33E040E050E0D1
:101A500066D279018A01232D30E040E050E0C801D0
:101A6000B7010BD260932F0470933004809331043C
:101A70009093320437CC6D817E812AE530E0261BBD
:101A8000370BA114B104C104D10409F077C017FDCC
:101A900072C08AE590E0CBCF621673068406950685
:101AA00009F008CE10922F041092300410923104E5
:101AB00010923204109234041092330413CC6981D2
:101AC0007A818B819C815CCF281739070CF0A0CDDF
:101AD0004093D3039DCD3324339407CE90958095C6
:101AE000709561957F4F8F4F9F4FECCD22242394AB
:101AF000F7CEC401B30124E630E040E050E0BDD1B0
:101B000029813A814B815C810AD2622E60E070E0CB
:101B100041E080E090E028E631E054EB852E912C06
:101B20007E836D838C5C9F4FFC018491849F402D4C
:101B3000112464160CF49FCF4D815E814A35510506
:101B400009F499CF4D815E814F5F5F4F5E834D8376
:101B5000CA01B901BDD1843B910558F0845B904026
:101B60004FEF8A359105F0F2B401681B790BCB0178
:101B7000D9CF41E0F6CF8EE091E059CF1A141B0483
:101B80001C041D043CF417FD0BC08AE590E0821B89
:101B9000930B4DCF17FD08C0C901865A9F4F47CF01
:101BA000C901825F9E4F43CF8EE091E0821B930B71
:101BB0003ECF1F920F920FB60F9211242F933F9397
:101BC0004F935F936F937F938F939F93AF93BF9345
:101BD000EF93FF93109285001092840028E22A95DB
:101BE000F1F74A997AC08091720190917301009740
:101BF00009F435C020917501213009F491C02230DB
:101C000009F02DC0E3E1F1E03197F1F700C00000E9
:101C1000E0917A01F0E0E75BFC4F20E030813EBDCF
:101C2000219A0000000000000000000000000000F9
:101C300000000000000000000000000000000000A4
:101C40000000000000000000000000000000000094
:101C50002F5F7896233011F7219800001EBC109258
:101C60007501019690937301809372018E369105F0
:101C700009F444C08F36910509F48FC04091780172
:101C80005091790184179507A0F12091520130916C
:101C9000530182179307B0F18217930709F48EC09E
:101CA0009C01295630402831310530F422E0209340
:101CB0007501895680937A01FF91EF91BF91AF91A1
:101CC0009F918F917F916F915F914F913F912F9154
:101CD0000F900FBE0F901F901895809172019091F8
:101CE0007301893C910540F31092730110927201C7
:101CF000E3CF2091520130915301CECF21E02093C8
:101D00007701BCCF21E020937501841B80937A0179
:101D100090915401923081F6869580937A01CCCFD0
:101D200060917601E8E1EA95F1F740917A0150E09F
:101D300070E021E230E0629FD001639FB00D729F9E
:101D4000B00D1124A558BE4F429FF001439FF00DE6
:101D5000529FF00D1124EF5BFD4F21E216C0219A36
:101D600031913EBD000000000000000000000000B6
:101D70000000000000000000000000000000000063
:101D8000000000000000215061F03D91303211F060
:101D9000332329F721980000E3CF22E02093770135
:101DA0006DCF0000000000000000000000000000F7
:101DB0000000000000001EBC219851CF82E08093FB
:101DC00077018091760190E0019666E070E094D012
:101DD00080937601FC01EE0FFF1FEB5AFE4F20812E
:101DE000318130937901209378018F599E4FFC0106
:101DF00080818093540190E0880F991F880F991F6C
:101E0000880F991F820F931F909353018093520163
:101E100081E080937A0150CF1F920F920FB60F92FC
:101E200011242F933F938F939F93809172019091F0
:101E300073012091740130E02817390721F42BB188
:101E400038E023272BB9809374019F918F913F91A4
:101E50002F910F900FBE0F901F901895539FC001A8
:101E6000429FB001529F700D811D1124911D349F1E
:101E7000700D811D1124911D0895629FD001739FE3
:101E8000F001829FE00DF11D649FE00DF11D929F16
:101E9000F00D839FF00D749FF00D659FF00D992755
:101EA000729FB00DE11DF91F639FB00DE11DF91F79
:101EB000BD01CF0111240895991B79E004C0991F39
:101EC000961708F0961B881F7A95C9F78095089594
:101ED000AA1BBB1B51E107C0AA1FBB1FA617B70750
:101EE00010F0A61BB70B881F991F5A95A9F780956C
:101EF0009095BC01CD01089597FB092E07260AD0C5
:101F000077FD04D0E5DF06D000201AF470956195C6
:101F10007F4F0895F6F7909581959F4F0895A1E220
:101F20001A2EAA1BBB1BFD010DC0AA1FBB1FEE1F53
:101F3000FF1FA217B307E407F50720F0A21BB30B9E
:101F4000E40BF50B661F771F881F991F1A9469F71A
:101F500060957095809590959B01AC01BD01CF0176
:101F6000089597FB092E05260ED057FD04D0D7DF24
:101F70000AD0001C38F450954095309521953F4F7C
:101F80004F4F5F4F0895F6F7909580957095619546
:101F90007F4F8F4F9F4F0895FB01DC014150504010
:101FA00030F08D910190801919F40020B9F7881B49
:101FB000990B0895FB01DC014150504048F001901D
:101FC0000D920020C9F701C01D9241505040E0F72A
:101FD0000895DC01CB01FC01F999FECF06C0F2BDEA
:101FE000E1BDF89A319600B40D9241505040B8F7D7
:061FF0000895F894FFCFF4
:101FF6004E005300450057002D2D2E2D2D2D2D2D35
:102006002D2D3F002E004750474741004750524D67
:10201600430056006A3100690068006A32002500F4
:102026002D0066004D54004E4F20484F4D45205020
:102036004F5300414C5400484447004B4D2F480035
:102046003A0002000232004200AA00CD00FF00184A
:1020560001010102010102FFFF0101010101010667
:02206600010077
:00000001FF
