:1000000047C0E8CC60C05FC05EC05DC05CC05BC084
:100010005AC059C058C057C056C006CE54C053C06D
:1000200052C051C050C04FC04EC04DC04CC04BC05C
:100030004AC049C00002030507090A0C0E1011133B
:100040001516181A1C1D1F2122242527292A2C2D9C
:100050002F303234353638393B3C3E3F4042434402
:10006000454748494A4B4D4E4F50515253545556AF
:10007000575758595A5B5B5C5D5D5E5F5F606061BE
:1000800061616262626363636364646464646400A4
:1000900011241FBECFEFD4E0DEBFCDBF11E0A0E042
:1000A000B1E0EEEEFDE102C005900D92A237B1077E
:1000B000D9F714E0A2E7B1E001C01D92A534B10761
:1000C000E1F74BD592CE9CCF4F925F926F927F9289
:1000D0008F929F92AF92BF92CF92DF92EF92FF9258
:1000E0001F93CF93DF9300D000D0CDB7DEB76B0165
:1000F0007C0197FD74C011E0C701B60120E432E431
:100100004FE050E02ADE422E552466247724C701B2
:10011000B60120E137E240E050E01FDE69837A83D8
:100120008B839C83C301B2012CE330E040E050E0BC
:10013000ACDD4B015C01C301B20120EC3DEB40EFB3
:100140005FEFA3DD6C0D7D1D8E1D9F1D20E137E24D
:1001500040E050E002DE820E911CA11CB11CC501E2
:10016000B4012CE330E040E050E08FDD6B017C0116
:1001700069817A818B819C8188DD4B015C01C7019B
:10018000B60124E630E040E050E07FDD6B017C0109
:10019000C501B401C0DDC20ED31EE41EF51E1F3F13
:1001A00041F4F094E094D094C094C11CD11CE11CA3
:1001B000F11CC701B6010F900F900F900F90DF91C7
:1001C000CF911F91FF90EF90DF90CF90BF90AF90B5
:1001D0009F908F907F906F905F904F900895F094D4
:1001E000E094D094C094C11CD11CE11CF11C1FEF01
:1001F00083CF4F925F926F927F928F929F92AF9236
:10020000BF92CF92DF92EF92FF920F931F93CF9303
:10021000DF932C01D62F49015A0189019A01B7FCBD
:1002200079C0C1E00A3011052105310594F09AE04A
:10023000C92ED12CE12CF12CC901B801A7019601DE
:100240008CDD89019A01CF5F0A3011052105310546
:100250009CF7B7FC5DC08D2F90E09C012C0F311DE9
:100260002132310594F081E2DF91CF911F910F91FE
:10027000FF90EF90DF90CF90BF90AF909F908F90C6
:100280007F906F905F904F900895480E591EB7FC75
:1002900049C010E0320100E08AE0C82ED12CE12CE8
:1002A000F12C01C0082FC501B401A701960155DD4D
:1002B000605DF30161933F01802F8F5F49015A0117
:1002C00012161306140615066CF31F3FA9F1E82F4A
:1002D000FF27E7FDF095E40DF51D10828150682F92
:1002E0006695282F30E040E0842F90E0F201E80F7F
:1002F000F91F5081D901A81BB90BA40DB51D8C9114
:1003000080835C934F5F641778F78C2F8D0FACCF91
:10031000CF5FA1CF002711279801081919092A09D1
:100320003B097FCFB094A09490948094811C911C41
:10033000A11CB11C1FEFAECFE82FFF27E7FDF09502
:10034000E40DF51D8DE28083802F8E5FC0CF0F936B
:100350001F93CF93DF938C01D62FFA01DA010D9012
:100360000020E9F71197CA2FC41B70E08C2F90E092
:100370009B01280F391F213231057CF041E250E00A
:10038000C1E2C801860F971FBF0110DD8C2F8D0FB2
:10039000DF91CF911F910F910895AC01F2CF0F9390
:1003A0001F93CF93DF93EC0124DF682FCE01A801C8
:1003B000CEDFDF91CF911F910F9108950F931F937F
:1003C000CF93DF93EC01E42FF0E0EE0FFF1FE85C2A
:1003D000FB4F1081218130E040E050E00ADFFE0158
:1003E000E80FF11D9EE29083682F6F5F1A3030F4A2
:1003F000FE01E60FF11D90E390836F5F212F30E047
:1004000040E050E0CE0100E011E0C9DFDF91CF9184
:100410001F910F9108952F923F924F925F926F928A
:100420007F928F929F92AF92BF92CF92DF92EF9284
:10043000FF920F931F93CF931C01C62F69017A017E
:10044000211531054105510509F456C0CA01B9010C
:1004500020E432E44FE050E080DC822E9924AA248C
:10046000BB24C501B40120EC3DEB40EF5FEF0DDC98
:100470006C0D7D1D8E1D9F1D24E630E040E050E098
:1004800004DC2CE330E040E050E045DC29013A0197
:10049000002341F51C141D041E041F048CF556E0B6
:1004A000C52E51E0D52EC1016C2FA501940106E1A6
:1004B00011E075DF682FC101A301920186016FDF92
:1004C000CF911F910F91FF90EF90DF90CF90BF9051
:1004D000AF909F908F907F906F905F904F903F90E4
:1004E0002F9008951C141D041E041F0474F468E06A
:1004F000C62E61E0D62ED7CF4AE051E028DFE0CF0C
:1005000034E0C32E31E0D32ECECF42E0C42E41E002
:10051000D42EC9CFFF920F931F93CF93DF93FF2465
:10052000F3948091D4038D3209F0FF24EF2DF0E095
:10053000EC52FC4FD0818D2F80538A3090F000E038
:1005400010E09801FF20A1F561E070E080E090E00C
:10055000A90198019ADBDF91CF911F910F91FF9034
:100560000895CF2D00E010E09801C901B8012AE0FC
:1005700030E040E050E089DBDC01CB010D2F10E0E2
:1005800000531040222717FD2095322F080F191F06
:100590002A1F3B1FCF5FEC2FF0E0EC52FC4FD081C5
:1005A0008D2F80538A3070F6CB30F8F2FF2061F245
:1005B0006FEF7FEFCB01CCCFFF920F931F93CF93C1
:1005C000DF93FF24F3948091D4038D3209F0FF244C
:1005D000CF2D00E010E0980118C0C901B8012AE051
:1005E00030E040E050E051DBDC01CB010D2F10E0AA
:1005F00000531040222717FD2095322F080F191F96
:100600002A1F3B1FCF5FCB3058F4EC2FF0E0EC52A9
:10061000FC4FD0818D2F80538A30F8F2DE3291F377
:10062000FF2069F461E070E080E090E0A9019801AA
:100630002CDBDF91CF911F910F91FF9008956FEF09
:100640007FEFCB01F3CF8091D203882381F180919A
:10065000D103882359F180915E01853689F0863671
:1006600008F044C0843009F475C0853008F07EC0BD
:10067000823009F447C0833008F021C18130B1F4E1
:1006800049DFDC01CB018093830190938401A09327
:100690008501B0938601089580E090E0DC0121E0BF
:1006A0003091D303381320E020939101089584ED15
:1006B00093E068E171E045E050E06ADB009781F08B
:1006C00084ED93E06EE171E045E050E061DB00977E
:1006D00069F782E08093D20384E680935E010895F7
:1006E00081E08093D20310925E0108958A36B1F0C2
:1006F0008B3608F04EC0883609F4E1C0893650F5D3
:100700008736A1F659DFDC01CB0180937901909304
:100710007A01A0937B01B0937C0108958091D4036A
:10072000873521F680917D0190917E01A0917F0116
:10073000B0918001B095A095909581959F4FAF4F56
:10074000BF4F80937D0190937E01A0937F01B09372
:100750008001089531DFDC01CB0180937D0190930E
:100760007E01A0937F01B09380010895863009F443
:10077000A0C0863098F2873009F495C0893009F01E
:1007800095CFC8DEDC01CB0190938201809381017B
:1007900008958C3609F47FC08C3608F468C08D3615
:1007A00009F459C0883C09F081CF2091D403222359
:1007B00009F472CFE5EDF3E080E090E0DC0115C0D4
:1007C00030E027533040A901662757FD6095762F0A
:1007D000840F951FA61FB71F2191222309F45FCF15
:1007E00033E0E03EF30709F45ACF880F991FAA1FA0
:1007F000BB1F880F991FAA1FBB1F880F991FAA1F15
:10080000BB1F880F991FAA1FBB1F322F31543630D0
:10081000B8F2322F3156363068F430E02755304088
:10082000A901662757FD6095762F840F951FA61F97
:10083000B71FD2CF322F30533A3070F630E020530A
:100840003040A901662757FD6095762F840F951FCC
:10085000A61FB71FC1CF5EDEDC01CB0180938D01E7
:1008600090938E01A0938F01B0939001089552DE72
:10087000AB01BC012FEC31E0429FC001439F900DC2
:10088000529F900D11246AEF70E01EDA70938A0176
:100890006093890108953EDEDC01CB0190938C01C9
:1008A00080938B01089536DEDC01CB0180938801B3
:1008B000089530DEDC01CB0180938701089580919B
:1008C000D403833509F0F2CE8091790190917A01B9
:1008D000A0917B01B0917C01B095A09590958195F8
:1008E0009F4FAF4FBF4F8093790190937A01A093B0
:1008F0007B01B0937C010895883110F4683108F0D1
:100900000895482F46954695469550E08095877006
:1009100021E030E002C0220F331F8A95E2F7FA018E
:10092000EE0FFF1FE40FF51FEE0FFF1FEE0FFF1F6F
:10093000EE0FFF1FE60FF11DE851FC4F8081822B67
:1009400080830895CF92DF92EF92FF920F931F93CF
:10095000CF93DF93982FC42F022F10E0E62EFF24B1
:10096000C42EDD24A82FB0E0A8014E195F0957FD61
:100970005AC0F601EA1BFB0BF7FD5DC0D1E0E4179E
:10098000F507ECF1D0E06801D701C91708F43FC0C2
:10099000AD01D6016A01621708F442C0EE24EA9460
:1009A000C91720F1FC2EF91A1F2DF7FC4CC0159524
:1009B000062FAC19BD09B7FD42C0DA2EC92E09C0F9
:1009C000802F6C2D99DF1D1917FD0BC0C394CC151A
:1009D00068F0DD23A9F78C2D602F8EDF1D1917FF1E
:1009E000F5CF0E0D1F0DC394CC1598F7DF91CF9165
:1009F0001F910F91FF90EF90DF90CF9008958C2F73
:100A0000C22F282F892F962F682FC91708F6862FF7
:100A1000622F282F892F9C2FC82F621708F0BECF76
:100A2000EE24E394BDCF509541955F4FF601EA1B4C
:100A3000FB0BF7FFA3CFF095E195FF4F9FCFB0954C
:100A4000A195BF4FBACF1F5FB2CFFF920F931F93F5
:100A5000CF93DF9300D000D00F92CDB7DEB7182F21
:100A600081E0982F911B9D838C83812F8195880F26
:100A70008B831A821983BBE0FB2EF10E8BE06F2D66
:100A80003BDF0BE0011B8BE0602F36DF8F2D6BE02F
:100A900033DF802F6BE030DF9A81898198170CF06B
:100AA00051C01BE08D8187FD0AC0898181508983F7
:100AB0008B818E5F8B839D818B81890F8D838A8152
:100AC0008F5F8A838C818E5F8C839D818C81890F5F
:100AD0008D838A816981655F855F0EDF8A81698187
:100AE000655F912F981B892F07DF8A819981612F7C
:100AF000691B855F01DF8A819981612F691B912FB5
:100B0000981B892FF9DE89816A81655F855FF4DE34
:100B100089816A81655F912F981B892FEDDE89811C
:100B20009A81612F691B855FE7DE89819A81612F38
:100B3000691B912F981B892FDFDE9A818981981775
:100B40000CF4B0CF0F900F900F900F900F90DF919B
:100B5000CF911F910F91FF900895CF93DF93CDB761
:100B6000DEB766970FB6F894DEBF0FBECDBF20E1AB
:100B70002BB988E08AB929988CE084B980916F00FC
:100B8000816080936F0080918100826080938100FA
:100B900083E08093690031E03DBB80E880BF109224
:100BA0007B001EBC8DB58E7F8DBD84E58CBDE09134
:100BB000B601F0E0EE0FFF1FEE5AFE4F80819181EB
:100BC0009093D0038093CF0310927E0080917C009D
:100BD000806480937C0080917A00866080937A00A4
:100BE00010927B003093C50087E38093C40086E0B9
:100BF0008093C2002093C10078946FEB262E62E0B0
:100C0000362E8091C00087FDDAC14C995BC181E02E
:100C100080937701809178018333A8F05B9A80916B
:100C20009101882381F080918701882361F0A2E9F6
:100C3000B1E0ECE9F1E08AE001900D928150E1F73A
:100C400081E08093B50180917201823009F447C13F
:100C5000809172018130A9F6109272018091770122
:100C6000882329F0809178018F5F809378018091AB
:100C70007601882309F0A9C080918701882309F4AF
:100C8000A6C35B9A8091B501882309F0A9C3F0E35C
:100C90006F2EF4E07F2EA0E64A2EA1E05A2E84E6C5
:100CA00091E09E838D8389E394E01982BAE08B2ED4
:100CB000912CA12CB12C988B8F8780917C00807F08
:100CC00080937C0080917C00C9808C2980937C007B
:100CD00080917A00806A80937A0080917A008064A3
:100CE00080937A002F85388980917A0084FFFCCF29
:100CF000388B2F8780917A00806180937A00809171
:100D00007A008F7580937A00209178003091790075
:100D1000D3012D933D933D0146E351E0A7D7A501B3
:100D20009401F9D7F20161912F0170E080E090E029
:100D3000ACD7AD81BE812D91BE83AD8330E040E064
:100D400050E0E9D789019A01680179018AE0F694B7
:100D5000E794D794C7948A95D1F7CB86DC86ED8645
:100D6000FE864F855889415050405A8749878C2DBF
:100D700090E0982F8827990F990FA0E0B0E06801C4
:100D80007901C81AD90AEA0AFB0AC701B60124E6A2
:100D900030E040E050E079D7DC01CB01EAE0B695E5
:100DA000A79597958795EA95D1F7E985FA85808388
:100DB000EB85AF85B889EC93F981FF5FF9831296D3
:100DC000B88BAF87F43009F078CF809176018F5FD0
:100DD0008093760180917601823378F010927601CB
:100DE000809174018F5F809374018091730190E012
:100DF00001968170907080937301809174018C339F
:100E000038F010927401809175018F5F80937501A5
:100E1000809175018C3310F01092750191E080E0A3
:100E2000D92EE82E2E2D30E081E290E0289FF001AF
:100E3000299FF00D389FF00D1124E954FE4F81E2F7
:100E400011928150E9F7EE2009F4E1C0CC24C3945B
:100E5000EC1409F439C252E0E51609F4F7C163E075
:100E6000E61609F40BC274E0E71609F474C28CE5C7
:100E700092E060E04FE351E06ADA8CE592E065E0F1
:100E800043E451E064DA9091B501682F6D5F9923D6
:100E900009F477C38CE592E047E451E058DA8CE539
:100EA00092E067E14BE451E052DA8CE592E06CE1CC
:100EB0004DE451E04CDA86E0D81609F4E5C0E3943D
:100EC000D394B0CF8091770181115B981092770114
:100ED0001092780180917201823009F0B9CE10929F
:100EE00072012091B60130E081E290E0289FD001AC
:100EF000299FB00D389FB00D1124A954BE4F4DE766
:100F0000E42E42E0F42EF70180E090E013C02B3590
:100F100008F083C1822F90E0880F991F880F991FD6
:100F2000880F991F885291408193919342E0EF3B43
:100F3000F40769F02D91203211F0222341F78FEF51
:100F40009FEF8193919342E0EF3BF40799F700E024
:100F500010E0B8E0DB2ECC24CA94D7018D909D9090
:100F60007D0180915101992787FD909588169906FA
:100F700071F0BFEF8B16BFEF9B0609F45EC18FEBDC
:100F800092E0B40148E050E020D780925101809176
:100F9000BF02F801E953FD4FA0ECB2E001C08D9112
:100FA0008083B19632E0A73CB307C9F70F5F1F4FAC
:100FB0000132110591F68091C00087FF26CE009185
:100FC000C60090915E019F3F09F4F9C2043209F412
:100FD000F9C2053208F006C30A3009F423C30D3004
:100FE00009F420C38091D103E82FF0E0EC52FC4FCC
:100FF0000083983C29F09091D30390279093D303DA
:101000008A3008F002CE8F5F8093D103FECD87EB4C
:1010100091E060E044E251E09AD987EB91E067E02B
:1010200047E251E094D987EB91E06EE04AE251E06B
:101030008ED9809175018A3008F01EC180E38093BB
:10104000D2016CE12091750130E040E050E087EB87
:1010500091E00CE211E0A3D9682F809174018A30ED
:1010600038F4E62FF0E0E954FE4F80E380836F5FB1
:101070002091740130E040E050E087EB91E0B9D876
:1010800086E0D81609F01BCF80E090E0FC01EE0F5F
:10109000FF1FE80FF91FEE0FFF1FEE0FFF1FEE0FF0
:1010A000FF1FE851FC4F20E011922F5F2831E1F73C
:1010B00001968330910551F7E090E603F090E70345
:1010C0000091AE011091AF018BE0BFDC8091E20393
:1010D0009091E303A091E403B091E5038A30910578
:1010E000A105B10508F44AC28091AC019091AD010F
:1010F0008A30910508F424C180918701882309F47E
:101100001FC1D701A01BB10B8D01CD01865A9F4F86
:1011100068E671E0D9D5843B910508F43AC2845B56
:1011200090404FEF8A35910530F024EB30E0F90123
:10113000E81BF90BCF018C5C9F4FFC018491849FCD
:10114000202D1124C80168E671E0BED5843B9105CD
:1011500008F41DC2845B90403FEF8A35910530F062
:1011600064EB70E06B01C81AD90AC6018C5C9F4F12
:10117000FC018491839F402D1124822F992787FDA4
:101180009095880F991F880F991F880F991F24E643
:1011900030E0B901ADD54B01842F992787FD90959B
:1011A000880F991F880F991F880F991FB901A0D523
:1011B0008B01682DBBE0EB2EE00E8BE0D82ED8180B
:1011C000655F801B4E2D2D2DBDDBC40197FC7FC3B9
:1011D00095958795909581959F4F482F455F9801EC
:1011E00017FD72C3C90195958795909581959F4F7D
:1011F000282F255F8E2D6D2DA5DB97FC61C3A401E3
:1012000055954795455F17FD58C315950795202FB0
:10121000255F8E2D6D2D96DBF4CC322F355639306F
:1012200008F082CE822F90E0880F991F880F991FB7
:10123000880F991F8057914077CEF1012D2D119283
:101240002A95E9F7C092510180E0A3CE80915F0119
:10125000882309F430CE8091B501882309F02BCE84
:1012600080917301882309F42ACE89EF91E06AE026
:1012700041E351E06CD823CE6BE1E4CE80915F0175
:10128000882309F418CE8091B501882309F013CE84
:1012900020919C0130919D0140919E0150919F01B0
:1012A0008AE192E064E001E0B6D8682F6E5F209199
:1012B000A0013091A1014091A2015091A3018AE1C6
:1012C00092E000E0A8D8FBCD88ED91E060E24EE22C
:1012D00051E03DD888ED91E060E040E06FD888EDC6
:1012E00091E067E041E06AD820913D0484E6289FC0
:1012F0009001112480913C04280F311D41E0253FCD
:10130000340708F048C12937310508F4A8C2285726
:10131000304044E650E0249FC001259F900D349F4B
:10132000900D11246CE771E0CFD49B0130E040E0D8
:1013300050E088ED91E06EE00FE211E030D8BFCDD3
:1013400085E065E041E121E1FDDA85E061E141E12F
:1013500025E0F8DA56CC2091AC013091AD0140E0A7
:1013600050E08BE392E060E044D78091B5018823A0
:1013700009F41EC12091E2033091E3034091E4039C
:101380005091E5038BE392E065E033D78091AA01A9
:10139000882309F4ECC02091AB0130E040E050E03C
:1013A0008BE392E067E125D72091A4013091A5015C
:1013B00080919A0190919B01281B390B442737FD9E
:1013C0004095542F8BE392E06CE113D774CD8BB131
:1013D00098E089278BB98091B501882309F457CC0F
:1013E000C0909C01D0909D01E0909E01F0909F01E3
:1013F0004090A0015090A1016090A2017090A301C3
:101400008090920190909301A0909401B0909501EA
:1014100040919601509197016091980170919901C6
:1014200049835A836B837C83C814D904EA04FB0480
:1014300009F44FC2D701C601880D991DAA1DBB1D15
:10144000B7FF07C0B095A095909581959F4FAF4F7E
:10145000BF4FBC01CD0120E834E84EE150E05BD441
:10146000C901865A9F4F68E671E02ED4843B9105EE
:1014700008F4F9C1845B90405FEF5D838A35910584
:1014800030F024EB30E0A901481B590BCA018C5CF9
:101490009F4FFC014491C701B6014E8B15D68B01BD
:1014A0009C01C501B4012B8B3C8B0ED64B015C011A
:1014B000C301B20109D66B017C0169817A818B81FC
:1014C0009C8102D66C197D098E099F092B893C8964
:1014D00024013501401A510A620A730A4E89CD80EF
:1014E0004C9D202D1124332727FD3095432F532F5A
:1014F000CCD324E630E040E050E02FD449015A013B
:10150000A2E0CA2ED12CE12CF12C01E024C04F3FE7
:101510003FEF530730E0630730E0730768F4D3010F
:10152000C20177FC3DC08F3FEFEF9E07E0E0AE07C2
:10153000E0E0BE0708F4B9C0C501B401A7019601F7
:101540000CD449015A01C301B201A701960105D487
:1015500029013A01000FB501A401B7FED8CF4427F5
:101560005527BA01481959096A097B09D0CF8BE37D
:1015700092E067E14DE351E0EAD616CF82E065DA0A
:1015800040CB8CE592E049E451E0E1D688CC31E0F3
:10159000E4CD41E0C7CD24E630E040E050E0C9CEE4
:1015A00088279927DC0184199509A609B709BBCFBB
:1015B0008BE392E065E04DE351E0C9D6E7CE04321B
:1015C00009F023CB1092D1031092D2031092D303CF
:1015D00010925E01E4EDF3E0119223E0EF3DF2079B
:1015E000D9F713CB0A3241F00C3209F0FBCC8091D1
:1015F000D30380278093D30326D8E4EDF3E0119240
:1016000033E0EF3DF307D9F71092D10380915E01EB
:101610008F5F80935E010A3209F0F7CA88EC8093ED
:101620005E01F3CA10D88FEF80935E018091910123
:10163000882309F4EACAACE9B1E0E9E7F1E089E11D
:1016400001900D928150E1F781E08093DF0380915A
:101650007401909175019093E1038093E003809170
:10166000AC019091AD0121E08330910508F020E0BC
:1016700020935F012091B501222309F0C6CA209171
:10168000AA01222309F4C1CA8A30910508F4BDCA0F
:10169000A2E9B1E0ECE9F1E08AE001900D9281501D
:1016A000E1F781E08093B501B0CA0D8B4B875C8771
:1016B0006D877E878F87988BA98BBA8BC501B40104
:1016C000A5019401E2D26B017C01C301B201A30127
:1016D0009201DBD28B019C01892F9927AA27BB2776
:1016E0004F2D552766277727840F951FA61FB71FF5
:1016F0008F3F9105A105B10509F008F453C1F69497
:10170000E794D794C794F694E794D794C794369502
:10171000279517950795369527951795079542E0D4
:1017200050E060E070E04D835E836F837887D7017F
:10173000C601800F911FA21FB31F89839A83AB83B9
:10174000BC836C017D01F694E794D794C794C114CF
:10175000D104E104F10461F11A8619860AC0A98551
:10176000BA851196BA87A987AA31B105E9F068014F
:10177000790169817A818B819C81A7019601CBD205
:1017800089019A010C0D1D1D2E1D3F1D36952795B3
:1017900017950795C01AD10AE20AF30A92E0C91612
:1017A000D104E104F104D8F609831A832B833C8326
:1017B00069817A818B819C812D813E814F81588501
:1017C00064D26B017C01611571058105910509F4F5
:1017D0004DC02F85388949895A896B857C858D85CF
:1017E0009E85621773078407950708F494C0CA01A1
:1017F000B90124E630E040E050E047D2A70196016D
:101800008AD2522F20E030E041E080E090E008E60C
:1018100011E059838C5C9F4FFC018491849F402D83
:101820001124F981F4170CF46BC02A35310509F441
:1018300067C02F5F3F4FC901B80146D2843B910575
:1018400060F0845B90404FEF8A35910518F3A4EB6C
:10185000B0E0A81BB90BCD01DDCF41E0F5CF20E012
:1018600030E0A90166CD21E02D8308CE80E090E034
:101870009093E7038093E603C701B60125E331E0C7
:1018800040E050E002D228EE33E040E050E043D2A6
:1018900069017A016D89262F30E040E050E0C701F0
:1018A000B601F3D1DC01CB018093E2039093E30313
:1018B000A093E403B093E503EAC90F5F1F4FA5CCE3
:1018C0000894811C911C9BCC2F5F3F4F8BCC0196C1
:1018D0007FCC441655066606770609F0ABCD10920C
:1018E000E2031092E3031092E4031092E5031092D6
:1018F000E7031092E603CBC92AE530E0201B310B49
:10190000411451046104710409F03DC0B7FC47C0A3
:101910008AE590E0ADCF6B857C858D859E8524E63C
:1019200030E040E050E0B1D1A7019601F4D1522F50
:1019300041E000E010E080E090E028E631E05983EB
:101940008C5C9F4FFC018491849F402D1124F98170
:10195000F41794F20A35110579F20F5F1F4FC80191
:10196000B901B2D1843B910560F0845B90404FEFA8
:101970008A35910528F364EB70E0681B790BCB0185
:10198000DFCF41E0F5CF1414150416041704BCF49E
:10199000B7FC11C08AE590E0821B930B69CF8EE003
:1019A00091E066CF61E070E080E090E06D837E833F
:1019B0008F839887BCCEC901825F9E4F59CFB7FCF9
:1019C00004C0C901865A9F4F53CF8EE091E0821B1D
:1019D000930B4ECF1F920F920FB60F9211242F939D
:1019E0003F934F935F936F937F938F939F93AF93A7
:1019F000BF93EF93FF9388E28A95F1F74A9981C0EC
:101A000060914004709141046115710509F439C079
:101A100080914204813009F492C0823009F031C0D3
:101A2000E3E1F1E03197F1F700C0000020914304B9
:101A300030E080E090E028513C4FF901E80FF91FB9
:101A400040814EBD219A000000000000000000000F
:101A50000000000000000000000000000000000086
:101A60000000000000000000000000000000000076
:101A700000000000489688349105F9F6219800008E
:101A80001EBC10924204CB010196909341048093B6
:101A900040048E36910509F440C08F36910519F443
:101AA00022E0209372014091CF035091D003209106
:101AB0006801309169018417950718F08217930720
:101AC00080F18217930709F481C06856704068312D
:101AD000710530F492E09093420489568093430458
:101AE000FF91EF91BF91AF919F918F917F916F91F6
:101AF0005F914F913F912F910F900FBE0F901F90CC
:101B000018958091400490914104893C910540F3DF
:101B10001092410410924004E3CF21E0209372011F
:101B2000C2CF91E090934204841B80934304909130
:101B30006A019230A9F6869580934304D1CF209113
:101B4000B60198E19A95F1F7A091430430E081E263
:101B500090E0289FF001299FF00D389FF00D11248F
:101B6000E954FE4F81E2A89FD0011124A953BD4F33
:101B700080E017C0219A9D919EBD000000000000EA
:101B80000000000000000000000000000000000055
:101B90000000000000000000000000008F5F8132A4
:101BA00041F09191903211F0992321F72198000092
:101BB000E2CF000000000000000000000000000074
:101BC0000000000000001EBC21985BCF82E08093E3
:101BD00072018091B60190E0019666E070E088D0D5
:101BE0008093B601FC01EE0FFF1FEE5AFE4F2081DD
:101BF00031813093D0032093CF0385599E4FFC0150
:101C0000808180936A0190E0880F991F880F991F47
:101C1000880F991F820F931F909369018093680129
:101C200081E0809343045CCF1F920F920FB60F9216
:101C300011242F933F938F939F9380914004909111
:101C400041042091440430E02817390721F42BB1D6
:101C500038E023272BB9809344049F918F913F91C3
:101C60002F910F900FBE0F901F901895539FC0019A
:101C7000429FB001529F700D811D1124911D349F10
:101C8000700D811D1124911D0895629FD001739FD5
:101C9000F001829FE00DF11D649FE00DF11D929F08
:101CA000F00D839FF00D749FF00D659FF00D992747
:101CB000729FB00DE11DF91F639FB00DE11DF91F6B
:101CC000BD01CF0111240895AA1BBB1B51E107C020
:101CD000AA1FBB1FA617B70710F0A61BB70B881FBC
:101CE000991F5A95A9F780959095BC01CD0108954B
:101CF00097FB092E07260AD077FD04D0E5DF06D032
:101D000000201AF4709561957F4F0895F6F790952D
:101D100081959F4F0895A1E21A2EAA1BBB1BFD01BE
:101D20000DC0AA1FBB1FEE1FFF1FA217B307E407BA
:101D3000F50720F0A21BB30BE40BF50B661F771F12
:101D4000881F991F1A9469F76095709580959095F2
:101D50009B01AC01BD01CF01089597FB092E05261B
:101D60000ED057FD04D0D7DF0AD0001C38F45095B0
:101D70004095309521953F4F4F4F5F4F0895F6F7AF
:101D800090958095709561957F4F8F4F9F4F0895E7
:101D9000FB01DC014150504030F08D9101908019E1
:101DA00019F40020B9F7881B990B0895FB01DC0199
:101DB0004150504048F001900D920020C9F701C0F9
:101DC0001D9241505040E0F70895DC01CB01FC0129
:101DD000F999FECF06C0F2BDE1BDF89A319600B484
:0E1DE0000D9241505040B8F70895F894FFCF8F
:101DEE0056005300570045004E002D2D2E2D2D2D43
:101DFE002D2D2D2D3F002E004750474741004750B7
:101E0E00524D43006A31006A320069003A000025E3
:101E1E00004E4F20484F4D4520504F53002D00533C
:101E2E005044004C4F5300660067006800414C540C
:101E3E0000FF32004200AA00CD00FF001801FF0192
:101E4E00010101010101060102000201020101026C
:021E5E00010081
:00000001FF
