:1000000047C02CCC60C05FC05EC05DC05CC05BC040
:100010005AC059C058C057C056C048CD54C053C02C
:1000200052C051C050C04FC04EC04DC04CC04BC05C
:100030004AC049C00002030507090A0C0E1011133B
:100040001516181A1C1D1F2122242527292A2C2D9C
:100050002F303234353638393B3C3E3F4042434402
:10006000454748494A4B4D4E4F50515253545556AF
:10007000575758595A5B5B5C5D5D5E5F5F606061BE
:1000800061616262626363636364646464646400A4
:1000900011241FBEC0E0D4E0DEBFCDBF11E0A0E060
:1000A000B1E0E6E8FCE102C005900D92AA38B10784
:1000B000D9F714E0AAE8B1E001C01D92A636B10755
:1000C000E1F720D5DECD9CCF68E671E049DD843BC9
:1000D000910520F0845B90404FEF01C041E08A35EC
:1000E000910530F024EB30E0B901681B790BCB01AE
:1000F000FC01EC5CFF4F8491849F802D11240895B6
:100100002F923F924F925F926F927F928F929F9227
:10011000AF92BF92CF92DF92EF92FF920F931F9315
:10012000DF93CF9300D000D00F92CDB7DEB77B0125
:100130008C0197FF0BC010950095F094E094E11CA2
:10014000F11C011D111D8FEF898302C0E1E0E983DD
:10015000C801B70120E432E44FE050E04ADDA22EAE
:10016000BB24CC24DD2480E1682E87E2782E812C0C
:10017000912CC801B701A40193013BDD6A837B8305
:100180008C839D83C601B5012CE330E040E050E054
:10019000AFDC1B012C01C601B50120EC3DEB40EFAB
:1001A0005FEFA6DC6E0D7F1D801F911FA4019301E0
:1001B00020DD220E311C411C511C6A817B818C8107
:1001C0009D812CE330E040E050E092DC5B016C016B
:1001D000C201B10120E737E140E050E089DC7B015A
:1001E0008C01C601B50124E630E040E050E0DFDCE0
:1001F000E20EF31E041F151FF981FF3F41F4109515
:100200000095F094E094E11CF11C011D111DC80142
:10021000B7010F900F900F900F900F90CF91DF913B
:100220001F910F91FF90EF90DF90CF90BF90AF9014
:100230009F908F907F906F905F904F903F902F9006
:100240000895E7ECF3E0119283E0E23DF807D9F777
:1002500008954F925F926F927F928F929F92AF928A
:10026000BF92CF92DF92EF92FF920F931F93DF9393
:10027000CF930F92CDB7DEB72C01C62E79018A013C
:1002800017FF07C022273327A9012E193F09400B6A
:10029000510BDD24D3946AE0862E912CA12CB12C35
:1002A00006C0CA01B901A5019401A3DCD3942A3088
:1002B000310541055105ACF717FDD3948C2D90E025
:1002C0009C012D0D311D213231050CF055C0480E19
:1002D000591E17FF0BC010950095F094E094E11C97
:1002E000F11C011D111D6FEF698301C019825201BC
:1002F0009AE0692E712C812C912CC801B701A401C0
:10030000930177DC605DF50161935F018E2F8419A5
:1003100079018A01121613061406150674F3F98181
:10032000FF3F49F4E82FFF27E7FDF095E40DF51DA9
:100330009DE290838F5FE82FFF27E7FDF095E40DA6
:10034000F51D10828150582F569540E0282F30E03F
:10035000842F90E0D201A80FB91F6C91F901E81B1E
:10036000F90BE40DF51D80818C9360834F5F54176A
:1003700078F78D2D8C0D01C081E20F90CF91DF9128
:100380001F910F91FF90EF90DF90CF90BF90AF90B3
:100390009F908F907F906F905F904F9008950F93F4
:1003A0001F939C01062FFA01DA010D900020E9F756
:1003B00011971A2F141B862F90E0810F911D813207
:1003C00091050CF011E2412F50E0C901800F911D01
:1003D000BF0138DC812F800F1F910F9108950F937B
:1003E0001F93CF93DF93EC0134DF682FCE01A80178
:1003F000D6DFDF91CF911F910F9108956F927F9279
:100400008F929F92AF92BF92CF92DF92EF92FF9224
:100410000F931F93CF93DF93EC01162F2115310516
:100420004105510521F448E051E0B9DF73C00023D4
:1004300059F012161306140615061CF480E091E01C
:100440000DC082E091E00AC01216130614061506CC
:100450001CF484E091E002C086E091E03C01690177
:100460007A0157FF08C0F094E094D094C094C11C66
:10047000D11CE11CF11CC701B60120E432E44FE0BD
:1004800050E0B7DB822E9924AA24BB24C501B40115
:1004900020EC3DEB40EF5FEF2BDB6C0D7D1D8E1DE7
:1004A0009F1D24E630E040E050E022DB2CE330E00A
:1004B00040E050E07CDB002339F0EDE4CE2EE4E1B7
:1004C000DE2EE12CF12C06C070EDC72E7DE1D72E7B
:1004D000E12CF12CC20ED31EE41EF51ECE01612FBD
:1004E000A501940104E111E07ADF682F80E1C816CC
:1004F00087E2D80680E0E80680E0F80630F4CE0116
:1005000020E030E0A901A5DE682FCE01A701960109
:10051000830165DFDF91CF911F910F91FF90EF90E5
:10052000DF90CF90BF90AF909F908F907F906F9013
:100530000895FF920F931F9301E08091C7038D32BE
:1005400009F000E0102F20E030E0A90114C0CA013A
:10055000B9012AE030E040E050E0CADA2F2D30E067
:1005600020533040442737FD4095542F260F371F26
:10057000481F591F1F5FE12FF0E0E953FC4FF08047
:100580008F2D80538A3010F41B3008F3002321F0A4
:100590006FEF7FEFCB0104C061E070E080E090E09E
:1005A000A7DA1F910F91FF900895883108F56831FF
:1005B000F8F4482F46954695469550E0809587700B
:1005C00021E030E002C0220F331F8A95E2F7FA01E2
:1005D000EE0FFF1FE40FF51FA3E0EE0FFF1FAA951C
:1005E000E1F7E60FF11DEF59FC4F8081822B8083EC
:1005F0000895FF920F931F93DF93CF9300D000D005
:100600000F92CDB7DEB7182F81E0982F911B9983F9
:100610008A83812F8195880F8B831C821D830BE039
:10062000F02EF10E8BE06F2DC0DF0BE0011B8BE095
:10063000602FBBDF8F2D6BE0B8DF802F6BE0B5DF65
:100640001BE04BC0898187FD0AC08D8181508D835D
:100650008B818E5F8B8399818B81890F89838C81BC
:100660008F5F8C838A818E5F8A8399818A81890FCB
:1006700089838C816D81655F855F97DF8C816D815A
:10068000655F912F981B892F90DF8C819D81612F51
:10069000691B855F8ADF8C819D81612F691B912F8A
:1006A000981B892F82DF8D816C81655F855F7DDF7F
:1006B0008D816C81655F912F981B892F76DF8D81ED
:1006C0009C81612F691B855F70DF8D819C81612F0B
:1006D000691B912F981B892F68DF9C818D8198174A
:1006E0000CF4B0CF0F900F900F900F900F90CF9110
:1006F000DF911F910F91FF900895AF92BF92CF921B
:10070000DF92EF92FF920F931F93382F562F142FE3
:10071000A22FB0E0A61BB109B7FF03C0B095A19509
:10072000BF4FE12FF0E0E31BF109F7FF03C0F095A5
:10073000E195FF4F01E0EA17FB0714F000E006C067
:10074000812F122F282F832F352F582F131730F476
:10075000852F522F282F832F312F182FF12EF31A88
:10076000E22FF0E0E51BF109F7FF03C0F095E195FA
:10077000FF4FEE2E8F2D62E0E6D9D82EB52E521700
:1007800018F4AA24A39402C0AA24AA94C32E0EC0CB
:10079000002319F08B2D6C2D02C08C2D6B2D05DFE5
:1007A000DE18D7FE02C0BA0CDF0CC3941C1580F70C
:1007B0001F910F91FF90EF90DF90CF90BF90AF907F
:1007C0000895FF920F931F9301E08091C7038D322C
:1007D00009F000E0102F20E030E0A901E12FF0E067
:1007E000E953FC4FF0808F2D80538A3028F5CA01E1
:1007F000B9012AE030E040E050E07AD92F2D30E016
:1008000020533040442737FD4095542F260F371F83
:10081000481F591F1F5F1B3008F3002321F06FEFA3
:100820007FEFCB0104C061E070E080E090E060D930
:100830001F910F91FF9008958F2D8E3259F3EDCFB8
:100840008091C503882301F587EC93E066E171E0B0
:1008500045E050E0E9D9009731F481E08093C50389
:1008600010927F01089587EC93E06CE171E045E020
:1008700050E0DAD9009709F00AC182E08093C503FD
:1008800084E680937F0108958091C403882309F44E
:10089000FEC080917F018536E9F18636D8F4843038
:1008A00009F469C0853048F48230F1F1833008F0F2
:1008B00045C0813009F0EBC02DC0863009F482C0FC
:1008C000863008F462C0873009F480C0893009F0AE
:1008D000DEC080C08A3609F458C08B3648F48836AA
:1008E00069F1893608F047C0873609F0D0C01CC0CE
:1008F0008C3609F488C08C3608F472C08D3609F441
:1009000088C0883C09F0C3C0E7ECF3E080E090E0E9
:10091000DC01AFC00EDE6093B5037093B603809325
:10092000B7039093B80308954CDF6093AB037093C3
:10093000AC038093AD039093AE0308958091C703F9
:10094000833509F0A4C08091AB039091AC03A091D2
:10095000AD03B091AE03B095A095909581959F4F52
:10096000AF4FBF4F8093AB039093AC03A093AD0305
:10097000B093AE03089525DF6093AF037093B00387
:100980008093B1039093B20308958091C703873594
:1009900009F07DC08091AF039091B003A091B103A5
:1009A000B091B203B095A095909581959F4FAF4FB0
:1009B000BF4F8093AF039093B003A093B103B09364
:1009C000B2030895B6DD6093B9030895B2DD609374
:1009D000BA030895AEDD7093B4036093B303089532
:1009E000A8DD4FEC51E0649F9001659F300D749F2E
:1009F000300D1124C9016AEF70E0B2D87093BC03C6
:100A00006093BB03089595DD7093BE036093BD03AF
:100A100008958FDD6093BF037093C0038093C1037B
:100A20009093C203089534E0880F991FAA1FBB1F3B
:100A30003A95D1F7322F3154363020F430E0275335
:100A400030400FC0322F3156363020F430E0275579
:100A5000304007C0322F30533A3058F430E0205342
:100A60003040442737FD4095542F820F931FA41F19
:100A7000B51F2191222321F033E0E33DF30799F6DE
:100A800021E03091C603381320E02093C30308957A
:100A9000EF92FF920F931F93CF93DF93EC01E62F1A
:100AA000F0E0EE0FFF1FEB5AFB4FE080FF2400E069
:100AB00010E0218130E040E050E064E0CADBFE015C
:100AC000E80FF11D9EE29083682F6F5F8AE0E816C1
:100AD000F1040105110534F4FE01E60FF11D80E378
:100AE00080836F5FCE01A8019701B3DB682FCE0131
:100AF00042E251E054DCDF91CF911F910F91FF90C2
:100B0000EF900895DF93CF93CDB7DEB763970FB61D
:100B1000F894DEBF0FBECDBF20E12BB988E08AB9C3
:100B200029988CE084B980916F00816080936F0078
:100B30008091810082608093810083E080936900CE
:100B400031E03DBB80E880BF10927B001EBC8DB5BC
:100B50008E7F8DBD84E58CBDE0918E01F0E0EE0FBF
:100B6000FF1FE359FE4F8081918190939101809303
:100B7000900110927E0080917C00806480937C00C4
:100B800080917A00866080937A0010927B00309387
:100B9000C50087E38093C40086E08093C200209361
:100BA000C10078948091C00087FF7DC00091C6008D
:100BB00090917F019F3F21F4043209F074C010C06E
:100BC000043271F0053230F40A3049F10D3009F089
:100BD00057C025C00A3299F00C3209F051C00AC042
:100BE0001092C4031092C5031092C60310927F01A5
:100BF00028DB59C08091C60380278093C60320DE7E
:100C000020DB1092C40380917F018F5F80937F016E
:100C10000A3209F048C088EC80937F0144C010DE9E
:100C20004FEF40937F012091B3033091B403809143
:100C3000DA039091DB038217930724F481E0809319
:100C4000EB0305C02817390714F44093EB03809198
:100C5000C303882341F1A2EDB3E0EBEAF3E089E1BD
:100C600001900D928150E1F781E08093EC03809137
:100C7000ED039091EE039093F0038093EF0313C084
:100C80008091C403E82FF0E0E953FC4F0083983CC7
:100C900029F09091C60390279093C6038A3018F4E8
:100CA0008F5F8093C4034C9925C081E08093A90392
:100CB0008091AA03833330F11092AA035B9A80914A
:100CC000C3038823F9F08091B9038823D9F0A2EFF8
:100CD000B3E0E2EDF3E08AE001900D928150E1F79C
:100CE00081E08093F1031092FC031092ED031092C7
:100CF000EE0308C08091A90381115B981092A903AB
:100D00001092AA0380918F01823009F07AC010926C
:100D10008F0180918E0190E0FC0125E0EE0FFF1F16
:100D20002A95E1F7E80FF91FED56FE4F8DEFE82EFB
:100D300083E0F82ED70180E090E021912032E1F0AD
:100D40002223D1F02B3550F4822F90E003E0880F5E
:100D5000991F0A95E1F78852914010C0322F3556FD
:100D6000393060F4822F90E013E0880F991F1A95B4
:100D7000E1F78057914002C08FEF9FEF8D939D93D5
:100D800004E0AF33B007C9F680E090E078E0A72E2A
:100D9000CC24CA944C01D7010D911D917D01809105
:100DA0008001992787FD90958017910761F0BFEF2B
:100DB0000F3F1B0771F08FE394E0B80148E050E06B
:100DC00050D700938001AFE3B4E0F401E75AFD4F40
:100DD00009C0EFE3F4E00A2D11920A95E9F7C092F9
:100DE0008001F1CF8D918083B19614E0A734B107D3
:100DF000C9F70894811C911C21E28216910459F6CE
:100E0000D1CE80918F01813009F0CCCE10928F012C
:100E10008091A903882329F08091AA038F5F809392
:100E2000AA038091FC0369E182D6992309F0E7C205
:100E30008091B903882311F05B9A04C08BB198E0CC
:100E400089278BB98091F103882309F4E4C1E090EC
:100E5000D203F090D3030091D4031091D5032090D6
:100E6000D6033090D7034090D8035090D903A09078
:100E7000F203B090F303C090F403D090F503809197
:100E8000F6039091F703A091F803B091F9038983D9
:100E90009A83AB83BC83EA14FB040C051D0591F413
:100EA000281639064A065B0669F410924704109228
:100EB00048041092490410924A0410924C04109273
:100EC0004B04A9C1C601B5016E0D7F1D801F911F86
:100ED00097FF07C090958095709561957F4F8F4FD4
:100EE0009F4F20E834E84EE150E061D6C901865AB0
:100EF0009F4FEAD88D83C801B70102D96E837F83E3
:100F000088879987C601B501FBD83B014C01C20116
:100F1000B101F6D87B018C0169817A818B819C813A
:100F2000EFD89B01AC012E193F09400B510BEE800D
:100F3000FF80088519856E187F08800A910AFD8058
:100F40006F2D772767FD7095872F972FD1D524E6D2
:100F500030E040E050E04DD619012A0162E0E62E73
:100F6000F12C012D112DCC24C3940FC0C201B1016D
:100F7000A80197013ED619012A01C401B301A801B5
:100F8000970137D639014A01CC0CA201910157FED5
:100F900007C022273327A90122193309440955091B
:100FA0002F3F6FEF360760E0460760E05607F0F628
:100FB000D401C30197FE07C088279927DC01861951
:100FC0009709A809B9098F3FEFEF9E07E0E0AE0748
:100FD000E0E0BE0758F6C9822A873B874C875D87C9
:100FE0008E879F87A88BB98BC201B101A2019101A5
:100FF0007FD55B016C01C401B301A401930178D5D5
:10100000E1E00FC052E0D694C794B794A7945A95E4
:10101000D1F742E096958795779567954A95D1F7F0
:10102000EE0FE92EFF24002711272D2D332744270B
:101030005527E20EF31E041F151F2FEFE216F104D1
:101040000105110509F0F0F6ED8386017501E60E44
:10105000F71E081F191FEE82FF82088719875701A4
:101060006801D694C794B794A794A114B104C1049D
:10107000D10461F180E090E09B8B8A8B02C0570124
:1010800068016E817F8188859985A60195018FD53C
:1010900079018A01EA0CFB1C0C1D1D1D1695079594
:1010A000F794E794AE18BF08C00AD10A22E0A2164E
:1010B000B104C104D10470F04A895B894F5F5F4F6E
:1010C0005B8B4A8B4A315105D1F604C0EE80FF801C
:1010D000088519856D81262F30E040E050E0C80179
:1010E000B70106D56B017C0161157105810591057C
:1010F00009F46AC08A859B85AC85BD850E851F85F0
:101100002889398980179107A207B307D8F0C90148
:10111000B80124E630E040E050E0EAD4A7019601AF
:1011200046D5022F20E030E0590103C00894A11CED
:10113000B11CC501C9D708171CF11AE5A116B104E5
:10114000A9F71EC06A857B858C859D8524E630E0E5
:1011500040E050E0CDD4A701960129D5A22E00E0B1
:1011600010E002C00F5F1F4FC801AED7A8161CF0D9
:101170000A351105B9F72AE530E0201B310B01C013
:101180009501611471048104910429F457FC1FC076
:101190008AE590E01EC016141704180419044CF4D4
:1011A00057FC03C08AE590E00CC0C901825F9E4FE6
:1011B00010C057FC04C0C901865A9F4F0AC08EE078
:1011C00091E0821B930B05C080E090E002C08EE0AE
:1011D00091E090934C0480934B04C701B60125E342
:1011E00031E040E050E084D428EE33E040E050E0CD
:1011F000DED479018A016981262F30E040E050E099
:10120000C801B70175D46093470470934804809374
:10121000490490934A04ADE4AA2EA4E0BA2EF1E862
:101220006F2EF1E07F2EE5E82E2EE1E03E2E85E5E3
:1012300094E0CC244C0180917C00807F80937C00E2
:1012400080917C008C2980937C0080917A00806A58
:1012500080937A0080917A00806480937A008091F4
:101260007A0084FFFCCF80917A00806180937A00BD
:1012700080917A008F7580937A00609178007091E8
:101280007900D5016D937D935D0180E090E026E3C8
:1012900031E040E050E02CD42AE030E040E050E083
:1012A00086D479018A01F30121913F0130E040E0C9
:1012B00050E0C801B7011CD4D1012D911D0130E0CF
:1012C00040E050E074D479018A017AE016950795E0
:1012D000F794E7947A95D1F7E982FA820B831C831D
:1012E0008E2D90E0982F8827990F990FA0E0B0E0FD
:1012F00079018A01E81AF90A0A0B1B0BC801B70128
:1013000024E630E040E050E0F3D32AE0969587955C
:10131000779567952A95D1F7D4016C93E981119659
:10132000EC931197C39492E0E92EF12C8E0C9F1C44
:101330000C2D043009F07FCF809155049091560414
:1013400090935E0480935D048091570490915804BB
:101350009093600480935F0490915A0484E6989F70
:10136000C001112420915904820F911D11E0853F85
:10137000910798F48937910598F0AC01485750408F
:1013800024E630E0429FC001439F900D529F900D94
:1013900011246CE771E0E4D305C064E670E002C09C
:1013A00060E070E0362F6093610490915E0484E603
:1013B000989FC001112420915D04820F911D21E0AE
:1013C00043E0883E940708F020E020936204909167
:1013D000600484E6989FC001112420915F04820F6D
:1013E000911D21E053E0883E950708F020E020930E
:1013F000630481E03E3108F080E0809364048091D2
:10140000FC038F5F8093FC038091FC03823378F0B0
:101410001092FC038091ED038F5F8093ED03809128
:10142000650490E0019681709070809365048091CE
:10143000ED038C3338F01092ED038091EE038F5F53
:101440008093EE038091EE038C3310F01092EE0344
:1014500084EBE82E81E0F82E80E090E000E3C02EDF
:101460005C015CC11192EE15FF05E1F78A2DAA20FF
:1014700081F583E991E061E044E251E090D7809109
:101480006204882321F080916504882321F083E998
:1014900091E060E0FDDA80916104882331F083E916
:1014A00091E06CE047E251E07AD783E991E062E1B4
:1014B00049E251E074D7682F6E5F2091D2033091DA
:1014C000D3034091D4035091D50383E991E001E027
:1014D00062C0813009F061C09091600484E6989FF9
:1014E000C001112420915F04820F911D009731F0FB
:1014F00084EB91E061E04BE251E051D790916004C0
:1015000084E6989FC001112420915F04820F911DF1
:10151000009761F080916304882321F08091650435
:10152000882321F084EB91E061E0B2DA80916404D9
:10153000882321F080916504882369F0209161045B
:10154000222349F030E040E050E084EB91E06CE091
:101550000EE211E044D78091E003882351F02091FE
:10156000E10330E040E050E084EB91E062E171D6CD
:1015700006C084EB91E062E140E351E010D7209196
:10158000D6033091D7034091D8035091D90384EB0F
:1015900091E065E100E032D7B1C0823039F5809149
:1015A000F1038823C1F085ED91E060E042E351E072
:1015B000F6D685ED91E062E044E351E0F0D620916B
:1015C0004704309148044091490450914A0485ED04
:1015D00091E065E085C080916504882309F48EC0A0
:1015E00085ED91E06AE047E351E087C0833009F080
:1015F00040C086EF91E060E043E451E0D0D68091B6
:10160000EB03813031F486EF91E065E047E451E08F
:101610000DC08F3F31F486EF91E065E049E451E081
:1016200005C086EF91E065E04BE451E0B8D620912B
:10163000DA033091DB038091FA039091FB03281BBE
:10164000390B442737FD4095542F86EF91E067E032
:1016500000D686EF91E069E14DE451E0A0D62091FB
:10166000E4033091E50340E050E086EF91E06DE166
:1016700037C08430B9F52091E2033091E30340E0B4
:1016800050E087E192E060E0E4D587E192E065E038
:1016900041E551E084D68091EE038A3020F4C09277
:1016A00032026CE101C06BE12091EE0330E040E0DA
:1016B00050E087E192E006E511E091D6682F809135
:1016C000ED038A3030F4E62FF0E0E95EFD4FC08292
:1016D0006F5F2091ED0330E040E050E087E192E061
:1016E000B8D50CC088E392E060E048E551E057D6F9
:1016F00088E392E068E140E651E051D60894A11CED
:10170000B11C81E290E0E80EF91E96E0A916B10442
:1017100029F429E733E080E090E016C0F50115E0F8
:10172000EE0FFF1F1A95E1F7EA0DFB1DED56FE4F78
:1017300099CE1192E217F307E1F701969F01285E17
:101740003F4F8330910569F0FC01EE0FFF1FE80F5A
:10175000F91FA3E0EE0FFF1FAA95E1F7EF59FC4F29
:10176000E8CFE0904B04F0904C048091E40390911A
:10177000E503E81AF90A8BE03CD780914704909181
:101780004804A0914904B0914A048A309105A1050A
:10179000B10518F482E02DD705CA8091B9038823DA
:1017A00051F485E065E041E121E1A7D785E061E101
:1017B00041E125E051C0C701865A9F4F85D4082FCB
:1017C000C70182D4E82F402F552747FD5095F3E0FD
:1017D000440F551FFA95E1F724E630E0CA01B9013C
:1017E000D3D18B018E2F992787FD9095E3E0880F49
:1017F000991FEA95E1F7B901C7D15B01602F7BE042
:10180000C72ECA0C8BE0E82EE01A655F8A194C2DB2
:101810002E2D73D752E0852E912CC801B401B4D17E
:10182000709561957F4F462F455FC501B401ACD1DE
:10183000709561957F4F262F255F8C2D6E2D5DD77E
:10184000C801B401A1D1462F455FC501B4019CD1A7
:10185000262F255F8C2D6E2D50D7A4C91F920F9275
:101860000FB60F9211242F933F934F935F936F9373
:101870007F938F939F93AF93BF93EF93FF931092B8
:1018800085001092840088E28A95F1F780918A01A0
:1018900090918B014A99F2C0009709F47FC0809122
:1018A0008D01813021F0823009F078C04AC09091DA
:1018B0008E01E8E1EA95F1F7292F30E0F90175E0B2
:1018C000EE0FFF1F7A95E1F7E20FF31FED56FE4F83
:1018D000A091920181E2A89FD0011124A75ABD4F87
:1018E000989FC00111248C549E4F2191203221F0E9
:1018F000222311F0219A02C0219800002D912EBDC3
:1019000000000000000000000000000000000000D7
:1019100000000000000000000000000000000000C7
:101920000000E817F90709F70000000000000000B8
:101930000000000000000000000000001EBC219814
:101940002DC083E191E00197F1F700C00000E09124
:101950009201F0E0EF59FC4F83E090819EBD219A07
:101960000000000000000000000000000000000077
:101970000000000000000000000000000000000067
:101980000000000000000000000000000000815086
:101990007896882311F7219800001EBC10928D01C3
:1019A00080918A0190918B01019690938B01809395
:1019B0008A018E36910511F421E004C08F3691051D
:1019C00019F422E020938F01209190013091910130
:1019D00082179307A0F040916A0150916B01841720
:1019E000950768F441E040938D01821B809392013A
:1019F00090916C01923009F048C0869531C02091D9
:101A00006A0130916B018217930769F582E0809338
:101A10008F0180918E0190E0019666E070E0B4D075
:101A200080938E01FC01EE0FFF1FE359FE4F2081D2
:101A30003181309391012093900187589E4FFC0192
:101A4000808180936C0190E053E0880F991F5A9534
:101A5000E1F7820F931F90936B0180936A0181E0FD
:101A60008093920112C09C012956304028313105E3
:101A700060F422E020938D018956F2CF893C9105D4
:101A800020F010928B0110928A01FF91EF91BF918B
:101A9000AF919F918F917F916F915F914F913F9106
:101AA0002F910F900FBE0F901F9018951F920F92BD
:101AB0000FB60F9211242F933F938F939F93809192
:101AC0008A0190918B0120918C0130E02817390711
:101AD00021F42BB138E023272BB980938C019F91FF
:101AE0008F913F912F910F900FBE0F901F901895DF
:101AF000629FD001739FF001829FE00DF11D649FF2
:101B0000E00DF11D929FF00D839FF00D749FF00D7D
:101B1000659FF00D9927729FB00DE11DF91F639F1E
:101B2000B00DE11DF91FBD01CF0111240895991BCE
:101B300079E004C0991F961708F0961B881F7A95C4
:101B4000C9F78095089587FB082E062687FD8195A5
:101B500067FD6195ECDF0EF4919507FC8195089582
:101B6000AA1BBB1B51E107C0AA1FBB1FA617B707C3
:101B700010F0A61BB70B881F991F5A95A9F78095DF
:101B80009095BC01CD01089597FB092E07260AD038
:101B900077FD04D0E5DF06D000201AF4709561953A
:101BA0007F4F0895F6F7909581959F4F0895A1E294
:101BB0001A2EAA1BBB1BFD010DC0AA1FBB1FEE1FC7
:101BC000FF1FA217B307E407F50720F0A21BB30B12
:101BD000E40BF50B661F771F881F991F1A9469F78E
:101BE00060957095809590959B01AC01BD01CF01EA
:101BF000089597FB092E05260ED057FD04D0D7DF98
:101C00000AD0001C38F450954095309521953F4FEF
:101C10004F4F5F4F0895F6F79095809570956195B9
:101C20007F4F8F4F9F4F0895FB01DC014150504083
:101C300030F08D910190801919F40020B9F7881BBC
:101C4000990B0895FB01DC014150504048F0019090
:101C50000D920020C9F701C01D9241505040E0F79D
:101C60000895DC01CB01FC01F999FECF06C0F2BD5D
:101C7000E1BDF89A319600B40D9241505040B8F74A
:061C80000895F894FFCF67
:101C86004E005300450057002D2D2E2D2D2D2D2DA8
:101C96002D2D3F002E004750474741004750524DDB
:101CA600430056006A3100690068006A3200250068
:101CB6002D0066004D54004E4F20484F4D45205094
:101CC6004F5300414C54006C006D003D00484447A2
:101CD600004B4D2F48003A00723131312D3136001C
:101CE6004650564C522E434F4D00020002320042DF
:101CF60000AA00CD00FF001801010102010102FF48
:0A1D0600FF010101010101060100C7
:00000001FF
