:1000000047C025CC60C05FC05EC05DC05CC05BC047
:100010005AC059C058C057C056C041CD54C053C033
:1000200052C051C050C04FC04EC04DC04CC04BC05C
:100030004AC049C00002030507090A0C0E1011133B
:100040001516181A1C1D1F2122242527292A2C2D9C
:100050002F303234353638393B3C3E3F4042434402
:10006000454748494A4B4D4E4F50515253545556AF
:10007000575758595A5B5B5C5D5D5E5F5F606061BE
:1000800061616262626363636364646464646400A4
:1000900011241FBECFEFD4E0DEBFCDBF11E0A0E042
:1000A000B1E0E8E7FCE102C005900D92A237B1078C
:1000B000D9F714E0A2E7B1E001C01D92AE34B10758
:1000C000E1F73CD5D7CD9CCF68E671E042DD843BBB
:1000D000910520F0845B90404FEF01C041E08A35EC
:1000E000910530F024EB30E0B901681B790BCB01AE
:1000F000FC01EC5CFF4F8491849F802D11240895B6
:100100002F923F924F925F926F927F928F929F9227
:10011000AF92BF92CF92DF92EF92FF920F931F9315
:10012000DF93CF9300D000D00F92CDB7DEB77B0125
:100130008C0197FF0BC010950095F094E094E11CA2
:10014000F11C011D111D8FEF898302C0E1E0E983DD
:10015000C801B70120E432E44FE050E043DDA22EB5
:10016000BB24CC24DD2480E1682E87E2782E812C0C
:10017000912CC801B701A401930134DD6A837B830C
:100180008C839D83C601B5012CE330E040E050E054
:10019000A8DC1B012C01C601B50120EC3DEB40EFB2
:1001A0005FEF9FDC6E0D7F1D801F911FA4019301E7
:1001B00019DD220E311C411C511C6A817B818C810E
:1001C0009D812CE330E040E050E08BDC5B016C0172
:1001D000C201B10120E737E140E050E082DC7B0161
:1001E0008C01C601B50124E630E040E050E0D8DCE7
:1001F000E20EF31E041F151FF981FF3F41F4109515
:100200000095F094E094E11CF11C011D111DC80142
:10021000B7010F900F900F900F900F90CF91DF913B
:100220001F910F91FF90EF90DF90CF90BF90AF9014
:100230009F908F907F906F905F904F903F902F9006
:100240000895EFEAF3E0119283E0EA3BF807D9F76B
:1002500008954F925F926F927F928F929F92AF928A
:10026000BF92CF92DF92EF92FF920F931F93DF9393
:10027000CF930F92CDB7DEB72C01C62E79018A013C
:1002800017FF07C022273327A9012E193F09400B6A
:10029000510BDD24D3946AE0862E912CA12CB12C35
:1002A00006C0CA01B901A50194019CDCD3942A308F
:1002B000310541055105ACF717FDD3948C2D90E025
:1002C0009C012D0D311D213231050CF055C0480E19
:1002D000591E17FF0BC010950095F094E094E11C97
:1002E000F11C011D111D6FEF698301C019825201BC
:1002F0009AE0692E712C812C912CC801B701A401C0
:10030000930170DC605DF50161935F018E2F8419AC
:1003100079018A01121613061406150674F3F98181
:10032000FF3F49F4E82FFF27E7FDF095E40DF51DA9
:100330009DE290838F5FE82FFF27E7FDF095E40DA6
:10034000F51D10828150582F569540E0282F30E03F
:10035000842F90E0D201A80FB91F6C91F901E81B1E
:10036000F90BE40DF51D80818C9360834F5F54176A
:1003700078F78D2D8C0D01C081E20F90CF91DF9128
:100380001F910F91FF90EF90DF90CF90BF90AF90B3
:100390009F908F907F906F905F904F9008950F93F4
:1003A0001F939C01062FFA01DA010D900020E9F756
:1003B00011971A2F141B862F90E0810F911D813207
:1003C00091050CF011E2412F50E0C901800F911D01
:1003D000BF0131DC812F800F1F910F9108950F9382
:1003E0001F93CF93DF93EC0134DF682FCE01A80178
:1003F000D6DFDF91CF911F910F9108952F923F92F9
:100400004F925F926F927F928F929F92AF92BF9224
:10041000CF92DF92EF92FF920F931F93CF93DF93D0
:10042000EC01162F211531054105510521F448E055
:1004300051E0B5DF87C0002359F0121613061406E9
:1004400015061CF480E091E00DC082E091E00AC046
:1004500012161306140615061CF484E091E002C07F
:1004600086E091E01C0169017A0157FF08C0F09411
:10047000E094D094C094C11CD11CE11CF11CC701B4
:10048000B60120E432E44FE050E0ACDB422E5524CC
:1004900066247724C301B20120EC3DEB40EF5FEF0F
:1004A00020DB6C0D7D1D8E1D9F1D24E630E040E09D
:1004B00050E017DB2CE330E040E050E071DB00233C
:1004C00031F0E1E38E2E912CA12CB12C05C074E704
:1004D000872E912CA12CB12C820E931EA41EB51E2A
:1004E000CE01612FA301920104E111E078DF182F02
:1004F00080E1881687E2980680E0A80680E0B806CA
:10050000D8F475016401C701B6012AE030E040E08B
:1005100050E0E7DA6B017C01CE01612F20E030E092
:10052000A90197DE182F80E1C81687E2D80680E07F
:10053000E80680E0F80638F3CE01612FA5019401AA
:1005400081014DDFDF91CF911F910F91FF90EF90CF
:10055000DF90CF90BF90AF909F908F907F906F90E3
:100560005F904F903F902F900895FF920F931F93AD
:1005700001E08091AF038D3209F000E0102F20E000
:1005800030E0A90114C0CA01B9012AE030E040E01E
:1005900050E0A7DA2F2D30E020533040442737FDBC
:1005A0004095542F260F371F481F591F1F5FE12FFB
:1005B000F0E0E155FC4FF0808F2D80538A3010F42D
:1005C0001B3008F3002321F06FEF7FEFCB0104C055
:1005D00061E070E080E090E084DA1F910F91FF907D
:1005E0000895883108F56831F8F4482F4695469506
:1005F000469550E08095877021E030E002C0220FE0
:10060000331F8A95E2F7FA01EE0FFF1FE40FF51F83
:10061000A3E0EE0FFF1FAA95E1F7E60FF11DE75BE0
:10062000FC4F8081822B80830895FF920F931F934C
:10063000DF93CF9300D000D00F92CDB7DEB7182F45
:1006400081E0982F911B99838A83812F8195880F50
:100650008B831C821D830BE0F02EF10E8BE06F2D3F
:10066000C0DF0BE0011B8BE0602FBBDF8F2D6BE049
:10067000B8DF802F6BE0B5DF1BE04BC0898187FDC1
:100680000AC08D8181508D838B818E5F8B83998190
:100690008B81890F89838C818F5F8C838A818E5FA8
:1006A0008A8399818A81890F89838C816D81655FB5
:1006B000855F97DF8C816D81655F912F981B892FF6
:1006C00090DF8C819D81612F691B855F8ADF8C8122
:1006D0009D81612F691B912F981B892F82DF8D814E
:1006E0006C81655F855F7DDF8D816C81655F912F9A
:1006F000981B892F76DF8D819C81612F691B855F17
:1007000070DF8D819C81612F691B912F981B892F30
:1007100068DF9C818D8198170CF4B0CF0F900F90FB
:100720000F900F900F90CF91DF911F910F91FF903D
:100730000895AF92BF92CF92DF92EF92FF920F9304
:100740001F93382F562F142FA22FB0E0A61BB109EC
:10075000B7FF03C0B095A195BF4FE12FF0E0E31BB9
:10076000F109F7FF03C0F095E195FF4F01E0EA17AB
:10077000FB0714F000E006C0812F122F282F832FD3
:10078000352F582F131730F4852F522F282F832FF2
:10079000312F182FF12EF31AE22FF0E0E51BF109AB
:1007A000F7FF03C0F095E195FF4FEE2E8F2D62E02D
:1007B000C3D9D82EB52E521718F4AA24A39402C078
:1007C000AA24AA94C32E0EC0002319F08B2D6C2DE1
:1007D00002C08C2D6B2D05DFDE18D7FE02C0BA0CCF
:1007E000DF0CC3941C1580F71F910F91FF90EF90C1
:1007F000DF90CF90BF90AF900895FF920F931F931B
:1008000001E08091AF038D3209F000E0102F20E06D
:1008100030E0A901E12FF0E0E155FC4FF0808F2D91
:1008200080538A3028F5CA01B9012AE030E040E05F
:1008300050E057D92F2D30E020533040442737FD6A
:100840004095542F260F371F481F591F1F5F1B301D
:1008500008F3002321F06FEF7FEFCB0104C061E0CC
:1008600070E080E090E03DD91F910F91FF900895D6
:100870008F2D8E3259F3EDCF8091AD03882301F592
:100880008FEA93E066E171E045E050E0C6D9009759
:1008900031F481E08093AD031092670108958FEAEF
:1008A00093E06CE171E045E050E0B7D9009709F0C2
:1008B0000AC182E08093AD0384E6809367010895C6
:1008C0008091AC03882309F4FEC0809167018536CE
:1008D000E9F18636D8F4843009F469C0853048F4EB
:1008E0008230F1F1833008F045C0813009F0EBC06F
:1008F0002DC0863009F482C0863008F462C087308B
:1009000009F480C0893009F0DEC080C08A3609F45D
:1009100058C08B3648F4883669F1893608F047C0EC
:10092000873609F0D0C01CC08C3609F488C08C36DC
:1009300008F472C08D3609F488C0883C09F0C3C041
:10094000EFEAF3E080E090E0DC01AFC00EDE609300
:100950009D0370939E0380939F039093A00308953B
:100960004CDF60939303709394038093950390936B
:10097000960308958091AF03833509F0A4C0809158
:10098000930390919403A0919503B0919603B09531
:10099000A095909581959F4FAF4FBF4F8093930344
:1009A00090939403A0939503B0939603089525DF45
:1009B00060939703709398038093990390939A039D
:1009C00008958091AF03873509F07DC0809197032A
:1009D00090919803A0919903B0919A03B095A09536
:1009E000909581959F4FAF4FBF4F80939703909302
:1009F0009803A0939903B0939A030895B6DD60938A
:100A0000A1030895B2DD6093A2030895AEDD709353
:100A10009C0360939B030895A8DD4FEC51E0649F15
:100A20009001659F300D749F300D1124C9016AEF4C
:100A300070E08FD87093A4036093A303089595DDAD
:100A40007093A6036093A50308958FDD6093A703B9
:100A50007093A8038093A9039093AA03089534E0A8
:100A6000880F991FAA1FBB1F3A95D1F7322F315417
:100A7000363020F430E0275330400FC0322F31564B
:100A8000363020F430E02755304007C0322F305345
:100A90003A3058F430E020533040442737FD409539
:100AA000542F820F931FA41FB51F2191222321F0E1
:100AB00033E0EB3BF30799F621E03091AE033813B6
:100AC00020E02093AB030895EF92FF920F931F93C2
:100AD000CF93DF93EC01E62FF0E0EE0FFF1FE35C16
:100AE000FB4FE080FF2400E010E0218130E040E097
:100AF00050E064E0AEDBFE01E80FF11D9EE2908362
:100B0000682F6F5F8AE0E816F1040105110534F4DF
:100B1000FE01E60FF11D80E380836F5FCE01A80127
:100B2000970197DB682FCE0142E251E038DCDF917C
:100B3000CF911F910F91FF90EF900895DF93CF9386
:100B4000CDB7DEB763970FB6F894DEBF0FBECDBF4B
:100B500020E12BB988E08AB929988CE084B980918A
:100B60006F00816080936F0080918100826080932C
:100B7000810083E08093690031E03DBB80E880BF65
:100B800010927B001EBC8DB58E7F8DBD84E58CBD23
:100B9000E0917601F0E0EE0FFF1FEB5AFE4F8081EF
:100BA0009181909379018093780110927E008091D9
:100BB0007C00806480937C0080917A0086608093C2
:100BC0007A0010927B003093C50087E38093C400C5
:100BD00086E08093C2002093C10078948091C00089
:100BE00087FF7DC00091C600909167019F3F21F46F
:100BF000043209F074C010C0043271F0053230F4D0
:100C00000A3049F10D3009F057C025C00A3299F079
:100C10000C3209F051C00AC01092AC031092AD031F
:100C20001092AE03109267010CDB59C08091AE03A5
:100C300080278093AE0320DE04DB1092AC0380910A
:100C400067018F5F809367010A3209F048C088EC22
:100C50008093670144C010DE4FEF409367012091FD
:100C60009B0330919C038091C2039091C303821730
:100C7000930724F481E08093D30305C02817390734
:100C800014F44093D3038091AB03882341F1AAEB82
:100C9000B3E0E3E9F3E089E101900D928150E1F7DF
:100CA00081E08093D4038091D5039091D6039093F3
:100CB000D8038093D70313C08091AC03E82FF0E0F2
:100CC000E155FC4F0083983C29F09091AE039027AA
:100CD0009093AE038A3018F48F5F8093AC034C99E5
:100CE00025C081E08093910380919203833330F19A
:100CF000109292035B9A8091AB038823F9F0809164
:100D0000A1038823D9F0AAEDB3E0EAEBF3E08AE08F
:100D100001900D928150E1F781E08093D903109208
:100D2000E4031092D5031092D60308C0809191037A
:100D300081115B9810929103109292038091770138
:100D4000823009F07AC0109277018091760190E0AC
:100D5000FC0125E0EE0FFF1F2A95E1F7E80FF91FD0
:100D6000E558FE4F85EEE82E83E0F82ED70180E0AF
:100D700090E021912032E1F02223D1F02B3550F484
:100D8000822F90E003E0880F991F0A95E1F78852BF
:100D9000914010C0322F3556393060F4822F90E0E8
:100DA00013E0880F991F1A95E1F78057914002C010
:100DB0008FEF9FEF8D939D9304E0A732B007C9F6A4
:100DC00080E090E078E0A72ECC24CA944C01D701B3
:100DD0000D911D917D0180916801992787FD909566
:100DE0008017910761F0BFEF0F3F1B0771F087E29B
:100DF00094E0B80148E050E02DD700936801A7E2E5
:100E0000B4E0F401EF5BFD4F09C0E7E2F4E00A2D26
:100E100011920A95E9F7C0926801F1CF8D91808314
:100E2000B19614E0AF32B107C9F70894811C911C48
:100E300021E28216910459F6D1CE8091770181305A
:100E400009F0CCCE1092770180919103882329F08C
:100E5000809192038F5F809392038091E40369E114
:100E60005FD6992309F0E7C28091A103882311F08E
:100E70005B9A04C08BB198E089278BB98091D90324
:100E8000882309F4E4C1E090BA03F090BB03009119
:100E9000BC031091BD032090BE033090BF0340906F
:100EA000C0035090C103A090DA03B090DB03C09060
:100EB000DC03D090DD038091DE039091DF03A091ED
:100EC000E003B091E10389839A83AB83BC83EA1486
:100ED000FB040C051D0591F4281639064A065B062D
:100EE00069F410922F041092300410923104109281
:100EF00032041092340410923304A9C1C601B50122
:100F00006E0D7F1D801F911F97FF07C090958095E4
:100F1000709561957F4F8F4F9F4F20E834E84EE1E9
:100F200050E03ED6C901865A9F4FCED88D83C80166
:100F3000B701E6D86E837F8388879987C601B5019C
:100F4000DFD83B014C01C201B101DAD87B018C0131
:100F500069817A818B819C81D3D89B01AC012E1948
:100F60003F09400B510BEE80FF80088519856E18F4
:100F70007F08800A910AFD806F2D772767FD7095A5
:100F8000872F972FAED524E630E040E050E02AD6F8
:100F900019012A0162E0E62EF12C012D112DCC243D
:100FA000C3940FC0C201B101A80197011BD619015A
:100FB0002A01C401B301A801970114D639014A01DD
:100FC000CC0CA201910157FE07C022273327A901AB
:100FD00022193309440955092F3F6FEF360760E0A6
:100FE000460760E05607F0F6D401C30197FE07C03C
:100FF00088279927DC0186199709A809B9098F3F25
:10100000EFEF9E07E0E0AE07E0E0BE0758F6C982CA
:101010002A873B874C875D878E879F87A88BB98BF4
:10102000C201B101A20191015CD55B016C01C40157
:10103000B301A401930155D5E1E00FC052E0D6946D
:10104000C794B794A7945A95D1F742E0969587959F
:10105000779567954A95D1F7EE0FE92EFF24002783
:1010600011272D2D332744275527E20EF31E041F89
:10107000151F2FEFE216F1040105110509F0F0F636
:10108000ED837B018C01EA0CFB1C0C1D1D1DEE8207
:10109000FF820887198757016801D694C794B794CF
:1010A000A794A114B104C104D10461F180E090E0DF
:1010B0009B8B8A8B02C0570168016E817F81888576
:1010C0009985A60195016CD579018A01EA0CFB1C72
:1010D0000C1D1D1D16950795F794E794AE18BF08D3
:1010E000C00AD10A22E0A216B104C104D10470F0F2
:1010F0004A895B894F5F5F4F5B8B4A8B4A31510551
:10110000D1F604C0EE80FF80088519856D81262FF9
:1011100030E040E050E0C801B701E3D46B017C014E
:10112000611571058105910509F46AC08A859B8561
:10113000AC85BD850E851F85288939898017910763
:10114000A207B307D8F0C901B80124E630E040E0B7
:1011500050E0C7D4A701960123D5022F20E030E04C
:10116000590103C00894A11CB11CC501ADD70817D3
:101170001CF11AE5A116B104A9F71EC06A857B858A
:101180008C859D8524E630E040E050E0AAD4A7019C
:10119000960106D5A22E00E010E002C00F5F1F4F9F
:1011A000C80192D7A8161CF00A351105B9F72AE52F
:1011B00030E0201B310B01C09501611471048104E2
:1011C000910429F457FC1FC08AE590E01EC0161454
:1011D0001704180419044CF457FC03C08AE590E086
:1011E0000CC0C901825F9E4F10C057FC04C0C901EA
:1011F000865A9F4F0AC08EE091E0821B930B05C078
:1012000080E090E002C08EE091E0909334048093FF
:101210003304C701B60125E331E040E050E061D47A
:1012200028EE33E040E050E0BBD479018A016981C7
:10123000262F30E040E050E0C801B70152D460935F
:101240002F04709330048093310490933204A5E30B
:10125000AA2EA4E0BA2EF9E66F2EF1E07F2EEDE67D
:101260002E2EE1E03E2E8DE394E0CC244C018091C3
:101270007C00807F80937C0080917C008C2980930F
:101280007C0080917A00806A80937A0080917A0055
:10129000806480937A0080917A0084FFFCCF8091F3
:1012A0007A00806180937A0080917A008F758093B4
:1012B0007A006091780070917900D5016D937D93EB
:1012C0005D0180E090E026E331E040E050E009D4A9
:1012D0002AE030E040E050E063D479018A01F30174
:1012E00021913F0130E040E050E0C801B701F9D35F
:1012F000D1012D911D0130E040E050E051D4790141
:101300008A017AE016950795F794E7947A95D1F7D4
:10131000E982FA820B831C838E2D90E0982F882718
:10132000990F990FA0E0B0E079018A01E81AF90A53
:101330000A0B1B0BC801B70124E630E040E050E087
:10134000D0D35AE096958795779567955A95D1F7BA
:10135000D4016C93E9811196EC931197C39442E008
:10136000E42EF12C8E0C9F1C0C2D043009F07FCF45
:1013700080913D0490913E049093460480934504EF
:1013800080913F04909140049093480480934704D7
:101390009091420484E6989FC00111242091410459
:1013A000820F911D11E0853F910798F489379105CF
:1013B00098F0AC014857504024E630E0429FC0010D
:1013C000439F900D529F900D11246CE771E0C1D3A3
:1013D00005C064E670E002C060E070E0362F609304
:1013E00049049091460484E6989FC00111242091FD
:1013F0004504820F911D21E043E0883E940708F0E8
:1014000020E020934A049091480484E6989FC0010C
:10141000112420914704820F911D21E053E0883E62
:10142000950708F020E020934B0481E03E3108F05E
:1014300080E080934C048091E4038F5F8093E40309
:101440008091E403823378F01092E4038091D50315
:101450008F5F8093D50380914D0490E00196817059
:10146000907080934D048091D5038C3338F01092A6
:10147000D5038091D6038F5F8093D6038091D603E6
:101480008C3310F01092D6033CE9E32E31E0F32EBA
:1014900080E090E020E3C22E04E6A02E3C0137C19C
:1014A0001192EE15FF05E1F7862D662081F58BE799
:1014B00091E061E044E251E072D780914A048823D0
:1014C00021F080914D04882321F08BE791E060E0CA
:1014D000FBDA80914904882331F08BE791E06CE0DE
:1014E00047E251E05CD78BE791E062E149E251E0ED
:1014F00056D7682F6E5F2091BA033091BB0340919D
:10150000BC035091BD038BE791E001E062C08130E4
:1015100009F061C0809148046A2D869FC0011124A2
:1015200020914704820F911D009731F08CE991E0E2
:1015300061E04BE251E033D780914804AA2D8A9FA5
:10154000C001112420914704820F911D009761F082
:1015500080914B04882321F080914D04882321F051
:101560008CE991E061E0B0DA80914C04882321F0AD
:1015700080914D04882369F020914904222349F089
:1015800030E040E050E08CE991E06CE00EE211E0E8
:1015900026D78091C803882351F02091C90330E0F9
:1015A00040E050E08CE991E062E153D606C08CE95E
:1015B00091E062E140E351E0F2D62091BE03309128
:1015C000BF034091C0035091C1038CE991E065E1F4
:1015D00000E014D78CC0823041F58091D903882374
:1015E000C1F08DEB91E060E042E351E0D8D68DEBA5
:1015F00091E062E044E351E0D2D620912F04309193
:10160000300440913104509132048DEB91E065E05B
:101610006DC080914D04882309F469C08DEB91E081
:101620006AE047E351E0BBD662C0833041F58EEDFE
:1016300091E060E043E451E0B2D62091C2033091E2
:10164000C3038091E2039091E303281B390B4427E5
:1016500037FD4095542F8EED91E067E0FAD58EED81
:1016600091E069E147E451E09AD62091CC033091B2
:10167000CD0340E050E08EED91E06DE137C0843065
:10168000B1F52091CA033091CB0340E050E08FEFD9
:1016900091E060E0DED58FEF91E065E04BE451E052
:1016A0007ED68091D6038A3020F4C0921A026CE173
:1016B00001C06BE12091D60330E040E050E08FEFB5
:1016C00091E000E511E08BD6682F8091D5038A3038
:1016D00030F4E62FF0E0E150FE4FC0826F5F2091C2
:1016E000D50330E040E050E08FEF91E0B2D50894B0
:1016F000611C711CE1E2F0E0EE0EFF1EF6E06F16D9
:10170000710429F421E633E080E090E016C0F30193
:1017100015E0EE0FFF1F1A95E1F7E60DF71DE558EE
:10172000FE4FBECE1192E217F307E1F701969F013B
:10173000285E3F4F8330910569F0FC01EE0FFF1FDB
:10174000E80FF91FA3E0EE0FFF1FAA95E1F7E75B93
:10175000FC4FE8CFE0903304F09034048091CC0348
:101760009091CD03E81AF90A8BE05FD780912F049E
:1017700090913004A0913104B09132048A309105E7
:10178000A105B10518F482E050D728CA8091A103C1
:10179000882351F485E065E041E121E1CAD785E085
:1017A00061E141E125E051C0C701865A9F4F8CD4C9
:1017B000082FC70189D4E82F402F552747FD5095A2
:1017C000F3E0440F551FFA95E1F724E630E0CA0133
:1017D000B901D3D18B018E2F992787FD9095E3E036
:1017E000880F991FEA95E1F7B901C7D15B01602F16
:1017F0007BE0C72ECA0C8BE0E82EE01A655F8A19E1
:101800004C2D2E2D96D752E0852E912CC801B40177
:10181000B4D1709561957F4F462F455FC501B401E6
:10182000ACD1709561957F4F262F255F8C2D6E2D45
:1018300080D7C801B401A1D1462F455FC501B401CD
:101840009CD1262F255F8C2D6E2D73D7C7C91F9273
:101850000F920FB60F9211242F933F934F935F93E4
:101860006F937F938F939F93AF93BF93EF93FF9368
:10187000109285001092840088E28A95F1F7809199
:101880007201909173014A99F2C0009709F47FC0E8
:1018900080917501813021F0823009F078C04AC012
:1018A00090917601E8E1EA95F1F7292F30E0F9010E
:1018B00075E0EE0FFF1F7A95E1F7E20FF31FE55891
:1018C000FE4FA0917A0181E2A89FD0011124AF5B65
:1018D000BD4F989FC001112484569E4F2191203204
:1018E00021F0222311F0219A02C0219800002D91AD
:1018F0002EBD0000000000000000000000000000FD
:1019000000000000000000000000000000000000D7
:1019100000000000E817F90709F7000000000000C8
:1019200000000000000000000000000000001EBCDD
:1019300021982DC083E191E00197F1F700C00000EC
:10194000E0917A01F0E0E75BFC4F83E090819EBD7F
:10195000219A0000000000000000000000000000CC
:101960000000000000000000000000000000000077
:101970000000000000000000000000000000000067
:1019800081507896882311F7219800001EBC109290
:10199000750180917201909173010196909373018A
:1019A000809372018E36910511F421E004C08F36C8
:1019B000910519F422E0209377012091780130916C
:1019C000790182179307A0F0409152015091530181
:1019D0008417950768F441E040937501821B80935A
:1019E0007A0190915401923009F048C0869531C037
:1019F00020915201309153018217930769F582E0DB
:101A0000809377018091760190E0019666E070E026
:101A1000B4D080937601FC01EE0FFF1FEB5AFE4F0E
:101A20002081318130937901209378018F599E4F25
:101A3000FC0180818093540190E053E0880F991F4E
:101A40005A95E1F7820F931F9093530180935201AF
:101A500081E080937A0112C09C01295630402831E0
:101A6000310560F422E0209375018956F2CF893C5C
:101A7000910520F01092730110927201FF91EF9185
:101A8000BF91AF919F918F917F916F915F914F9196
:101A90003F912F910F900FBE0F901F9018951F929E
:101AA0000F920FB60F9211242F933F938F939F9312
:101AB00080917201909173012091740130E0281798
:101AC000390721F42BB138E023272BB98093740117
:101AD0009F918F913F912F910F900FBE0F901F906C
:101AE0001895629FD001739FF001829FE00DF11D58
:101AF000649FE00DF11D929FF00D839FF00D749F88
:101B0000F00D659FF00D9927729FB00DE11DF91F33
:101B1000639FB00DE11DF91FBD01CF011124089590
:101B2000991B79E004C0991F961708F0961B881F2F
:101B30007A95C9F78095089587FB082E062687FDBC
:101B4000819567FD6195ECDF0EF4919507FC819519
:101B50000895AA1BBB1B51E107C0AA1FBB1FA617F4
:101B6000B70710F0A61BB70B881F991F5A95A9F746
:101B700080959095BC01CD01089597FB092E07260D
:101B80000AD077FD04D0E5DF06D000201AF4709566
:101B900061957F4F0895F6F7909581959F4F089531
:101BA000A1E21A2EAA1BBB1BFD010DC0AA1FBB1F61
:101BB000EE1FFF1FA217B307E407F50720F0A21BD3
:101BC000B30BE40BF50B661F771F881F991F1A9440
:101BD00069F760957095809590959B01AC01BD016A
:101BE000CF01089597FB092E05260ED057FD04D08E
:101BF000D7DF0AD0001C38F45095409530952195D8
:101C00003F4F4F4F5F4F0895F6F790958095709531
:101C100061957F4F8F4F9F4F0895FB01DC0141502D
:101C2000504030F08D910190801919F40020B9F7DF
:101C3000881B990B0895FB01DC014150504048F08E
:101C400001900D920020C9F701C01D9241505040F3
:101C5000E0F70895DC01CB01FC01F999FECF06C045
:101C6000F2BDE1BDF89A319600B40D92415050405A
:081C7000B8F70895F894FFCFC6
:101C78004E005300450057002D2D2E2D2D2D2D2DB6
:101C88002D2D3F002E004750474741004750524DE9
:101C9800430056006A3100690068006A3200250076
:101CA8002D0066004D54004E4F20484F4D452050A2
:101CB8004F5300414C5400484447004B4D2F4800B7
:101CC8003A0002000232004200AA00CD00FF0018CC
:101CD80001010102010102FFFF01010101010106E9
:021CE8000100F9
:00000001FF
