:1000000047C028CC60C05FC05EC05DC05CC05BC044
:100010005AC059C058C057C056C044CD54C053C030
:1000200052C051C050C04FC04EC04DC04CC04BC05C
:100030004AC049C00002030507090A0C0E1011133B
:100040001516181A1C1D1F2122242527292A2C2D9C
:100050002F303234353638393B3C3E3F4042434402
:10006000454748494A4B4D4E4F50515253545556AF
:10007000575758595A5B5B5C5D5D5E5F5F606061BE
:1000800061616262626363636364646464646400A4
:1000900011241FBEC0E0D4E0DEBFCDBF11E0A0E060
:1000A000B1E0EEE7FCE102C005900D92AC37B1077C
:1000B000D9F714E0ACE7B1E001C01D92A935B10752
:1000C000E1F7E7D4DACD9CCF68E671E045DD843B0B
:1000D000910520F0845B90404FEF01C041E08A35EC
:1000E000910530F024EB30E0B901681B790BCB01AE
:1000F000FC01EC5CFF4F8491849F802D11240895B6
:100100002F923F924F925F926F927F928F929F9227
:10011000AF92BF92CF92DF92EF92FF920F931F9315
:10012000DF93CF9300D000D00F92CDB7DEB77B0125
:100130008C0197FF0BC010950095F094E094E11CA2
:10014000F11C011D111D8FEF898302C0E1E0E983DD
:10015000C801B70120E432E44FE050E046DDA22EB2
:10016000BB24CC24DD2480E1682E87E2782E812C0C
:10017000912CC801B701A401930137DD6A837B8309
:100180008C839D83C601B5012CE330E040E050E054
:10019000ABDC1B012C01C601B50120EC3DEB40EFAF
:1001A0005FEFA2DC6E0D7F1D801F911FA4019301E4
:1001B0001CDD220E311C411C511C6A817B818C810B
:1001C0009D812CE330E040E050E08EDC5B016C016F
:1001D000C201B10120E737E140E050E085DC7B015E
:1001E0008C01C601B50124E630E040E050E0DBDCE4
:1001F000E20EF31E041F151FF981FF3F41F4109515
:100200000095F094E094E11CF11C011D111DC80142
:10021000B7010F900F900F900F900F90CF91DF913B
:100220001F910F91FF90EF90DF90CF90BF90AF9014
:100230009F908F907F906F905F904F903F902F9006
:100240000895E9EBF3E0119283E0E43CF807D9F775
:1002500008954F925F926F927F928F929F92AF928A
:10026000BF92CF92DF92EF92FF920F931F93DF9393
:10027000CF930F92CDB7DEB72C01C62E79018A013C
:1002800017FF07C022273327A9012E193F09400B6A
:10029000510BDD24D3946AE0862E912CA12CB12C35
:1002A00006C0CA01B901A50194019FDCD3942A308C
:1002B000310541055105ACF717FDD3948C2D90E025
:1002C0009C012D0D311D213231050CF055C0480E19
:1002D000591E17FF0BC010950095F094E094E11C97
:1002E000F11C011D111D6FEF698301C019825201BC
:1002F0009AE0692E712C812C912CC801B701A401C0
:10030000930173DC605DF50161935F018E2F8419A9
:1003100079018A01121613061406150674F3F98181
:10032000FF3F49F4E82FFF27E7FDF095E40DF51DA9
:100330009DE290838F5FE82FFF27E7FDF095E40DA6
:10034000F51D10828150582F569540E0282F30E03F
:10035000842F90E0D201A80FB91F6C91F901E81B1E
:10036000F90BE40DF51D80818C9360834F5F54176A
:1003700078F78D2D8C0D01C081E20F90CF91DF9128
:100380001F910F91FF90EF90DF90CF90BF90AF90B3
:100390009F908F907F906F905F904F9008950F93F4
:1003A0001F939C01062FFA01DA010D900020E9F756
:1003B00011971A2F141B862F90E0810F911D813207
:1003C00091050CF011E2412F50E0C901800F911D01
:1003D000BF0134DC812F800F1F910F9108950F937F
:1003E0001F93CF93DF93EC0134DF682FCE01A80178
:1003F000D6DFDF91CF911F910F910895FF920F9358
:100400001F9301E08091B9038D3209F000E0102FB5
:1004100020E030E0A90114C0CA01B9012AE030E0AF
:1004200040E050E061DB2F2D30E020533040442786
:1004300037FD4095542F260F371F481F591F1F5F48
:10044000E12FF0E0E754FC4FF0808F2D80538A308D
:1004500010F41B3008F3002321F06FEF7FEFCB0186
:1004600004C061E070E080E090E03EDB1F910F91FE
:10047000FF900895883108F56831F8F4482F4695C3
:100480004695469550E08095877021E030E002C0A7
:10049000220F331F8A95E2F7FA01EE0FFF1FE40FD8
:1004A000F51F73E0EE0FFF1F7A95E1F7E60FF11DE0
:1004B000ED5AFC4F8081822B80830895FF920F9329
:1004C0001F93DF93CF9300D000D00F92CDB7DEB74C
:1004D000182F81E0982F911B99838A83812F819512
:1004E000880F8B831C821D83BBE0FB2EF10E8BE0FB
:1004F0006F2DC0DF0BE0011B8BE0602FBBDF8F2D6A
:100500006BE0B8DF802F6BE0B5DF1BE04BC089816B
:1005100087FD0AC08D8181508D838B818E5F8B8397
:1005200099818B81890F89838C818F5F8C838A81EC
:100530008E5F8A8399818A81890F89838C816D81FD
:10054000655F855F97DF8C816D81655F912F981B5B
:10055000892F90DF8C819D81612F691B855F8ADFE8
:100560008C819D81612F691B912F981B892F82DFC0
:100570008D816C81655F855F7DDF8D816C81655FBD
:10058000912F981B892F76DF8D819C81612F691BAC
:10059000855F70DF8D819C81612F691B912F981B76
:1005A000892F68DF9C818D8198170CF4B0CF0F9054
:1005B0000F900F900F900F90CF91DF911F910F919F
:1005C000FF900895AF92BF92CF92DF92EF92FF9289
:1005D0000F931F93382F562F142FA22FB0E0A61B76
:1005E000B109B7FF03C0B095A195BF4FE12FF0E06F
:1005F000E31BF109F7FF03C0F095E195FF4F01E020
:10060000EA17FB0714F000E006C0812F122F282FF5
:10061000832F352F582F131730F4852F522F282F63
:10062000832F312F182FF12EF31AE22FF0E0E51B64
:10063000F109F7FF03C0F095E195FF4FEE2E8F2DE6
:1006400062E07DDAD82EB52E521718F4AA24A394AE
:1006500002C0AA24AA94C32E0EC0002319F08B2D29
:100660006C2D02C08C2D6B2D05DFDE18D7FE02C06D
:10067000BA0CDF0CC3941C1580F71F910F91FF90EB
:10068000EF90DF90CF90BF90AF900895FF920F93BF
:100690001F9301E08091B9038D3209F000E0102F23
:1006A00020E030E0A901E12FF0E0E754FC4FF080BA
:1006B0008F2D80538A3028F5CA01B9012AE030E035
:1006C00040E050E011DA2F2D30E020533040442735
:1006D00037FD4095542F260F371F481F591F1F5FA6
:1006E0001B3008F3002321F06FEF7FEFCB0104C034
:1006F00061E070E080E090E0F7D91F910F91FF90EA
:1007000008958F2D8E3259F3EDCF8091B703882352
:1007100001F589EB93E060E071E045E050E080DABC
:10072000009731F481E08093B7031092700108952F
:1007300089EB93E066E071E045E050E071DA009704
:1007400009F00AC182E08093B70384E680937001C8
:1007500008958091B603882309F4FEC0809170014A
:100760008536E9F18636D8F4843009F469C08530DD
:1007700048F48230F1F1833008F045C0813009F04F
:10078000EBC02DC0863009F482C0863008F462C008
:10079000873009F480C0893009F0DEC080C08A3615
:1007A00009F458C08B3648F4883669F1893608F068
:1007B00047C0873609F0D0C01CC08C3609F488C009
:1007C0008C3608F472C08D3609F488C0883C09F074
:1007D000C3C0E9EBF3E080E090E0DC01AFC00EDEE7
:1007E0006093A7037093A8038093A9039093AA032F
:1007F00008954CDF60939D0370939E0380939F0345
:100800009093A00308958091B903833509F0A4C0A3
:1008100080919D0390919E03A0919F03B091A003AE
:10082000B095A095909581959F4FAF4FBF4F809306
:100830009D0390939E03A0939F03B093A0030895FC
:1008400025DF6093A1037093A2038093A303909389
:10085000A40308958091B903873509F07DC0809184
:10086000A1039091A203A091A303B091A403B0951A
:10087000A095909581959F4FAF4FBF4F8093A10357
:100880009093A203A093A303B093A4030895B6DDAD
:100890006093AB030895B2DD6093AC030895AEDDC1
:1008A0007093A6036093A5030895A8DD4FEC51E073
:1008B000649F9001659F300D749F300D1124C90114
:1008C0006AEF70E049D97093AE036093AD03089569
:1008D00095DD7093B0036093AF0308958FDD60934F
:1008E000B1037093B2038093B3039093B40308955C
:1008F00034E0880F991FAA1FBB1F3A95D1F7322FFA
:100900003154363020F430E0275330400FC0322FBE
:100910003156363020F430E02755304007C0322FB2
:1009200030533A3058F430E020533040442737FDFC
:100930004095542F820F931FA41FB51F219122238E
:1009400021F033E0E53CF30799F621E03091B8035C
:10095000381320E02093B50308956F927F928F9211
:100960009F92AF92BF92CF92DF92EF92FF920F933E
:100970001F93CF93DF93EC01D22E411551056105F2
:10098000710529F46CE044E151E009DD73C02223D4
:1009900059F014161506160617061CF48CE091E0A3
:1009A0000DC08EE091E00AC0141615061606170653
:1009B0001CF480E191E002C082E191E03C017A0107
:1009C0008B0177FF08C010950095F094E094E11C2E
:1009D000F11C011D111DC801B70120E432E44FE0F4
:1009E00050E003D9822E9924AA24BB24C501B40166
:1009F00020EC3DEB40EF5FEF77D86E0D7F1D801F41
:100A0000911F24E630E040E050E06ED82CE330E067
:100A100040E050E0C8D8DD2039F076EEC72E74E112
:100A2000D72EE12CF12C06C060E9C62E6AE1D62E45
:100A3000E12CF12CC20ED31EE41EF51ECE016CE09B
:100A4000A501940100E211E0CADC682F80E1C8161C
:100A500087E2D80680E0E80680E0F80630F4CE01B0
:100A600020E030E0A901F5DB682FCE01A701960157
:100A70008301B5DCDF91CF911F910F91FF90EF9033
:100A8000DF90CF90BF90AF909F908F907F906F90AE
:100A90000895DF93CF93CDB7DEB763970FB6F89481
:100AA000DEBF0FBECDBF20E12BB988E08AB92998FF
:100AB0008CE084B980916F00816080936F00809199
:100AC000810082608093810083E08093690031E03F
:100AD0003DBB80E880BF10927B001EBC8DB58E7F31
:100AE0008DBD84E58CBDE0918001F0E0EE0FFF1F2D
:100AF000E25AFE4F8081918190938301809382011D
:100B000010927E0080917C00806480937C008091B4
:100B10007A00866080937A0010927B003093C50043
:100B200087E38093C40086E08093C2002093C100D5
:100B300078948091C00087FFA2C00091C600909178
:100B400070019F3F21F4043209F099C010C00432B3
:100B500071F0053230F40A3049F10D3009F07CC0F3
:100B600025C00A3299F00C3209F076C00AC0109202
:100B7000B6031092B7031092B8031092700161DBB4
:100B80007EC08091B80380278093B803BEDD59DB17
:100B90001092B603809170018F5F809370010A32CA
:100BA00009F06DC088EC8093700169C0AEDD8FEFF5
:100BB000809370018091B503882309F460C020916F
:100BC000A5033091A6038091CC039091CD038217A9
:100BD00093071CF481E090E005C0281739073CF426
:100BE0008FEF9FEF9093DE038093DD0315C080911C
:100BF000DF039091E0038B3091054CF01092DE03FF
:100C00001092DD031092E0031092DF0305C00196FD
:100C10009093E0038093DF03A4ECB3E0EDE9F3E00D
:100C200089E101900D928150E1F781E08093E10329
:100C30008091E2039091E3039093E5038093E403B2
:100C40008091D4039091D50383309105C0F0109228
:100C500071011092E60313C08091B603E82FF0E013
:100C6000E754FC4F0083983C29F09091B8039027FB
:100C70009093B8038A3018F48F5F8093B6034C9931
:100C800025C081E080939B0380919C03833330F1E6
:100C900010929C035B9A8091B5038823F9F08091B0
:100CA000AB038823D9F0A8EEB3E0E4ECF3E08AE0EC
:100CB00001900D928150E1F781E08093E70310925B
:100CC000F2031092E2031092E30308C080919B03A9
:100CD00081115B9810929B0310929C03809181017B
:100CE000823009F07AC0109281018091800190E0F9
:100CF000FC0125E0EE0FFF1F2A95E1F7E80FF91F31
:100D0000EB57FE4F83EFE82E83E0F82ED70180E00B
:100D100090E021912032E1F02223D1F02B3550F4E4
:100D2000822F90E003E0880F991F0A95E1F788521F
:100D3000914010C0322F3556393060F4822F90E048
:100D400013E0880F991F1A95E1F78057914002C070
:100D50008FEF9FEF8D939D9304E0A533B007C9F605
:100D600080E090E078E0A72ECC24CA944C01D70113
:100D70000D911D917D0180917201992787FD9095BC
:100D80008017910761F0BFEF0F3F1B0771F085E3FC
:100D900094E0B80148E050E060D700937201A5E309
:100DA000B4E0F401E55BFD4F09C0E5E3F4E00A2D92
:100DB00011920A95E9F7C0927201F1CF8D9180836B
:100DC000B19614E0AD33B107C9F70894811C911CAA
:100DD00021E28216910459F6ACCE809181018130D6
:100DE00009F0A7CE1092810180919B03882329F0FE
:100DF00080919C038F5F80939C038091F20362E358
:100E000092D6992309F0DDC28091AB03882311F0BB
:100E10005B9A04C08BB198E089278BB98091E70376
:100E2000882309F4E4C1E090C403F090C503009165
:100E3000C6031091C7032090C8033090C9034090A7
:100E4000CA035090CB03A090E803B090E903C09090
:100E5000EA03D090EB038091EC039091ED03A09115
:100E6000EE03B091EF0389839A83AB83BC83EA14CA
:100E7000FB040C051D0591F4281639064A065B068D
:100E800069F410923D0410923E0410923F041092B7
:100E900040041092420410924104A9C1C601B50158
:100EA0006E0D7F1D801F911F97FF07C09095809545
:100EB000709561957F4F8F4F9F4F20E834E84EE14A
:100EC00050E071D6C901865A9F4FFED88D83C80164
:100ED000B70116D96E837F8388879987C601B501CC
:100EE0000FD93B014C01C201B1010AD97B018C0130
:100EF00069817A818B819C8103D99B01AC012E1978
:100F00003F09400B510BEE80FF80088519856E1854
:100F10007F08800A910AFD806F2D772767FD709505
:100F2000872F972FE1D524E630E040E050E05DD6F2
:100F300019012A0162E0E62EF12C012D112DCC249D
:100F4000C3940FC0C201B101A80197014ED6190187
:100F50002A01C401B301A801970147D639014A010A
:100F6000CC0CA201910157FE07C022273327A9010B
:100F700022193309440955092F3F6FEF360760E006
:100F8000460760E05607F0F6D401C30197FE07C09C
:100F900088279927DC0186199709A809B9098F3F85
:100FA000EFEF9E07E0E0AE07E0E0BE0758F6C9822B
:100FB0002A873B874C875D878E879F87A88BB98B55
:100FC000C201B101A20191018FD55B016C01C40185
:100FD000B301A401930188D5E1E00FC052E0D6949B
:100FE000C794B794A7945A95D1F742E09695879500
:100FF000779567954A95D1F7EE0FE92EFF240027E4
:1010000011272D2D332744275527E20EF31E041FE9
:10101000151F2FEFE216F1040105110509F0F0F696
:10102000ED8386017501E60EF71E081F191FEE827B
:10103000FF820887198757016801D694C794B7942F
:10104000A794A114B104C104D10461F180E090E03F
:101050009B8B8A8B02C0570168016E817F818885D6
:101060009985A60195019FD579018A01EA0CFB1C9F
:101070000C1D1D1D16950795F794E794AE18BF0833
:10108000C00AD10A22E0A216B104C104D10470F052
:101090004A895B894F5F5F4F5B8B4A8B4A315105B1
:1010A000D1F604C0EE80FF80088519856D81262F5A
:1010B00030E040E050E0C801B70116D56B017C017B
:1010C000611571058105910509F46AC08A859B85C2
:1010D000AC85BD850E851F852889398980179107C4
:1010E000A207B307D8F0C901B80124E630E040E018
:1010F00050E0FAD4A701960156D5022F20E030E047
:10110000590103C00894A11CB11CC501DDD7081703
:101110001CF11AE5A116B104A9F71EC06A857B85EA
:101120008C859D8524E630E040E050E0DDD4A701C9
:10113000960139D5A22E00E010E002C00F5F1F4FCC
:10114000C801C2D7A8161CF00A351105B9F72AE55F
:1011500030E0201B310B01C0950161147104810442
:10116000910429F457FC1FC08AE590E01EC01614B4
:101170001704180419044CF457FC03C08AE590E0E6
:101180000CC0C901825F9E4F10C057FC04C0C9014A
:10119000865A9F4F0AC08EE091E0821B930B05C0D8
:1011A00080E090E002C08EE091E090934204809352
:1011B0004104C701B60125E331E040E050E094D49A
:1011C00028EE33E040E050E0EED479018A016981F5
:1011D000262F30E040E050E0C801B70185D460938D
:1011E0003D0470933E0480933F049093400403E4D5
:1011F000A02E04E0B02E13E7612E11E0712EB7E7A8
:101200002B2EB1E03B2E8BE494E0CC244C0180915A
:101210007C00807F80937C0080917C008C2980936F
:101220007C0080917A00806A80937A0080917A00B5
:10123000806480937A0080917A0084FFFCCF809153
:101240007A00806180937A0080917A008F75809314
:101250007A006091780070917900D5016D937D934B
:101260005D0180E090E026E331E040E050E03CD4D6
:101270002AE030E040E050E096D479018A01F301A1
:1012800021913F0130E040E050E0C801B7012CD48B
:10129000D1012D911D0130E040E050E084D479016E
:1012A0008A01AAE016950795F794E794AA95D1F7D5
:1012B000E982FA820B831C838E2D90E0982F882779
:1012C000990F990FA0E0B0E079018A01E81AF90AB4
:1012D0000A0B1B0BC801B70124E630E040E050E0E8
:1012E00003D4EAE09695879577956795EA95D1F7C7
:1012F000D4016C93E9811196EC931197C39452E059
:10130000E52EF12C8E0C9F1C0C2D043009F07FCFA4
:1013100080914B0490914C04909354048093530417
:101320009091500484E6989FC001112420914F04AD
:10133000820F911D11E0853F910798F4893791053F
:1013400098F0AC014857504024E630E0429FC0017D
:10135000439F900D529F900D11246CE771E0FCD3D8
:1013600005C064E670E002C060E070E06093550480
:101370009091540484E6989FC00111242091530455
:10138000820F911D21E033E0883E930708F020E0B2
:1013900020935604109257048091D4039091D50362
:1013A0008330910538F48091E6038A3018F48F5F1A
:1013B0008093E6038091E6038A3019F481E08093FC
:1013C00071018091F2038F5F8093F2038091F203A9
:1013D000823378F01092F2038091E2038F5F809362
:1013E000E2038091580490E00196817090708093A0
:1013F00058048091E2038C3338F01092E20380911C
:10140000E3038F5F8093E3038091E3038C3310F059
:101410001092E30346EAE42E41E0F42E80E090E0EF
:1014200030E3632E2EE2222E67015C016CC1119223
:10143000EC15FD05E1F78A2DAA20C9F585E891E0B4
:1014400060E042E251E0ABD780915504882331F44B
:1014500085E891E068E045E251E0A1D78091CC03B6
:101460009091CD032091F0033091F103821B930BF7
:101470004EE48032940764F44091C4035091C50354
:101480006091C6037091C70385E891E021E065DAB9
:101490008091B503882329F480915804882309F4A6
:1014A00022C185E891E06BE147E251E0C3C08130A1
:1014B00009F06BC080915604882321F08091580474
:1014C000882361F1E0904B04FF2400E010E02091BC
:1014D0004C0430E040E050E086EA91E060E0B9D6AC
:1014E000E82FF0E0EA55FE4F2082682F6F5F5AE048
:1014F000E516F1040105110534F4E62FF0E0EA5594
:10150000FE4F60826F5F86EA91E0A8019701A1D645
:10151000682F86EA91E049E251E041D720915504D5
:1015200030E040E050E086EA91E068E00BE211E054
:1015300056D78091CC039091CD032091F003309148
:10154000F103821B930B6EE48032960764F44091A2
:10155000C8035091C9036091CA037091CB0386EA16
:1015600091E020E0FAD98091D203882341F02091C4
:10157000D30330E040E050E086EA91E030C086EAF4
:1015800091E06BE14DE251E055C0823051F5809120
:10159000E703882351F480915804882331F087ECC5
:1015A00091E06AE04FE251E0FAD62091D403309105
:1015B000D50340E050E087EC91E060E04AD620910E
:1015C000CC033091CD038091F0039091F103281B5F
:1015D000390B442737FD4095542F87EC91E06BE1A0
:1015E00081C0833049F580917101882309F07BC067
:1015F00088EE91E060E04BE351E0D1D68091DD03CD
:101600009091DE038130910531F488EE91E06AE13A
:1016100040E451E009C0AFEF8F3F9A0731F488EE04
:1016200091E06AE142E451E0BAD688EE91E06BE1E4
:1016300044E451E0B4D657C0843031F489E092E0FC
:1016400060E049E451E0F6CF8091E703882369F434
:101650008AE292E060E041E551E0A1D68AE292E0C0
:1016600065E04DE251E09BD612C08AE292E060E074
:1016700041E551E094D620913D0430913E044091E3
:101680003F04509140048AE292E065E0E2D58AE2AC
:1016900092E06AE046E551E082D68091E3038A3029
:1016A00020F4609245026CE101C06BE12091E303FC
:1016B00030E040E050E08AE292E009E511E08FD6A8
:1016C000682F8091E2038A3030F4E62FF0E0E65D87
:1016D000FD4F60826F5F2091E20330E040E050E018
:1016E0008AE292E0B6D50894A11CB11CE1E2F0E0D8
:1016F000CE0EDF1EF6E0AF16B10429F42BE633E080
:1017000080E090E016C0F50185E0EE0FFF1F8A959E
:10171000E1F7EA0DFB1DEB57FE4F89CE1192E21760
:10172000F307E1F701969F01285E3F4F8330910553
:1017300069F0FC01EE0FFF1FE80FF91F13E0EE0F39
:10174000FF1F1A95E1F7ED5AFC4FE8CFE0904104F6
:10175000F09042048091D6039091D703E81AF90AD9
:101760008BE0ACD680913D0490913E04A0913F0463
:10177000B09140048A309105A105B10518F482E0CA
:101780009DD6D7C98091D4039091D503833091051C
:1017900020F08091AB03882351F485E065E041E1BE
:1017A00021E110D785E061E141E125E051C0C701A9
:1017B000865A9F4F89D4082FC70186D4E82F402F1F
:1017C000552747FD5095B3E0440F551FBA95E1F7F3
:1017D00024E630E0CA01B901D3D18B018E2F9927BD
:1017E00087FD9095A3E0880F991FAA95E1F7B901AD
:1017F000C7D15B01602FFBE0CF2ECA0C8BE0E82E37
:10180000E01A655F8A194C2D2E2DDCD6E2E08E2E73
:10181000912CC801B401B4D1709561957F4F462FCA
:10182000455FC501B401ACD1709561957F4F262FFE
:10183000255F8C2D6E2DC6D6C801B401A1D1462FCF
:10184000455FC501B4019CD1262F255F8C2D6E2DDF
:10185000B9D66FC91F920F920FB60F9211242F9312
:101860003F934F935F936F937F938F939F93AF9328
:10187000BF93EF93FF93109285001092840088E24B
:101880008A95F1F780917C0190917D014A99F2C08F
:10189000009709F47FC080917F01813021F0823070
:1018A00009F078C04AC090918001E8E1EA95F1F72B
:1018B000292F30E0F90175E0EE0FFF1F7A95E1F76F
:1018C000E20FF31FEB57FE4FA091840181E2A89F26
:1018D000D0011124A55BBD4F989FC00111248A55EA
:1018E0009E4F2191203221F0222311F0219A02C033
:1018F000219800002D912EBD000000000000000086
:1019000000000000000000000000000000000000D7
:1019100000000000000000000000E817F90709F7C8
:1019200000000000000000000000000000000000B7
:10193000000000001EBC21982DC083E191E00197BA
:10194000F1F700C00000E0918401F0E0ED5AFC4F97
:1019500083E090819EBD219A0000000000000000FD
:101960000000000000000000000000000000000077
:101970000000000000000000000000000000000067
:1019800000000000000081507896882311F721980C
:1019900000001EBC10927F0180917C0190917D011E
:1019A000019690937D0180937C018E36910511F410
:1019B00021E004C08F36910519F422E020938101C3
:1019C000209182013091830182179307A0F040910A
:1019D0005B0150915C018417950768F441E04093E6
:1019E0007F01821B8093840190915D01923009F008
:1019F00048C0869531C020915B0130915C0182170F
:101A0000930769F582E0809381018091800190E0E5
:101A1000019666E070E0B4D080938001FC01EE0F87
:101A2000FF1FE25AFE4F20813181309383012093C2
:101A3000820186599E4FFC01808180935D0190E078
:101A400053E0880F991F5A95E1F7820F931F9093E7
:101A50005C0180935B0181E08093840112C09C0152
:101A6000295630402831310560F422E020937F016F
:101A70008956F2CF893C910520F010927D01109299
:101A80007C01FF91EF91BF91AF919F918F917F91D9
:101A90006F915F914F913F912F910F900FBE0F90DB
:101AA0001F9018951F920F920FB60F9211242F932B
:101AB0003F938F939F9380917C0190917D01209122
:101AC0007E0130E02817390721F42BB138E02327B5
:101AD0002BB980937E019F918F913F912F910F9011
:101AE0000FBE0F901F901895629FD001739FF00159
:101AF000829FE00DF11D649FE00DF11D929FF00D9E
:101B0000839FF00D749FF00D659FF00D9927729FD4
:101B1000B00DE11DF91F639FB00DE11DF91FBD015F
:101B2000CF0111240895991B79E004C0991F9617DD
:101B300008F0961B881F7A95C9F78095089587FB52
:101B4000082E062687FD819567FD6195ECDF0EF472
:101B5000919507FC81950895AA1BBB1B51E107C015
:101B6000AA1FBB1FA617B70710F0A61BB70B881F2D
:101B7000991F5A95A9F780959095BC01CD010895BC
:101B800097FB092E07260AD077FD04D0E5DF06D0A3
:101B900000201AF4709561957F4F0895F6F790959F
:101BA00081959F4F0895A1E21A2EAA1BBB1BFD0130
:101BB0000DC0AA1FBB1FEE1FFF1FA217B307E4072C
:101BC000F50720F0A21BB30BE40BF50B661F771F84
:101BD000881F991F1A9469F7609570958095909564
:101BE0009B01AC01BD01CF01089597FB092E05268D
:101BF0000ED057FD04D0D7DF0AD0001C38F4509522
:101C00004095309521953F4F4F4F5F4F0895F6F720
:101C100090958095709561957F4F8F4F9F4F089558
:101C2000FB01DC014150504030F08D910190801952
:101C300019F40020B9F7881B990B0895FB01DC010A
:101C40004150504048F001900D920020C9F701C06A
:101C50001D9241505040E0F70895DC01CB01FC019A
:101C6000F999FECF06C0F2BDE1BDF89A319600B4F5
:0E1C70000D9241505040B8F70895F894FFCF00
:101C7E004750474741004750524D43004E005300D6
:101C8E00450057002D2D2E2D2D2D2D2D2D2D3F00A8
:101C9E002E006A310069006800560025002D004EA6
:101CAE004F20484F4D4520504F53004B4D2F48006D
:101CBE00660065004D542020004C4F54484152217F
:101CCE000044495354004D54003A000200023200C1
:101CDE004200AA00CD00FF0018010101020101011E
:0C1CEE00FF01FF010101010101060100DE
:00000001FF
