:1000000047C0BCCB60C05FC05EC05DC05CC05BC0B1
:100010005AC059C058C057C056C0DDCC54C053C098
:1000200052C051C050C04FC04EC04DC04CC04BC05C
:100030004AC049C00002030507090A0C0E1011133B
:100040001516181A1C1D1F2122242527292A2C2D9C
:100050002F303234353638393B3C3E3F4042434402
:10006000454748494A4B4D4E4F50515253545556AF
:10007000575758595A5B5B5C5D5D5E5F5F606061BE
:1000800061616262626363636364646464646400A4
:1000900011241FBECFEFD4E0DEBFCDBF11E0A0E042
:1000A000B1E0E4EBFBE102C005900D92A237B1078D
:1000B000D9F714E0A2E7B1E001C01D92A534B10761
:1000C000E1F715D575CD9CCF68E671E0D4DC843BB3
:1000D000910520F0845B90404FEF01C041E08A35EC
:1000E000910530F024EB30E0B901681B790BCB01AE
:1000F000FC01EC5CFF4F8491849F802D11240895B6
:100100004F925F926F927F928F929F92AF92BF9227
:10011000CF92DF92EF92FF921F93CF93DF9300D0A5
:1001200000D0CDB7DEB76B017C0197FF0AC0F09419
:10013000E094D094C094C11CD11CE11CF11C1FEFB1
:1001400001C011E0C701B60120E432E44FE050E005
:10015000DBDC422E552466247724C701B60120E15A
:1001600037E240E050E0D0DC69837A838B839C8364
:10017000C301B2012CE330E040E050E050DC4B0121
:100180005C01C301B20120EC3DEB40EF5FEF47DCC7
:100190006C0D7D1D8E1D9F1D20E137E240E050E07B
:1001A000B3DC820E911CA11CB11CC501B4012CE36F
:1001B00030E040E050E033DC6B017C0169817A8102
:1001C0008B819C812CDC4B015C01C701B60124E6CC
:1001D00030E040E050E023DC6B017C01C501B4015C
:1001E00071DCC20ED31EE41EF51E1F3F41F4F094D5
:1001F000E094D094C094C11CD11CE11CF11CC70137
:10020000B6010F900F900F900F90DF91CF911F913B
:10021000FF90EF90DF90CF90BF90AF909F908F9026
:100220007F906F905F904F900895A8EDB3E0EBEB57
:10023000F3E08AE001900D928150E1F781E0809334
:10024000D70308953F924F925F926F927F928F9261
:100250009F92AF92BF92CF92DF92EF92FF920F9355
:100260001F93CF93DF932C01362E69017A01890108
:100270009A01F7FE07C00027112798010C191D09E4
:100280002E093F09C1E09AE0892E912CA12CB12CB6
:1002900008C0C901B801A501940136DC89019A01A1
:1002A000CF5F0A301105210531059CF7F7FCCF5FC0
:1002B000832D90E09C012C0F311D213231050CF073
:1002C00056C04201880E991EF7FE0AC0F094E094D1
:1002D000D094C094C11CD11CE11CF11CDFEF01C003
:1002E000D0E0540100E08AE0482E512C612C712CA2
:1002F00001C0022FC701B601A301920105DC69010B
:100300007A01605DF50161935F01202F2F5F1C145E
:100310001D041E041F046CF3DF3F49F4E22FFF2786
:10032000E7FDF095E80DF91D8DE280832F5FE22F48
:10033000FF27E7FDF095E80DF91D10822150522F9F
:10034000569540E030E0842F90E0F401E80FF91F6B
:100350006081D901A81BB90BA80DB91D8C918083B0
:100360006C934F5F541778F78C2F830D01C081E297
:10037000DF91CF911F910F91FF90EF90DF90CF9081
:10038000BF90AF909F908F907F906F905F904F90B5
:100390003F900895CF93DF93DC01D62FBA01FA0185
:1003A00001900020E9F73197CE2FC41B2D2F30E0AC
:1003B000C9018C0F911D813291050CF0C1E24C2FC7
:1003C00050E0CD01820F931FD4DB8C2F8D0FDF9176
:1003D000CF9108950F931F93CF93DF93EC0132DFFA
:1003E000682FCE01A801D6DFDF91CF911F910F9129
:1003F00008950F931F93CF93DF93EC01E42FF0E068
:10040000EE0FFF1FE85CFB4F1081218130E040E0E0
:1004100050E018DFFE01E80FF11D9EE29083682F87
:100420006F5F1A3030F4FE01E60FF11D90E3908308
:100430006F5F212F30E040E050E0CE0100E011E09E
:10044000C9DFDF91CF911F910F9108952F923F92B5
:100450004F925F926F927F928F929F92AF92BF92D4
:10046000CF92DF92EF92FF920F931F93CF93DF9380
:100470001C01C62F69017A0121153105410551057D
:1004800021F44AE051E086DF5DC0CA01B90120E4F1
:1004900032E44FE050E038DB29013A01552466246C
:1004A0007724C301B20120EC3DEB40EF5FEFB7DAF8
:1004B0006C0D7D1D8E1D9F1DE0E18E2EE7E29E2EB0
:1004C000A12CB12CA50194011FDBD22FC701B601CD
:1004D000A501940119DB4B015C01002351F01C14B0
:1004E0001D041E041F047CF468E0C62E61E0D62EB5
:1004F00013C01C141D041E041F0454F456E0C52E22
:1005000051E0D52E09C042E0C42E41E0D42E04C0F3
:1005100034E0C32E31E0D32EC1016C2FA301920130
:1005200006E111E057DF682F2D2F30E040E050E06A
:10053000C10108E111E04EDF682FC101A50194015E
:10054000860148DFDF91CF911F910F91FF90EF90CF
:10055000DF90CF90BF90AF909F908F907F906F90E3
:100560005F904F903F902F900895FF920F931F93AD
:10057000CF93DF93D1E08091B0038D3209F0D0E0CA
:10058000CD2F00E010E0980116C0C901B8012AE0A3
:1005900030E040E050E043DADC01CB010F2D10E009
:1005A00000531040222717FD2095322F080F191FE6
:1005B0002A1F3B1FCF5FEC2FF0E0E055FC4FF0808F
:1005C0008F2D80538A3010F4CB30F8F2DD2321F0E8
:1005D0006FEF7FEFCB0104C061E070E080E090E05E
:1005E000A90198011CDADF91CF911F910F91FF9023
:1005F0000895FF920F931F93CF93DF93FF24F394FB
:100600008091B0038D3209F0FF24CF2D00E010E07F
:100610009801EC2FF0E0E055FC4FD0818D2F8053F6
:100620008A3058F5C901B8012AE030E040E050E0D6
:10063000F6D9DC01CB010D2F10E00053104022272A
:1006400017FD2095322F080F191F2A1F3B1FCF5F60
:10065000CB30F8F2FF2021F06FEF7FEFCB0104C029
:1006600061E070E080E090E0A9019801D8D9DF91C5
:10067000CF911F910F91FF900895DE3241F3EACFA1
:100680008091AE03882301F580EB93E06AE171E08D
:1006900045E050E060DA009731F481E08093AE03EA
:1006A00010925E01089580EB93E060E271E045E016
:1006B00050E051DA009709F00DC182E08093AE035B
:1006C00084E680935E0108958091AD03882309F448
:1006D00001C180915E01853609F43FC08636E0F4A1
:1006E000843009F467C0853050F4823009F441C089
:1006F000833008F042C0813009F0ECC02EC0863053
:1007000009F479C0863008F459C0873009F479C0FB
:10071000893009F0DFC07BC08A3609F44FC08B36C0
:1007200048F4883651F1893608F044C0873609F01C
:10073000D1C01FC08C3609F486C08C3608F46FC057
:100740008D3609F488C0883C09F0C4C0E0EBF3E0C2
:1007500080E090E0DC0120E0B1C007DFDC01CB01EC
:100760008093830190938401A0938501B0938601C7
:1007700008953FDFDC01CB0114C08091B0038335C5
:1007800009F0A8C08091790190917A01A0917B0134
:10079000B0917C01B095A095909581959F4FAF4FFA
:1007A000BF4F8093790190937A01A0937B01B0931E
:1007B0007C0108951EDFDC01CB0114C08091B003E1
:1007C000873509F087C080917D0190917E01A091CD
:1007D0007F01B0918001B095A095909581959F4F34
:1007E000AF4FBF4F80937D0190937E01A0937F0117
:1007F000B09380010895B9DEDC01CB0180938701BD
:100800000895B3DEDC01CB01809388010895ADDE4D
:10081000DC01CB0190938201809381010895A5DED4
:10082000AB01BC012FEC31E0429FC001439F900D12
:10083000529F900D11246AEF70E01DD970938A01C8
:1008400060938901089591DEDC01CB0190938C01C6
:1008500080938B01089589DEDC01CB0180938D01AB
:1008600090938E01A0938F01B0939001089534E08E
:10087000880F991FAA1FBB1F3A95D1F7342F315407
:10088000363020F450E0475350400FC0342F3156DB
:10089000363020F450E04755504007C0342F3053D5
:1008A0003A3058F450E040535040662757FD609569
:1008B000762F840F951FA61FB71F2F5F41914423EA
:1008C00011F02B30A1F621E03091AF03381320E076
:1008D000209391010895883108F56831F8F4482F84
:1008E00046954695469550E08095877021E030E02A
:1008F00002C0220F331F8A95E2F7FA01EE0FFF1FA5
:10090000E40FF51FA3E0EE0FFF1FAA95E1F7E60F36
:10091000F11DE851FC4F8081822B80830895CF9296
:10092000DF92EF92FF920F931F93CF93DF93382FB5
:10093000A62FC42F422F50E0461B510957FF03C07A
:10094000509541955F4FEC2FF0E0E31BF109F7FF65
:1009500003C0F095E195FF4FD1E0E417F50714F0DF
:10096000D0E006C08C2FC22F282F832F3A2FA82F1C
:10097000C31730F48A2FA22F282F832F3C2FC82F84
:100980001C2F131BE22FF0E0EA1BF109F7FF03C055
:10099000F095E195FF4F0E2F812F62E05FD8F82E82
:1009A000DA2EA21718F4CC24C39402C0CC24CA9423
:1009B000E32E0EC0DD2319F08D2D6E2D02C08E2D7D
:1009C0006D2D89DFF01AF7FE02C0DC0CF10EE39406
:1009D000CE1580F7DF91CF911F910F91FF90EF908F
:1009E000DF90CF900895FF920F931F93CF93DF93E3
:1009F00000D000D00F92CDB7DEB7182F81E0982F2E
:100A0000911B9D838C83812F8195880F8B831A8204
:100A10001983BBE0FB2EF10E8BE06F2D5CDF0BE04A
:100A2000011B8BE0602F57DF8F2D6BE054DF802F91
:100A30006BE051DF1BE04BC08D8187FD0AC08981CF
:100A4000815089838B818E5F8B839D818B81890F00
:100A50008D838A818F5F8A838C818E5F8C839D8159
:100A60008C81890F8D838A816981655F855F33DF22
:100A70008A816981655F912F981B892F2CDF8A817C
:100A80009981612F691B855F26DF8A819981612F9A
:100A9000691B912F981B892F1EDF89816A81655FF1
:100AA000855F19DF89816A81655F912F981B892F86
:100AB00012DF89819A81612F691B855F0CDF898133
:100AC0009A81612F691B912F981B892F04DF9A81CE
:100AD000898198170CF4B0CF0F900F900F900F9062
:100AE0000F90DF91CF911F910F91FF900895CF93B9
:100AF000DF93CDB7DEB762970FB6F894DEBF0FBEB7
:100B0000CDBF20E12BB988E08AB929988CE084B95F
:100B100080916F00816080936F008091810082607E
:100B20008093810083E08093690031E03DBB80E8E1
:100B300080BF10927B001EBC8DB58E7F8DBD84E57D
:100B40008CBDE0919201F0E0EE0FFF1FEE5AFE4FD8
:100B5000808191819093AC038093AB0310927E00CF
:100B600080917C00806480937C0080917A00866014
:100B700080937A0010927B003093C50087E38093C6
:100B8000C40086E08093C2002093C10078948091D5
:100B9000C00087FF8BC00091C60090915E019F3F0F
:100BA00021F4043209F082C010C0043271F0053221
:100BB00030F40A3099F10D3009F065C02FC00A32C7
:100BC000C1F00C3209F05FC00FC01092AD0310925B
:100BD000AE031092AF0310925E01E0EBF3E08BE006
:100BE00011928150E9F762C08091AF038027809312
:100BF000AF0346DDE0EBF3E08BE011928150E9F7C3
:100C00001092AD0380915E018F5F80935E010A3286
:100C100009F04CC088EC80935E0148C031DD8FEF55
:100C200080935E0180919101882309F43FC0ABEB72
:100C3000B3E0E9E7F1E089E101900D928150E1F73D
:100C400081E08093D4038091740190917501909319
:100C5000D6038093D5038091CB039091CC0321E000
:100C60008330910508F020E020935F012091D703A5
:100C70002223E1F42091C9032223C1F08A30910597
:100C8000A8F0D3DA13C08091AD03E82FF0E0E0556F
:100C9000FC4F0083983C29F09091AF0390279093EC
:100CA000AF038A3018F48F5F8093AD034C9912C064
:100CB00081E08093770180917801833398F05B9A8B
:100CC00080919101882371F080918701882351F0F0
:100CD000ACDA08C08091770181115B98109277019E
:100CE0001092780180917201823009F084C01092D4
:100CF000720180919201A9E58A2EA2E09A2ED40178
:100D000020E030E060E070E090E0AC0115E0440FDE
:100D1000551F1A95E1F7480F591F4D565E4FFA01BE
:100D2000E60FF71F80818032E1F08823D1F08B3508
:100D300050F4282F30E0F3E0220F331FFA95E1F74B
:100D40002852314010C0982F9556993060F4282FC2
:100D500030E0E3E0220F331FEA95E1F720573140FE
:100D600002C02FEF3FEF2D933D936F5F7F4F6132B6
:100D70007105A9F600E010E078E0E72ECC24CA94D3
:100D8000D4014D905D904D0180915101992787FDCF
:100D900090958415950569F0BFEF4B16BFEF5B0684
:100DA00081F08BE992E0B20148E050E0F1D6409248
:100DB0005101ABE9B2E020E030E0C8018D559D4F14
:100DC00009C0EBE9F2E0AE2C1192AA94E9F7C092C7
:100DD0005101EFCF4D91FC01E20FF31F40832F5DD6
:100DE0003F4F41E028303407A9F70F5F1F4F013212
:100DF000110531F6CCCE80917201813009F0C7CE59
:100E00001092720180917701882329F080917801F6
:100E10008F5F8093780180917601882309F09FC2CB
:100E200080918701882311F05B9A04C08BB198E010
:100E300089278BB98091D703882309F4EFC1C0902B
:100E4000BB03D090BC03E090BD03F090BE03809044
:100E5000BF039090C003A090C103B090C2038982E9
:100E60009A82AB82BC828090D8039090D903A090E4
:100E7000DA03B090DB032091DC033091DD03409175
:100E8000DE035091DF032D833E834F835887C814C0
:100E9000D904EA04FB04B1F489819A81AB81BC8155
:100EA00082179307A407B50769F41092E203109222
:100EB000E3031092E4031092E5031092E70310920B
:100EC000E603ACC1D501C4018C0D9D1DAE1DBF1D37
:100ED000B7FF07C0B095A095909581959F4FAF4FF4
:100EE000BF4FBC01CD0120E834E84EE150E0EAD527
:100EF000C901865A9F4FE8D8382EC701B60100D9DC
:100F00008B019C01C501B401298B3A8BF9D82B01C7
:100F10003C0169817A818B819C81F2D86B017C01D3
:100F20006D817E818F819885EBD86C197D098E0942
:100F30009F0929893A89401A510A620A730A232DA6
:100F4000332727FD3095432F532F69D524E630E012
:100F500040E050E0D9D53324339462E0C62ED12C42
:100F6000E12CF12C49015A010FC0C501B401A701C0
:100F70009601CAD549015A01C301B201A7019601E0
:100F8000C3D529013A01330CB501A401B7FE07C04E
:100F900044275527BA01481959096A097B094F3F67
:100FA0009FEF590790E0690790E07907F0F6D301C9
:100FB000C20177FE07C088279927DC0184199509AB
:100FC000A609B7098F3FEFEF9E07E0E0AE07E0E02C
:100FD000BE0758F689829A82AB82BC8249875A87BB
:100FE0006B877C878D879E87AF87B88BC501B401DF
:100FF000A501940114D56B017C01C301B201A301C9
:1010000092010DD5DC01CB0161E0E62F0FC022E09B
:10101000F694E794D794C7942A95D1F732E0B69521
:10102000A795979587953A95D1F7EE0F4B2F5527B2
:10103000662777270F2D112722273327400F511FAF
:10104000621F731F4F3F51056105710509F0F8F6E6
:101050006E2F4C015D018C0C9D1CAE1CBF1C8D8243
:101060009E82AF82B886B694A79497948794811491
:101070009104A104B10439F100E010E02E2E02C069
:10108000460157016D817E818F819885A50194016C
:1010900019D569017A01C80CD91CEA1CFB1CF6940D
:1010A000E794D794C7948C189D08AE08BF0822E037
:1010B00082169104A104B10458F00F5F1F4F0A314A
:1010C0001105F1F605C0CD80DE80EF80F88401C007
:1010D000622D262F30E040E050E0C701B6019FD4DA
:1010E0006B017C01611571058105910509F46EC0E4
:1010F00089849A84AB84BC842D853E854F8558892C
:1011000082169306A406B506D8F0CA01B90124E6F2
:1011100030E040E050E083D4A7019601D3D4022F01
:1011200020E030E0490103C00894811C911CC401F7
:10113000CBD708171CF13AE583169104A9F71EC016
:1011400069857A858B859C8524E630E040E050E017
:1011500066D4A7019601B6D400E010E0822E02C04A
:101160000F5F1F4FC801B0D788161CF00A35110554
:10117000B9F72AE530E0201B310B01C094018980CA
:101180009A80AB80BC80411451046104710429F43D
:10119000B7FC1FC08AE590E01EC0141415041604A5
:1011A00017044CF4B7FC03C08AE590E00CC0C901F9
:1011B000825F9E4F10C0B7FC04C0C901865A9F4F82
:1011C0000AC08EE091E0821B930B05C080E090E0A6
:1011D00002C08EE091E09093E7038093E603C7019D
:1011E000B60125E331E040E050E019D428EE33E0C9
:1011F00040E050E067D469017A01232D30E040E0FF
:1012000050E0C701B6010BD4DC01CB018093E203AF
:101210009093E303A093E403B093E50390E3292EB6
:1012200094E0392E20E631E03A83298344E651E008
:101230005E834D8369E3E62E64E0F62E80E07AE07B
:10124000472E512C612C712C8D8780917C00807FE2
:1012500080937C0080917C008D84882980937C0021
:1012600080917A00806A80937A0080917A0080640D
:1012700080937A009D8580917A0084FFFCCF9D87C2
:1012800080917A00806180937A0080917A008F75D6
:1012900080937A006091780070917900D1016D930C
:1012A0007D931D0180E090E026E331E040E050E0D6
:1012B000B6D3A301920106D4E981FA816191FA8340
:1012C000E98370E080E090E0AAD3AD81BE812D91EA
:1012D000BE83AD8330E040E050E0F4D389019A0151
:1012E000480159016AE0B694A794979487946A9547
:1012F000D1F789869A86AB86BC8667010894C108B7
:10130000D108882D90E0982F8827990F990FA0E099
:10131000B0E048015901881A990AAA0ABB0AC50116
:10132000B40124E630E040E050E079D3DC01CB01A9
:10133000EAE0B695A79597958795EA95D1F7F601D6
:101340008083E985D701EC93FD85FF5FFD8782E00F
:10135000882E912CE80CF91CF43009F076CF80919E
:1013600076018F5F8093760180917601823378F0E9
:1013700010927601809174018F5F80937401809147
:10138000730190E001968170907080937301809159
:1013900074018C3338F010927401809175018F5F65
:1013A00080937501809175018C3310F01092750156
:1013B00093E9E92E91E0F92E80E0C82E4AC1F701A9
:1013C000E80FF91F1082019681329105C1F7CC20F8
:1013D000D1F583E991E060E046E251E0DBD783E9B3
:1013E00091E067E049E251E0D5D783E991E06EE012
:1013F0004CE251E0CFD7809175018A3028F480E328
:101400008093AE016CE101C06BE12091750130E089
:1014100040E050E083E991E006E111E0DBD7682F7E
:10142000809174018A3038F4E62FF0E0ED56FE4FDB
:1014300080E380836F5F2091740130E040E050E0F2
:1014400083E991E0D0C099249394C91409F040C075
:1014500084EB91E060E24EE251E09CD784EB91E0B6
:1014600060E040E0C6D784EB91E067E041E0C1D79F
:1014700020913D0484E6289F9001112480913C0432
:10148000280F311D41E0253F340790F429373105FD
:1014900090F02857304044E650E0249FC001259F3B
:1014A000900D349F900D11246CE771E0E4D205C0DB
:1014B00064E670E002C060E070E0262F30E040E0BB
:1014C00050E084EB91E06EE00FE211E083D7B5C00D
:1014D00052E0C516A9F480915F01882309F4ADC0DC
:1014E0008091D703882309F0A8C0809173018823D5
:1014F00009F4A3C085ED91E06AE041E351E09CC0AE
:1015000083E0C81631F580915F01882309F495C006
:101510008091D703882309F090C02091BB033091BC
:10152000BC034091BD035091BE0386EF91E064E09F
:1015300001E08CD7682F6E5F2091BF033091C0030C
:101540004091C1035091C20386EF91E000E07ED745
:1015500074C094E0C91609F048C02091CB033091C3
:10156000CC0340E050E087E192E060E06BD68091F0
:10157000D703882339F487E192E065E04DE351E039
:1015800009D70CC02091E2033091E3034091E403BA
:101590005091E50387E192E065E054D68091C9035C
:1015A000882351F02091CA0330E040E050E087E109
:1015B00092E067E147D606C087E192E067E14DE33C
:1015C00051E0E8D62091C3033091C4038091E00339
:1015D0009091E103281B390B442737FD4095542F88
:1015E00087E192E06CE12ED628C088E392E060E0CB
:1015F0004FE351E0CFD688E392E065E043E451E069
:10160000C9D69091D703682F6D5F992329F088E39D
:1016100092E047E451E004C088E392E049E451E0FD
:10162000B9D688E392E067E14BE451E0B3D688E3B2
:1016300092E06CE14DE451E0ADD6C394A1E2B0E09C
:10164000EA0EFB1EB6E0CB1621F428EE33E043E0B1
:1016500010C080E090E0B3CEF901E80FF91F1082CE
:10166000019688319105C1F74150285E3F4F4423D0
:1016700019F080E090E0F0CFE090E603F090E7030F
:101680008091CD039091CE03E81AF90A8BE0ABD993
:101690008091E2039091E303A091E403B091E5030C
:1016A0008A309105A105B10518F482E09CD96FCA72
:1016B0008091CB039091CC038A30910520F08091EA
:1016C0008701882351F485E065E041E121E127D9D4
:1016D00085E061E141E125E04FC0C701865A9F4F97
:1016E000F3D4082FC701F0D4E82F802F992787FD66
:1016F000909513E0880F991F1A95E1F724E630E0E2
:10170000B901CDD16B018E2F992787FD909503E00C
:10171000880F991F0A95E1F7B901C1D14B016C2DD2
:10172000082D055F8BE0E82EEC18655F8819402FC7
:101730002E2DF5D882E0482E512CC601B201AFD132
:10174000709561957F4F462F455FC401B201A7D1C7
:101750009B01309521953F4F255F802F6E2DDFD85F
:10176000C601B2019CD1462F455FC401B20197D199
:10177000262F255F802F6E2DD2D809CA1F920F9277
:101780000FB60F9211242F933F934F935F936F9354
:101790007F938F939F93AF93BF93EF93FF9388E2D1
:1017A0008A95F1F780914004909141044A99FBC0D9
:1017B000009709F48CC080914204813021F082307E
:1017C00009F085C053C02091920198E19A95F1F7F4
:1017D0008091430490E0BC0155E0660F771F5A9555
:1017E000E1F7680F791F80E090E030E0A901E5E0C3
:1017F000440F551FEA95E1F7420F531F4D565E4FB8
:101800006D557D4FFA01E80FF91F2081203221F03C
:10181000222311F0219A02C021980000FB01E80F59
:10182000F91F20812EBD0000000000000000000014
:1018300000000000000000000000000000000000A8
:10184000000000000000000001968132910509F0BF
:10185000D9CF0000000000000000000000000000E0
:101860000000000000001EBC219831C0E3E1F1E05F
:101870003197F1F700C000002091430430E080E090
:1018800090E028513C4FF901E80FF91F40814EBD0F
:10189000219A00000000000000000000000000008D
:1018A0000000000000000000000000000000000038
:1018B0000000000000000000000000000000000028
:1018C000489688349105F9F6219800001EBC1092C4
:1018D00042044091400450914104CA010196909302
:1018E0004104809340048E36910511F421E004C038
:1018F0008F36910519F422E0209372016091AB03B9
:101900007091AC03209168013091690186179707A7
:1019100080F08217930768F491E090934204861B4D
:101920008093430490916A01923009F043C08695F8
:101930002DC08217930769F582E080937201809130
:10194000920190E0019666E070E0A9D08093920148
:10195000FC01EE0FFF1FEE5AFE4F208131813093C4
:10196000AC032093AB0385599E4FFC01808180938B
:101970006A0190E043E0880F991F4A95E1F7820FD2
:10198000931F909369018093680181E080934304E1
:1019900011C0485650404831510560F492E0909390
:1019A00042048956F3CF893C910520F010924104FE
:1019B00010924004FF91EF91BF91AF919F918F9151
:1019C0007F916F915F914F913F912F910F900FBE3B
:1019D0000F901F9018951F920F920FB60F9211241F
:1019E0002F933F938F939F932091440430E08091F5
:1019F0004004909141042817390721F48BB198E0F5
:101A000089278BB980914004809344049F918F91E2
:101A10003F912F910F900FBE0F901F901895629FCE
:101A2000D001739FF001829FE00DF11D649FE00DD6
:101A3000F11D929FF00D839FF00D749FF00D659F37
:101A4000F00D9927729FB00DE11DF91F639FB00D36
:101A5000E11DF91FBD01CF011124089587FB082E58
:101A6000062687FD819567FD619569D00EF49195F5
:101A700007FC81950895AA1BBB1B51E107C0AA1F53
:101A8000BB1FA617B70710F0A61BB70B881F991F1F
:101A90005A95A9F780959095BC01CD01089597FBC3
:101AA000092E07260AD077FD04D0E5DF06D00020F6
:101AB0001AF4709561957F4F0895F6F7909581958A
:101AC0009F4F0895A1E21A2EAA1BBB1BFD010DC05A
:101AD000AA1FBB1FEE1FFF1FA217B307E407F507DE
:101AE00020F0A21BB30BE40BF50B661F771F881FBA
:101AF000991F1A9469F760957095809590959B0150
:101B0000AC01BD01CF01089597FB092E05260ED02B
:101B100057FD04D0D7DF0AD0001C38F4509540950B
:101B2000309521953F4F4F4F5F4F0895F6F79095B1
:101B30008095709561957F4F8F4F9F4F0895991BAA
:101B400079E004C0991F961708F0961B881F7A95B4
:101B5000C9F780950895FB01DC014150504030F0F9
:101B60008D910190801919F40020B9F7881B990B09
:101B70000895FB01DC014150504048F001900D9266
:101B80000020C9F701C01D9241505040E0F7089570
:101B9000DC01CB01FC01F999FECF06C0F2BDE1BD2D
:101BA000F89A319600B40D9241505040B8F708951C
:041BB000F894FFCFD7
:101BB40056005300570045004E002D2D3A2D2D2E72
:101BC4002D2D2D2D3F003A002E0047504747410050
:101BD4004750524D43006A31006A320069000025C3
:101BE400004E4F20484F4D4520504F53002D005379
:101BF4005044004C4F5300660067006800414C5449
:101C040000FF32004200AA00CD00FF001801FF01CE
:101C140001010101010106010200020102010102A8
:021C24000100BD
:00000001FF
