:1000000047C0BBCC60C05FC05EC05DC05CC05BC0B1
:100010005AC059C058C057C056C0D9CD54C053C09B
:1000200052C051C050C04FC04EC04DC04CC04BC05C
:100030004AC049C00002030507090A0C0E1011133B
:100040001516181A1C1D1F2122242527292A2C2D9C
:100050002F303234353638393B3C3E3F4042434402
:10006000454748494A4B4D4E4F50515253545556AF
:10007000575758595A5B5B5C5D5D5E5F5F606061BE
:1000800061616262626363636364646464646400A4
:1000900011241FBECFEFD4E0DEBFCDBF11E0A0E042
:1000A000B1E0E2E0FEE102C005900D92A437B10795
:1000B000D9F714E0A4E7B1E001C01D92A734B1075D
:1000C000E1F723D59CCE9CCF4F925F926F927F92A7
:1000D0008F929F92AF92BF92CF92DF92EF92FF9258
:1000E0001F93CF93DF9300D000D0CDB7DEB76B0165
:1000F0007C0197FD73C011E0C701B60120E432E432
:100100004FE050E0FDDD422E552466247724C701E0
:10011000B60120E137E240E050E0F2DD69837A8306
:100120008B839C83C301B2012CE330E040E050E0BC
:100130007FDD4B015C01C301B20120EC3DEB40EFE0
:100140005FEF76DD6C0D7D1D8E1D9F1D20E137E27A
:1001500040E050E0D5DD820E911CA11CB11CC50110
:10016000B4012CE330E040E050E062DD6B017C0143
:1001700069817A818B819C815BDD4B015C01C701C8
:10018000B60124E630E040E050E052DD6B017C0136
:10019000C501B40193DDC20ED31EE41EF51E1F3F40
:1001A00041F4F094E094D094C094C11CD11CE11CA3
:1001B000F11CC701B6012496DEBFCDBFDF91CF9100
:1001C0001F91FF90EF90DF90CF90BF90AF909F90E6
:1001D0008F907F906F905F904F900895F094E0948F
:1001E000D094C094C11CD11CE11CF11C1FEF84CF22
:1001F000A0E0B0E0EDEFF0E0A0CD2C01D62F49015A
:100200005A0189019A01B7FC71C0C1E00A30110599
:100210002105310594F09AE0C92ED12CE12CF12C66
:10022000C901B801A70196016BDD89019A01CF5F71
:100230000A301105210531059CF7B7FC55C08D2FFB
:1002400090E09C012C0F311D2132310534F081E208
:10025000CDB7DEB7E0E18DCD66C0480E591EB7FCC4
:100260004DC010E0320100E08AE0C82ED12CE12C14
:10027000F12C01C0082FC501B401A701960140DD92
:10028000605DF30161933F01802F8F5F49015A0147
:1002900012161306140615066CF31F3FC9F1E82F5A
:1002A000FF27E7FDF095E40DF51D10828150682FC2
:1002B0006695282F30E040E0842F90E0F201E80FAF
:1002C000F91F5081D901A81BB90BA40DB51D8C9144
:1002D00080835C934F5F641778F78C2F8D0FCDB7B9
:1002E000DEB7E0E146CD1FC0CF5FA9CF00271127C1
:1002F0009801081919092A093B0987CFB094A094DD
:1003000090948094811C911CA11CB11C1FEFAACF5A
:10031000E82FFF27E7FDF095E40DF51D8DE28083C2
:10032000802F8E5FBCCF0F931F93CF93DF938C01F1
:10033000D62FFA01DA010D900020E9F71197CA2FA4
:10034000C41B70E08C2F90E09B01280F391F2132D5
:1003500031057CF041E250E0C1E2C801860F971FF1
:10036000BF012EDD8C2F8D0FDF91CF911F910F914B
:100370000895AC01F2CF0F931F93CF93DF93EC015D
:1003800037DF682FCE01A801CEDFDF91CF911F911B
:100390000F9108950F931F93CF93DF93EC01E42FF8
:1003A000F0E0EE0FFF1FE65CFB4F1081218130E093
:1003B00040E050E01DDFFE01E80FF11D9EE290835A
:1003C000682F6F5F1A3030F4FE01E60FF11D90E3E5
:1003D00090836F5F212F30E040E050E0CE0100E0DD
:1003E00011E0C9DFDF91CF911F910F910895A0E037
:1003F000B0E0ECEFF1E09FCC1C01C62F69017A015F
:10040000211531054105510509F458C0CA01B9014A
:1004100020E432E44FE050E073DC29013A01552436
:1004200066247724C301B20120EC3DEB40EF5FEF7F
:10043000FFDB6C0D7D1D8E1D9F1DE0E18E2EE7E222
:100440009E2EA12CB12CA50194015ADCD22FC701FC
:10045000B601A501940154DC4B015C01002321F598
:100460001C141D041E041F048CF556E0C52E51E01B
:10047000D52EC1016C2FA301920106E111E07BDFB3
:10048000682F2D2F30E040E050E0C10108E111E07D
:1004900072DF682FC101A501940186016CDFCDB721
:1004A000DEB7E2E164CC1CC01C141D041E041F0452
:1004B00094F468E0C62E61E0D62EDBCF4AE051E02E
:1004C00032DFCDB7DEB7E2E152CC0AC034E0C32E52
:1004D00031E0D32ECECF42E0C42E41E0D42EC9CF9E
:1004E000FF920F931F93CF93DF93FF24F394809198
:1004F000D6038D3209F0FF24EF2DF0E0EA52FC4FD5
:10050000D0818D2F80538A3088F000E010E0980170
:10051000FF2099F561E070E080E090E0A90198018A
:1005200087DBCDB7DEB7E5E02FCC31C0CF2D00E0C3
:1005300010E09801C901B8012AE030E040E050E045
:1005400077DBDC01CB010D2F10E000531040222798
:1005500017FD2095322F080F191F2A1F3B1FCF5F51
:10056000EC2FF0E0EA52FC4FD0818D2F80538A307F
:1005700078F6CB30F8F2FF2069F26FEF7FEFCB0116
:10058000A901980155DBCDB7DEB7E5E0FDCBFF92C1
:100590000F931F93CF93DF93FF24F3948091D6039F
:1005A0008D3209F0FF24CF2D00E010E0980118C033
:1005B000C901B8012AE030E040E050E039DBDC015D
:1005C000CB010D2F10E000531040222717FD20957E
:1005D000322F080F191F2A1F3B1FCF5FCB3058F453
:1005E000EC2FF0E0EA52FC4FD0818D2F80538A30FF
:1005F000F8F2DE3291F3FF2061F461E070E080E018
:1006000090E0A901980114DBCDB7DEB7E5E0BCCBE3
:100610000AC06FEF7FEFCB01A901980109DBCDB7CD
:10062000DEB7E5E0B1CB8091D403882381F18091DE
:10063000D303882359F180916001853689F086368D
:1006400008F044C0843009F475C0853008F07EC0DD
:10065000823009F447C0833008F021C18130B1F401
:100660003FDFDC01CB018093850190938601A0934D
:100670008701B0938801089580E090E0DC0121E0DB
:100680003091D503381320E020939301089586ED2F
:1006900093E06AE171E045E050E084DB009781F08F
:1006A00086ED93E060E271E045E050E07BDB00978F
:1006B00069F782E08093D40384E680936001089513
:1006C00081E08093D4031092600108958A36B1F0DE
:1006D0008B3608F04EC0883609F4E1C0893650F5F3
:1006E0008736A1F654DFDC01CB0180937B01909328
:1006F0007C01A0937D01B0937E0108958091D60383
:10070000873521F680917F0190918001A091810130
:10071000B0918201B095A095909581959F4FAF4F74
:10072000BF4F80937F0190938001A0938101B0938C
:10073000820108952CDFDC01CB0180937F0190932F
:100740008001A0938101B09382010895863009F45D
:10075000A0C0863098F2873009F495C0893009F03E
:1007600095CFBEDEDC01CB019093840180938301A1
:1007700008958C3609F47FC08C3608F468C08D3635
:1007800009F459C0883C09F081CF2091D603222377
:1007900009F472CFE7EDF3E080E090E0DC0115C0F2
:1007A00030E027533040A901662757FD6095762F2A
:1007B000840F951FA61FB71F2191222309F45FCF35
:1007C00033E0E23EF30709F45ACF880F991FAA1FBE
:1007D000BB1F880F991FAA1FBB1F880F991FAA1F35
:1007E000BB1F880F991FAA1FBB1F322F31543630F1
:1007F000B8F2322F3156363068F430E027553040A9
:10080000A901662757FD6095762F840F951FA61FB7
:10081000B71FD2CF322F30533A3070F630E020532A
:100820003040A901662757FD6095762F840F951FEC
:10083000A61FB71FC1CF54DEDC01CB0180938F010F
:1008400090939001A0939101B0939201089548DE96
:10085000AB01BC012FEC31E0429FC001439F900DE2
:10086000529F900D11246AEF70E001DA70938C01B1
:1008700060938B01089534DEDC01CB0190938E01EF
:1008800080938D0108952CDEDC01CB0180938A01D9
:10089000089526DEDC01CB018093890108958091C3
:1008A000D603833509F0F2CE80917B0190917C01D3
:1008B000A0917D01B0917E01B095A0959095819514
:1008C0009F4FAF4FBF4F80937B0190937C01A093CC
:1008D0007D01B0937E010895883110F4683108F0ED
:1008E0000895482F46954695469550E08095877027
:1008F00021E030E002C0220F331F8A95E2F7FA01AF
:10090000EE0FFF1FE40FF51FEE0FFF1FEE0FFF1F8F
:10091000EE0FFF1FE60FF11DE651FC4F8081822B89
:1009200080830895A0E0B0E0E7E9F4E00ECA982FD4
:10093000C42F022F10E0E62EFF24C42EDD24A82FA2
:10094000B0E0A8014E195F0957FD52C0F601EA1B3D
:10095000FB0BF7FD55C0D1E0E417F507B4F1D0E08B
:100960006801D701C917C8F1AD01D6016A01621744
:10097000E0F1EE24EA94C91720F1FC2EF91A1F2D9C
:10098000F7FC46C01595062FAC19BD09B7FD3CC054
:10099000DA2EC92E09C0802F6C2D9EDF1D1917FD80
:1009A0000BC0C394CC1568F0DD23A9F78C2D602F04
:1009B00093DF1D1917FFF5CF0E0D1F0DC394CC1536
:1009C00098F7CDB7DEB7E8E0DCC98C2FC22F282F0F
:1009D000892F962F682FC91738F6862F622F282F58
:1009E000892F9C2FC82F621720F6EE24E394C3CFE3
:1009F000509541955F4FF601EA1BFB0BF7FFABCF1C
:100A0000F095E195FF4FA7CFB095A195BF4FC0CF0F
:100A10001F5FB8CFA5E0B0E0EFE0F5E099C9182F6F
:100A200081E0982F911B9D838C83812F8195880F66
:100A30008B831A8219830BE0F02EF10E8BE06F2D61
:100A40004BDF0BE0011B8BE0602F46DF8F2D6BE04F
:100A500043DF802F6BE040DF9A81898198170CF08B
:100A600051C01BE08D8187FD0AC089818150898337
:100A70008B818E5F8B839D818B81890F8D838A8192
:100A80008F5F8A838C818E5F8C839D818C81890F9F
:100A90008D838A816981655F855F1EDF8A816981B7
:100AA000655F912F981B892F17DF8A819981612FAC
:100AB000691B855F11DF8A819981612F691B912FE5
:100AC000981B892F09DF89816A81655F855F04DF53
:100AD00089816A81655F912F981B892FFDDE89814D
:100AE0009A81612F691B855FF7DE89819A81612F69
:100AF000691B912F981B892FEFDE9A8189819817A6
:100B00000CF4B0CF2596E5E03FC9A6E1B0E0EAE8F5
:100B1000F5E011C920E12BB988E08AB929988CE069
:100B200084B980916F00816080936F008091810013
:100B300082608093810083E08093690031E03DBB57
:100B400080E880BF10927B001EBC8DB58E7F8DBD6E
:100B500084E58CBDE091B801F0E0EE0FFF1FEC5A88
:100B6000FE4F808191819093D2038093D1031092A4
:100B70007E0080917C00806480937C0080917A006C
:100B8000866080937A0010927B003093C50087E3E3
:100B90008093C40086E08093C2002093C1007894C3
:100BA00061EC262E62E0362E8091C00087FDDAC10E
:100BB0004C995BC181E08093790180917A01833304
:100BC000A8F05B9A80919301882381F0809189013C
:100BD000882361F0A4E9B1E0EEE9F1E08AE0019058
:100BE0000D928150E1F781E08093B701809174010B
:100BF000823009F447C1809174018130A9F61092C6
:100C0000740180917901882329F080917A018F5FA6
:100C100080937A0180917801882309F0A9C080919E
:100C20008901882309F4A6C35B9A8091B7018823C0
:100C300009F0A9C3F2E36F2EF4E07F2EA2E64A2E5C
:100C4000A1E05A2E86E691E09E838D838BE394E0AB
:100C50001982BAE08B2E912CA12CB12C988B8F8706
:100C600080917C00807F80937C0080917C00C98093
:100C70008C2980937C0080917A00806A80937A002E
:100C800080917A00806480937A002F8538898091E2
:100C90007A0084FFFCCF388B2F8780917A008061A7
:100CA00080937A0080917A008F7580937A002091EA
:100CB000780030917900D3012D933D933D0146E3B7
:100CC00051E0A7D7A5019401F9D7F20161912F0155
:100CD00070E080E090E0ACD7AD81BE812D91BE8305
:100CE000AD8330E040E050E0E9D789019A01680126
:100CF00079018AE0F694E794D794C7948A95D1F75E
:100D0000CB86DC86ED86FE864F8558894150504063
:100D10005A8749878C2D90E0982F8827990F990F33
:100D2000A0E0B0E068017901C81AD90AEA0AFB0A12
:100D3000C701B60124E630E040E050E079D7DC019D
:100D4000CB01EAE0B695A79597958795EA95D1F7F7
:100D5000E985FA858083EB85AF85B889EC93F981C5
:100D6000FF5FF9831296B88BAF87F43009F078CF24
:100D7000809178018F5F8093780180917801823330
:100D800078F010927801809176018F5F80937601E0
:100D90008091750190E0019681709070809375014B
:100DA000809176018C3338F0109276018091770132
:100DB0008F5F80937701809177018C3310F01092D0
:100DC000770191E080E0D92EE82E2E2D30E081E2EF
:100DD00090E0289FF001299FF00D389FF00D11241D
:100DE000E754FE4F81E211928150E9F7EE2009F4B9
:100DF000E1C0CC24C394EC1409F439C252E0E516E6
:100E000009F4F7C163E0E61609F40BC274E0E716D3
:100E100009F474C28EE592E060E041E451E083DAC7
:100E20008EE592E065E045E451E07DDA9091B7010E
:100E3000682F6D5F992309F477C38EE592E049E44A
:100E400051E071DA8EE592E067E14DE451E06BDA52
:100E50008EE592E06CE14FE451E065DA86E0D81669
:100E600009F4E5C0E394D394B0CF80917901811166
:100E70005B981092790110927A018091740182300E
:100E800009F0B9CE109274012091B80130E081E2EE
:100E900090E0289FD001299FB00D389FB00D1124FC
:100EA000A754BE4F4FE7E42E42E0F42EF70180E056
:100EB00090E013C02B3508F083C1822F90E0880F9B
:100EC000991F880F991F880F991F8852914081930D
:100ED000919342E0E13CF40769F02D91203211F04A
:100EE000222341F78FEF9FEF8193919342E0E13C02
:100EF000F40799F700E010E0B8E0DB2ECC24CA94A8
:100F0000D7018D909D907D0180915301992787FD98
:100F100090958816990671F0BFEF8B16BFEF9B0670
:100F200009F45EC181EC92E0B40148E050E057D78B
:100F3000809253018091C102F801E753FD4FA2EC6A
:100F4000B2E001C08D918083B19632E0A93CB30735
:100F5000C9F70F5F1F4F0132110591F68091C00054
:100F600087FF26CE0091C600909160019F3F09F453
:100F7000F9C2043209F4F9C2053208F006C30A3096
:100F800009F423C30D3009F420C38091D303E82F63
:100F9000F0E0EA52FC4F0083983C29F09091D50391
:100FA00090279093D5038A3008F002CE8F5F80930C
:100FB000D303FECD89EB91E060E046E251E0B3D986
:100FC00089EB91E067E049E251E0ADD989EB91E02E
:100FD0006EE04CE251E0A7D9809177018A3008F0A9
:100FE0001EC180E38093D4016CE12091770130E051
:100FF00040E050E089EB91E006E111E0BCD9682FB8
:10100000809176018A3038F4E62FF0E0E754FE4F05
:1010100080E380836F5F2091760130E040E050E014
:1010200089EB91E0E5D886E0D81609F01BCF80E087
:1010300090E0FC01EE0FFF1FE80FF91FEE0FFF1FFE
:10104000EE0FFF1FEE0FFF1FE651FC4F20E0119245
:101050002F5F2831E1F701968330910551F7E09039
:10106000E803F090E9030091B0011091B1018BE029
:10107000D1DC8091E4039091E503A091E603B09167
:10108000E7038A309105A105B10508F44AC28091B1
:10109000AE019091AF018A30910508F424C180918E
:1010A0008901882309F41FC1D701A01BB10B8D0151
:1010B000CD01865A9F4F68E671E0D9D5843B9105F2
:1010C00008F43AC2845B90404FEF8A35910530F0C6
:1010D00024EB30E0F901E81BF90BCF018C5C9F4F4A
:1010E000FC018491849F202D1124C80168E671E0E1
:1010F000BED5843B910508F41DC2845B90403FEF50
:101100008A35910530F064EB70E06B01C81AD90A9A
:10111000C6018C5C9F4FFC018491839F402D11245C
:10112000822F992787FD9095880F991F880F991F07
:10113000880F991F24E630E0B901ADD54B01842F0B
:10114000992787FD9095880F991F880F991F880F01
:10115000991FB901A0D58B01682DBBE0EB2EE00EE5
:101160008BE0D82ED818655F801B4E2D2D2DDADB35
:10117000C40197FC7FC395958795909581959F4F66
:10118000482F455F980117FD72C3C9019595879552
:10119000909581959F4F282F255F8E2D6D2DC2DB59
:1011A00097FC61C3A40155954795455F17FD58C34A
:1011B00015950795202F255F8E2D6D2DB3DBF4CC73
:1011C000322F3556393008F082CE822F90E0880FCA
:1011D000991F880F991F880F991F8057914077CECC
:1011E000F1012D2D11922A95E9F7C092530180E06B
:1011F000A3CE80916101882309F430CE8091B7019C
:10120000882309F02BCE80917501882309F42ACE1A
:101210008BEF91E06AE043E351E085D823CE6BE1A8
:10122000E4CE80916101882309F418CE8091B70142
:10123000882309F013CE20919E0130919F014091A7
:10124000A0015091A1018CE192E064E001E0CFD8CF
:10125000682F6E5F2091A2013091A3014091A401FB
:101260005091A5018CE192E000E0C1D8FBCD8AED60
:1012700091E06EE14EE251E056D88AED91E060E0F7
:1012800040E088D88AED91E067E041E083D8209182
:101290003F0484E6289F9001112480913E04280F8A
:1012A000311D41E0253F340708F048C12937310599
:1012B00008F4A8C22857304044E650E0249FC001FB
:1012C000259F900D349F900D11246CE771E0CFD4D1
:1012D0009B0130E040E050E08AED91E06EE001E3F8
:1012E00011E049D8BFCD85E065E041E121E11ADB9D
:1012F00085E061E141E125E015DB56CC2091AE01AE
:101300003091AF0140E050E08DE392E060E070D7B3
:101310008091B701882309F41EC12091E403309124
:10132000E5034091E6035091E7038DE392E065E029
:101330005FD78091AC01882309F4ECC02091AD0106
:1013400030E040E050E08DE392E067E151D720913A
:10135000A6013091A70180919C0190919D01281BCD
:10136000390B442737FD4095542F8DE392E06CE113
:101370003FD774CD8BB198E089278BB98091B701A5
:10138000882309F457CCC0909E01D0909F01E09033
:10139000A001F090A1014090A2015090A3016090A3
:1013A000A4017090A5018090940190909501A09067
:1013B0009601B090970140919801509199016091E8
:1013C0009A0170919B0149835A836B837C83C81473
:1013D000D904EA04FB0409F44FC2D701C601880D01
:1013E000991DAA1DBB1DB7FF07C0B095A09590958C
:1013F00081959F4FAF4FBF4FBC01CD0120E834E82E
:101400004EE150E05BD4C901865A9F4F68E671E017
:101410002ED4843B910508F4F9C1845B90405FEFC2
:101420005D838A35910530F024EB30E0A901481B3B
:10143000590BCA018C5C9F4FFC014491C701B60156
:101440004E8B42D68B019C01C501B4012B8B3C8B8A
:101450003BD64B015C01C301B20136D66B017C0166
:1014600069817A818B819C812FD66C197D098E09C7
:101470009F092B893C8924013501401A510A620ACF
:10148000730A4E89CD804C9D202D1124332727FDD2
:101490003095432F532FCCD324E630E040E050E08A
:1014A0002FD449015A01A2E0CA2ED12CE12CF12CF3
:1014B00001E024C04F3F3FEF530730E0630730E0C7
:1014C000730768F4D301C20177FC3DC08F3FEFEF93
:1014D0009E07E0E0AE07E0E0BE0708F4B9C0C50132
:1014E000B401A70196010CD449015A01C301B2010C
:1014F000A701960105D429013A01000FB501A40105
:10150000B7FED8CF44275527BA01481959096A09A7
:101510007B09D0CF8DE392E067E14FE351E003D741
:1015200016CF82E077DA40CB8EE592E04BE451E0D3
:10153000FAD688CC31E0E4CD41E0C7CD24E630E0F6
:1015400040E050E0C9CE88279927DC01841995092D
:10155000A609B709BBCF8DE392E065E04FE351E008
:10156000E2D6E7CE043209F023CB1092D3031092D7
:10157000D4031092D50310926001E6EDF3E01192CE
:1015800023E0E13EF207D9F713CB0A3241F00C32E7
:1015900009F0FBCC8091D50380278093D50343D8F5
:1015A000E6EDF3E0119233E0E13EF307D9F7109254
:1015B000D303809160018F5F809360010A3209F04C
:1015C000F7CA88EC80936001F3CA2DD88FEF80931F
:1015D000600180919301882309F4EACAAEE9B1E081
:1015E000EBE7F1E089E101900D928150E1F781E0B4
:1015F0008093E10380917601909177019093E303CA
:101600008093E2038091AE019091AF0121E083309D
:10161000910508F020E0209361012091B701222379
:1016200009F0C6CA2091AC01222309F4C1CA8A304C
:10163000910508F4BDCAA4E9B1E0EEE9F1E08AE061
:1016400001900D928150E1F781E08093B701B0CA1B
:101650000D8B4B875C876D877E878F87988BA98BD7
:10166000BA8BC501B401A5019401E2D26B017C01E2
:10167000C301B201A3019201DBD28B019C01892F2E
:101680009927AA27BB274F2D552766277727840F31
:10169000951FA61FB71F8F3F9105A105B10509F042
:1016A00008F453C1F694E794D794C794F694E7945A
:1016B000D794C7943695279517950795369527950E
:1016C0001795079542E050E060E070E04D835E833F
:1016D0006F837887D701C601800F911FA21FB31FA8
:1016E00089839A83AB83BC836C017D01F694E79474
:1016F000D794C794C114D104E104F10461F11A86AE
:1017000019860AC0A985BA851196BA87A987AA3110
:10171000B105E9F06801790169817A818B819C8149
:10172000A7019601CBD289019A010C0D1D1D2E1D1A
:101730003F1D3695279517950795C01AD10AE20ADD
:10174000F30A92E0C916D104E104F104D8F6098342
:101750001A832B833C8369817A818B819C812D81C3
:101760003E814F81588564D26B017C016115710502
:101770008105910509F44DC02F85388949895A8919
:101780006B857C858D859E85621773078407950719
:1017900008F494C0CA01B90124E630E040E050E00A
:1017A00047D2A70196018AD2522F20E030E041E0D3
:1017B00080E090E008E611E059838C5C9F4FFC01CB
:1017C0008491849F402D1124F981F4170CF46BC08F
:1017D0002A35310509F467C02F5F3F4FC901B801B1
:1017E00046D2843B910560F0845B90404FEF8A3590
:1017F000910518F3A4EBB0E0A81BB90BCD01DDCF28
:1018000041E0F5CF20E030E0A90166CD21E02D8355
:1018100008CE80E090E09093E9038093E803C7014D
:10182000B60125E331E040E050E002D228EE33E09B
:1018300040E050E043D269017A016D89262F30E003
:1018400040E050E0C701B601F3D1DC01CB01809349
:10185000E4039093E503A093E603B093E703EAC99A
:101860000F5F1F4FA5CC0894811C911C9BCC2F5F50
:101870003F4F8BCC01967FCC441655066606770603
:1018800009F0ABCD1092E4031092E5031092E60349
:101890001092E7031092E9031092E803CBC92AE5FE
:1018A00030E0201B310B411451046104710409F034
:1018B0003DC0B7FC47C08AE590E0ADCF6B857C8525
:1018C0008D859E8524E630E040E050E0B1D1A7014F
:1018D0009601F4D1522F41E000E010E080E090E06A
:1018E00028E631E059838C5C9F4FFC018491849FF2
:1018F000402D1124F981F41794F20A35110579F27B
:101900000F5F1F4FC801B901B2D1843B910560F050
:10191000845B90404FEF8A35910528F364EB70E0CB
:10192000681B790BCB01DFCF41E0F5CF1414150410
:1019300016041704BCF4B7FC11C08AE590E0821BC2
:10194000930B69CF8EE091E066CF61E070E080E0BC
:1019500090E06D837E838F839887BCCEC901825FC0
:101960009E4F59CFB7FC04C0C901865A9F4F53CF31
:101970008EE091E0821B930B4ECF1F920F920FB619
:101980000F9211242F933F934F935F936F937F9305
:101990008F939F93AF93BF93EF93FF9388E28A95C2
:1019A000F1F74A9981C06091420470914304611536
:1019B000710509F439C080914404813009F492C062
:1019C000823009F031C0E3E1F1E03197F1F700C076
:1019D00000002091450430E080E090E026513C4F2B
:1019E000F901E80FF91F40814EBD219A0000000067
:1019F00000000000000000000000000000000000E7
:101A000000000000000000000000000000000000D6
:101A10000000000000000000000048968834910596
:101A2000F9F6219800001EBC10924404CB010196E7
:101A300090934304809342048E36910509F440C08C
:101A40008F36910519F422E0209374014091D1035F
:101A50005091D20320916A0130916B018417950750
:101A600018F08217930780F18217930709F481C059
:101A7000685670406831710530F492E090934404E8
:101A8000895680934504FF91EF91BF91AF919F914B
:101A90008F917F916F915F914F913F912F910F9017
:101AA0000FBE0F901F9018958091420490914304AF
:101AB000893C910540F31092430410924204E3CF15
:101AC00021E020937401C2CF91E090934404841BE1
:101AD0008093450490916C019230A9F6869580938D
:101AE0004504D1CF2091B80198E19A95F1F7A091E2
:101AF000450430E081E290E0289FF001299FF00D3D
:101B0000389FF00D1124E754FE4F81E2A89FD001C9
:101B10001124A753BD4F80E017C0219A9D919EBD0F
:101B200000000000000000000000000000000000B5
:101B300000000000000000000000000000000000A5
:101B400000008F5F813241F09191903211F0992322
:101B500021F721980000E2CF000000000000000003
:101B60000000000000000000000000001EBC2198E2
:101B70005BCF82E0809374018091B80190E0019680
:101B800066E070E088D08093B801FC01EE0FFF1F83
:101B9000EC5AFE4F208131813093D2032093D10340
:101BA00083599E4FFC01808180936C0190E0880FE7
:101BB000991F880F991F880F991F820F931F909369
:101BC0006B0180936A0181E0809345045CCF1F9292
:101BD0000F920FB60F9211242F933F938F939F93E1
:101BE00080914204909143042091460430E02817EC
:101BF000390721F42BB138E023272BB98093460411
:101C00009F918F913F912F910F900FBE0F901F903A
:101C10001895539FC001429FB001529F700D811DC6
:101C20001124911D349F700D811D1124911D089563
:101C3000629FD001739FF001829FE00DF11D649FB0
:101C4000E00DF11D929FF00D839FF00D749FF00D3C
:101C5000659FF00D9927729FB00DE11DF91F639FDD
:101C6000B00DE11DF91FBD01CF0111240895AA1B7C
:101C7000BB1B51E107C0AA1FBB1FA617B70710F077
:101C8000A61BB70B881F991F5A95A9F780959095A9
:101C9000BC01CD01089597FB092E07260AD077FDD8
:101CA00004D0E5DF06D000201AF4709561957F4FCF
:101CB0000895F6F7909581959F4F0895A1E21A2E09
:101CC000AA1BBB1BFD010DC0AA1FBB1FEE1FFF1FE0
:101CD000A217B307E407F50720F0A21BB30BE40B30
:101CE000F50B661F771F881F991F1A9469F7609577
:101CF0007095809590959B01AC01BD01CF01089531
:101D000097FB092E05260ED057FD04D0D7DF0AD049
:101D1000001C38F450954095309521953F4F4F4F1A
:101D20005F4F0895F6F790958095709561957F4F78
:101D30008F4F9F4F08952F923F924F925F926F92D5
:101D40007F928F929F92AF92BF92CF92DF92EF924B
:101D5000FF920F931F93CF93DF93CDB7DEB7CA1BCC
:101D6000DB0B0FB6F894DEBF0FBECDBF09942A88F7
:101D7000398848885F846E847D848C849B84AA849F
:101D8000B984C884DF80EE80FD800C811B81AA812C
:101D9000B981CE0FD11D0FB6F894DEBF0FBECDBFF7
:101DA000ED010895FB01DC014150504030F08D9170
:101DB0000190801919F40020B9F7881B990B089538
:101DC000FB01DC014150504048F001900D92002091
:101DD000C9F701C01D9241505040E0F70895DC0161
:101DE000CB01FC01F999FECF06C0F2BDE1BDF89A26
:101DF000319600B40D9241505040B8F70895F894D0
:021E0000FFCF12
:101E020056005300570045004E002D2D3A2D2D2E21
:101E12002D2D2D2D3F003A002E00475047474100FF
:101E22004750524D43006A31006A320069004D55F5
:101E32000025004E4F20484F4D4520504F53002D56
:101E420000535044004C4F53006600670068004145
:101E52004C5400FF32004200AA00CD00FF001801DE
:101E6200FF0101010101010106010200020102015B
:041E72000102010068
:00000001FF
