:1000000047C0D1CD60C05FC05EC05DC05CC05BC09A
:100010005AC059C058C057C056C0F8CE54C053C07B
:1000200052C051C050C04FC04EC04DC04CC04BC05C
:100030004AC049C00002030507090A0C0E1011133B
:100040001516181A1C1D1F2122242527292A2C2D9C
:100050002F303234353638393B3C3E3F4042434402
:10006000454748494A4B4D4E4F50515253545556AF
:10007000575758595A5B5B5C5D5D5E5F5F606061BE
:1000800061616262626363636364646464646400A4
:1000900011241FBEC0E0D4E0DEBFCDBF11E0A0E060
:1000A000B1E0EAEEFFE102C005900D92AC37B10776
:1000B000D9F714E0ACE7B1E001C01D92A835B10753
:1000C000E1F7A2D590CF9CCF2F923F924F925F92B3
:1000D0006F927F928F929F92AF92BF92CF92DF9258
:1000E000EF92FF920F931F93DF93CF9300D000D036
:1000F0000F92CDB7DEB77B018C0197FD7BC0E1E0AD
:10010000E983C801B70120E432E44FE050E023DF87
:10011000A22EBB24CC24DD2480E1682E87E2782E39
:10012000812C912CC801B701A401930114DF6A83CB
:100130007B838C839D83C601B5012CE330E040E0D6
:1001400050E095DE1B012C01C601B50120EC3DEB12
:1001500040EF5FEF8CDE6E0D7F1D801F911FA401AD
:100160009301F9DE220E311C411C511C6A817B81F6
:100170008C819D812CE330E040E050E078DE5B0133
:100180006C01C201B10120E737E140E050E06FDED1
:100190007B018C01C601B50124E630E040E050E06F
:1001A000B8DEE20EF31E041F151FF981FF3F41F474
:1001B00010950095F094E094E11CF11C011D111DB7
:1001C000C801B7010F900F900F900F900F90CF9133
:1001D000DF911F910F91FF90EF90DF90CF90BF9034
:1001E000AF909F908F907F906F905F904F903F90D7
:1001F0002F90089510950095F094E094E11CF11C67
:10020000011D111D8FEF89837CCF4F925F926F92FA
:100210007F928F929F92AF92BF92CF92DF92EF9296
:10022000FF920F931F93DF93CF930F92CDB7DEB75B
:100230002C01C62E79018A0117FD7AC02A303105BA
:10024000410551050CF491C0DD24D3946AE0862E5B
:10025000912CA12CB12CCA01B901A50194017BDE1E
:10026000D3942A30310541055105ACF717FD5EC026
:100270008C2D90E09C012D0D311D213231050CF0AB
:1002800053C0480E591E17FD5BC0198252019AE0F7
:10029000692E712C812C912CC801B701A401930106
:1002A0005ADE605DF50161935F018E2F841979013B
:1002B0008A01121613061406150674F3F981FF3F1E
:1002C00009F449C0E82FFF27E7FDF095E40DF51D7F
:1002D00010828150682F6695282F30E040E0842FEF
:1002E00090E0D201A80FB91F5C91F901E81BF90B4E
:1002F000E40DF51D80818C9350834F5F641778F770
:100300008D2D8C0D0F90CF91DF911F910F91FF904C
:10031000EF90DF90CF90BF90AF909F908F907F90A5
:100320006F905F904F90089581E2ECCFD394A0CF6F
:1003300022273327A9012E193F09400B510B7ECFED
:1003400010950095F094E094E11CF11C011D111D25
:100350006FEF69839BCFE82FFF27E7FDF095E40D52
:10036000F51D9DE290838F5FADCFDD24D3947ECFCA
:100370000F931F939C01162FFA01DA010D900020B4
:10038000E9F711970A2F041B402F50E0862F90E0C9
:10039000BA01680F791F613271051CF041E250E02B
:1003A00001E2820F931FBF01FFDD802F810F1F919C
:1003B0000F9108950F931F93CF93DF93EC0125DFE7
:1003C000682FCE01A801D4DFDF91CF911F910F914B
:1003D00008956F927F928F929F92AF92BF92CF9229
:1003E000DF92EF92FF920F931F93CF93DF93EC0175
:1003F000162F211531054105510509F49EC0002332
:1004000009F063C012161306140615060CF099C005
:10041000E4E06E2EE1E07E2E69017A0157FDA4C072
:10042000C701B60120E432E44FE050E094DD822EB3
:100430009924AA24BB24C501B40120EC3DEB40EF74
:100440005FEF15DD6C0D7D1D8E1D9F1D24E630E0D8
:1004500040E050E00CDD2CE330E040E050E059DDBE
:1004600069017A0180ED9DE1A0E0B0E0C80ED91EDF
:10047000EA1EFB1ECE01612FA501940104E111E0EB
:1004800099DF682F90E1C91697E2D90690E0E90656
:1004900090E0F90630F4CE0120E030E0A901B5DEAD
:1004A000682FCE01A7019601830184DFDF91CF91F0
:1004B0001F910F91FF90EF90DF90CF90BF90AF9082
:1004C0009F908F907F906F900895121613061406D8
:1004D0001506E4F5A0E06A2EA1E07A2E69017A0102
:1004E00057FD39C0C701B60120E432E44FE050E0C7
:1004F00032DD822E9924AA24BB24C501B40120EC4C
:100500003DEB40EF5FEFB3DC6C0D7D1D8E1D9F1D3D
:1005100024E630E040E050E0AADC2CE330E040E0AC
:1005200050E0F7DC69017A018DE494E1A0E0B0E0ED
:10053000C80ED91EEA1EFB1E9DCF48E051E018DF11
:10054000B5CF76E0672E71E0772E66CFF2E06F2EA2
:10055000F1E07F2EC3CFF094E094D094C094C11CFE
:10056000D11CE11CF11CBECFF094E094D094C09457
:10057000C11CD11CE11CF11C53CFFF920F931F93A0
:10058000FF24F3948091B9038D3209F0FF24EF2DFD
:10059000F0E0E754FC4F0081802F80538A3070F0E8
:1005A00020E030E0A901FF2071F561E070E080E01B
:1005B00090E05DDC1F910F91FF9008951F2D20E0CA
:1005C00030E0A901CA01B9012AE030E040E050E082
:1005D0004EDC202F30E020533040442737FD40953B
:1005E000542F260F371F481F591F1F5FE12FF0E0C0
:1005F000E754FC4F0081802F80538A30A0F61B30D7
:1006000008F3FF2091F26FEF7FEFCB0130DC1F91F9
:100610000F91FF900895883110F4683108F0089523
:10062000482F46954695469550E08095877021E085
:1006300030E002C0220F331F8A95E2F7FA01EE0F75
:10064000FF1FE40FF51FEE0FFF1FEE0FFF1FEE0F52
:10065000FF1FE60FF11DED5AFC4F8081822B808336
:100660000895FF920F931F93DF93CF9300D000D094
:100670000F92CDB7DEB7182F81E0982F911B998389
:100680008A83812F8195880F8B831C821D839BE039
:10069000F92EF10E8BE06F2DBEDF0BE0011B8BE01E
:1006A000602FB9DF8F2D6BE0B6DF802F6BE0B3DFFB
:1006B0009C818D8198170CF051C01BE0898187FDCA
:1006C0000AC08D8181508D838B818E5F8B83998150
:1006D0008B81890F89838C818F5F8C838A818E5F68
:1006E0008A8399818A81890F89838C816D81655F75
:1006F000855F91DF8C816D81655F912F981B892FBC
:100700008ADF8C819D81612F691B855F84DF8C81ED
:100710009D81612F691B912F981B892F7CDF8D8113
:100720006C81655F855F77DF8D816C81655F912F5F
:10073000981B892F70DF8D819C81612F691B855FDC
:100740006ADF8D819C81612F691B912F981B892FF6
:1007500062DF9C818D8198170CF4B0CF0F900F90C1
:100760000F900F900F90CF91DF911F910F91FF90FD
:100770000895AF92BF92CF92DF92EF92FF920F93C4
:100780001F93CF93DF93D42E422F50E0E62EFF2409
:10079000ED2DF0E0A82FB0E08A010E191F0917FD1A
:1007A0005FC0EF01CA1BDB0BD7FD62C0CC24C39432
:1007B000C017D1070CF43FC0CC24FA01D701D816DA
:1007C00008F442C0AD01DF01FA01621708F445C028
:1007D000AA24AA94D81620F1BD2CB81AEB2CB7FC89
:1007E0004FC0E594162FAE1BBF0BB7FD45C0FA2EC8
:1007F000082F09C0812F602F0EDFEF18E7FC0BC018
:100800000F5FD01668F0CC20A9F7802F612F03DF8F
:10081000EF18E7FEF5CF1A0DEB0C0F5FD01698F727
:10082000DF91CF911F910F91FF90EF90DF90CF90CC
:10083000BF90AF9008959D2DD22E292F982F862FEF
:10084000692FD81608F0BECF962F622F292F982F28
:100850008D2DD92E621708F0BBCFAA24A394BACF4E
:10086000109501951F4FEF01CA1BDB0BD7FF9ECFE1
:10087000D095C195DF4F9ACFB095A195BF4FB7CF17
:10088000E394AFCFFF920F931F93FF24F3948091D3
:10089000B9038D3209F0FF241F2D20E030E0A901BB
:1008A00016C0CA01B9012AE030E040E050E0DFDACA
:1008B000202F30E020533040442737FD4095542FFF
:1008C000260F371F481F591F1F5F1B3058F4E12F99
:1008D000F0E0E754FC4F0081802F80538A3008F30A
:1008E0000E3291F3FF2049F461E070E080E090E087
:1008F000BEDA1F910F91FF9008956FEF7FEFCB014C
:10090000B6DA1F910F91FF9008958091B703882365
:1009100071F18091B603882349F180917201853687
:1009200089F0863608F042C0843009F471C0853001
:1009300008F078C0823009F445C0833008F00DC15A
:100940008130A1F41ADE6093A7037093A80380930B
:10095000A9039093AA03089580E090E0DC0121E0D0
:100960003091B803381320E02093B503089589EB44
:1009700093E066E171E045E050E008DB009781F02C
:1009800089EB93E06CE171E045E050E0FFDA00971D
:1009900069F782E08093B70384E68093720108953B
:1009A00081E08093B7031092720108958A36A1F016
:1009B0008B3608F048C0883609F4CFC0893640F538
:1009C0008736A1F65FDF60939D0370939E0380934B
:1009D0009F039093A00308958091B903873531F662
:1009E0008091A1039091A203A091A303B091A403CD
:1009F000B095A095909581959F4FAF4FBF4F809335
:100A0000A1039093A203A093A303B093A40308951A
:100A100039DF6093A1037093A2038093A3039093A3
:100A2000A4030895863009F494C08630A8F2873074
:100A300009F48BC0893009F099CF9FDD7093A6032C
:100A40006093A50308958C3609F479C08C3608F4B8
:100A500063C08D3609F456C0883C09F087CF2091D9
:100A6000B903222309F478CFEAEBF3E080E090E0C9
:100A7000DC0114C030E027533040442737FD409557
:100A8000542F820F931FA41FB51F2191222309F415
:100A900066CF33E0E53CF30709F461CF880F991F77
:100AA000AA1FBB1F880F991FAA1FBB1F880F991F62
:100AB000AA1FBB1F880F991FAA1FBB1F322F3154BB
:100AC0003630C0F2322F3156363060F430E02755E0
:100AD0003040442737FD4095542F820F931FA41FA9
:100AE000B51FD3CF322F30533A3078F630E0205351
:100AF0003040442737FD4095542F820F931FA41F89
:100B0000B51FC3CF3ADD6093B1037093B2038093F6
:100B1000B3039093B403089530DD4FEC51E0649F2C
:100B20009001659F300D749F300D1124C9016AEF4B
:100B300070E0C8D97093AE036093AD0308951DDDD6
:100B40007093B0036093AF03089517DD6093AC0317
:100B5000089513DD6093AB0308958091B903833545
:100B600009F004CF80919D0390919E03A0919F0373
:100B7000B091A003B095A095909581959F4FAF4FF0
:100B8000BF4F80939D0390939E03A0939F03B093C8
:100B9000A0030895EF92FF920F931F93CF93DF93DB
:100BA000EC01E62FF0E0EE0FFF1FE95BFB4FE0806A
:100BB000FF2400E010E0218130E040E050E064E0FC
:100BC00024DBFE01E80FF11D9EE29083682F6F5F2A
:100BD0008AE0E816F1040105110534F4FE01E60F80
:100BE000F11D80E380836F5FCE01A80197010DDBCB
:100BF000682FCE0142E251E0BBDBDF91CF911F9124
:100C00000F91FF90EF900895DF93CF93CDB7DEB7AC
:100C100064970FB6F894DEBF0FBECDBF20E12BB9AD
:100C200088E08AB929988CE084B980916F0081604E
:100C300080936F008091810082608093810083E0C7
:100C40008093690031E03DBB80E880BF10927B005B
:100C50001EBC8DB58E7F8DBD84E58CBDE09180017D
:100C6000F0E0EE0FFF1FE05AFE4F808191819093DC
:100C700083018093820110927E0080917C008064C9
:100C800080937C0080917A00866080937A00109235
:100C90007B003093C50087E38093C40086E0809397
:100CA000C2002093C1007894E1E34E2EE4E05E2E72
:100CB0008091C00087FD27C14C99A6C081E0809338
:100CC0009B0380919C038333E8F010929C035B9A12
:100CD0008091B5038823B1F08091AB03882391F014
:100CE000A4EEB3E0E4ECF3E08AE001900D928150D1
:100CF000E1F781E08093E3031092EE031092DF03AB
:100D00001092E00380918101823009F48AC08091C1
:100D10008101813069F61092810180919B038823C3
:100D200029F080919C038F5F80939C038091EE0358
:100D300069E1BCD8992309F487C28091EE038F5FE3
:100D40008093EE038091EE03823378F01092EE03ED
:100D50008091DF038F5F8093DF038091570490E0E1
:100D6000019681709070809357048091DF038C33DB
:100D700038F01092DF038091E0038F5F8093E003EF
:100D80008091E0038C3310F01092E003EE24E394A2
:100D900080E090E041E2A42EB12C30E3832E3C01B0
:100DA000262D862D90E08A9DF0018B9DF00D9A9D59
:100DB000F00D1124EB57FE4F81E211928150E9F7BB
:100DC000222309F4C8C0213009F4D0C1223009F42B
:100DD0001FC2233009F47CC3243009F436C38AE2ED
:100DE00092E060E042E551E0C3DA8AE292E068E135
:100DF00043E551E0BDDA5E2D563008F0E0C00894BE
:100E0000611C711CE394CCCF80919B0381115B9892
:100E100010929B0310929C0380918101823009F013
:100E200076CF109281012091800130E081E290E044
:100E3000289FD001299FB00D389FB00D1124AB57CA
:100E4000BE4F7FEEE72E73E0F72EF70180E090E0D3
:100E500013C02B3508F071C1822F90E0880F991FC5
:100E6000880F991F880F991F885291408193919301
:100E700024E0E133F20769F02D91203211F02223B2
:100E800041F78FEF9FEF8193919324E0E133F207D5
:100E900099F780E090E048E0A42E88248A943C01F1
:100EA000D7010D911D917D0180917301992787FDD7
:100EB00090950817190769F0BFEF0F3F1B0709F45A
:100EC0004CC181E394E0B80148E050E07CD8009345
:100ED000730180913104F301E55BFD4FA2E3B4E0BF
:100EE00001C08D918083B19604E0A933B007C9F7A2
:100EF0000894611C711C11E26116710489F68091DD
:100F0000C00087FFD9CE0091C600909172019F3F2B
:100F100009F425C3043209F425C3053208F03FC3A0
:100F20000A3009F45CC30D3009F459C38091B6034B
:100F3000E82FF0E0E754FC4F0083983C29F09091B3
:100F4000B80390279093B8038A3008F0B5CE8F5F2E
:100F50008093B603B1CE85E891E061E044E251E0D0
:100F600007DA80915404882321F080915704882364
:100F700021F085E891E060E00DDE80915304882344
:100F800031F085E891E06CE047E251E0F1D985E885
:100F900091E062E149E251E0EBD9682F6E5F209168
:100FA000C4033091C5034091C6035091C70385E83F
:100FB00091E001E00EDA5E2D563008F420CF80E09B
:100FC00090E0FC01EE0FFF1FE80FF91FEE0FFF1F6F
:100FD000EE0FFF1FEE0FFF1FED5AFC4F28E111929D
:100FE0002150E9F701968330910559F700913D04AE
:100FF00010913E04E090D603F090D7038BE031DBF4
:101000008091390490913A04A0913B04B0913C0442
:101010008A309105A105B10508F457C28091AB0350
:10102000882309F4B1C298012E193F09C901865AD3
:101030009F4F68E671E046D7843B910508F400C1F4
:10104000845B90406FEF8A35910530F044EB50E0BF
:10105000DA01A81BB90BCD018C5C9F4FFC01849178
:10106000869F602D1124062F112707FD1095C901B9
:1010700068E671E027D7843B910508F4E3C0845B00
:1010800090404FEF8A35910530F024EB30E0590164
:10109000A81AB90AC5018C5C9F4FFC01E490C801F5
:1010A000880F991F880F991F880F991F24E630E039
:1010B000B9011CD74B01E49E802D1124992787FD8F
:1010C0009095880F991F880F991F880F991FB90154
:1010D0000DD78B01682DABE0AA2EA00E8BE0E82E79
:1010E000E818655F801B4A2D2E2D43DBC40197FC59
:1010F000AFC295958795909581959F4F482F455FF5
:10110000C80117FDA3C295958795909581959F4F2E
:10111000282F255F8A2D6E2D2CDB97FC93C2A4010E
:1011200055954795455F17FD8AC215950795202F60
:10113000255F8A2D6E2D1DDBBBCD322F3556393004
:1011400008F094CE822F90E0880F991F880F991F86
:10115000880F991F8057914089CEF201BA2C1192C5
:10116000BA94E9F78092730180E0B5CE8091520481
:1011700004E6809FC001112420915104820F911D2B
:101180000097F1F086EA91E061E04BE251E0F0D89F
:1011900080915204809F8001112480915104080F96
:1011A000111D0115110561F080915504882321F06E
:1011B00080915704882321F086EA91E061E0EADC1F
:1011C00080915604882321F080915704882329F0C8
:1011D00020915304222309F06EC18091D203882309
:1011E00041F12091D30330E040E050E086EA91E005
:1011F00062E10BD82091C8033091C9034091CA0322
:101200005091CB0386EA91E065E100E0E2D8F3CDAE
:101210008091E303882309F084C1809157048823D7
:1012200009F4E9CD87EC91E06AE047E351E0A0D80A
:10123000E2CD86EA91E062E140E351E099D8DACF6D
:1012400061E001CF41E01ECF8091AB03882309F418
:1012500081C15B9A8091E303882309F0FBC1BFE35E
:101260008B2EB4E09B2EA4E76A2EA1E07A2EF8E73D
:101270002F2EF1E03F2E87E494E01982EAE0AE2EB3
:10128000B12CC12CD12C9A87898780917C00807FDA
:1012900080937C0080917C005981852B80937C0019
:1012A00080917A00806A80937A0080917A008064CD
:1012B00080937A0029853A8580917A0084FFFCCF5B
:1012C0003A87298780917A00806180937A008091A3
:1012D0007A008F7580937A002091780030917900A0
:1012E000D4012D933D934D0146E351E0B1D5A601C4
:1012F00095010FD679018A01F30121913F0130E078
:1013000040E050E0C801B701B2D5D1012D911D01D7
:1013100030E040E050E0FDD579018A017AE0169591
:101320000795F794E7947A95D1F7ED82FE820F83C3
:1013300018878E2D90E0982F8827990F990FA0E09D
:10134000B0E079018A01E81AF90A0A0B1B0BC801FF
:10135000B70124E630E040E050E089D55AE09695A8
:101360008795779567955A95D1F7A985BA856C9336
:10137000ED811196EC931197F981FF5FF983129635
:10138000BA87A987F43009F080CF80914704909103
:1013900048049093500480934F04809149049091A5
:1013A0004A04909352048093510490914C0484E633
:1013B000989FC001112420914B04820F911D01E0E0
:1013C000853F900708F038C18937910508F424C398
:1013D000AC014857504024E630E0429FC001439F93
:1013E000900D529F900D11246CE771E06BD5362F54
:1013F000609353049091500484E6989FC001112497
:1014000020914F04820F911D21E013E0883E910747
:1014100008F020E0209354049091520484E6989FB1
:10142000C001112420915104820F911D21E043E05D
:10143000883E940708F020E02093550481E03E3177
:1014400008F080E08093560478CC2091D40330914A
:10145000D50340E050E089E092E060E0D6D689E034
:1014600092E065E04BE451E083D78091E0038A305D
:1014700008F088C0809224026CE12091E00330E003
:1014800040E050E089E092E000E511E093D7682F5A
:101490008091DF038A3030F4E62FF0E0E75FFD4F04
:1014A00080826F5F2091DF0330E040E050E089E010
:1014B00092E0ABD6A0CC30E040E050E086EA91E08C
:1014C0006CE00EE211E076D788CE82E0CAD8F0CB8D
:1014D00088EE91E060E043E451E04AD72091CC03EC
:1014E0003091CD038091EC039091ED03281B390BD3
:1014F000442737FD4095542F88EE91E067E085D66C
:1015000088EE91E069E147E451E032D72091D603BB
:101510003091D70340E050E088EE91E06DE175D660
:101520006ECC87EC91E060E042E351E021D787EC9C
:1015300091E062E044E351E01BD7209139043091FF
:101540003A0440913B0450913C0487EC91E065E003
:101550005CD655CC8BB198E089278BB97BCE043211
:1015600009F0AACB1092B6031092B7031092B803F9
:1015700010927201E9EBF3E0119203E0E43CF00712
:10158000D9F79ACB6BE179CF85E065E041E121E1C4
:10159000F0D885E061E141E125E0EBD889CB0A3262
:1015A00041F00C3209F0C2CC8091B80380278093BF
:1015B000B803ABD9E9EBF3E0119213E0E43CF10797
:1015C000D9F71092B603809172018F5F80937201F8
:1015D0000A3209F071CB88EC809372016DCB95D9FA
:1015E0004FEF409372012091A5033091A6038091A3
:1015F000CC039091CD03821793070CF05FC281E07A
:101600008093DD038091B503882309F455CBA4ECC6
:10161000B3E0EDE9F3E089E101900D928150E1F74B
:1016200081E08093DE038091DF039091E00390934B
:10163000E2038093E10340CB64E670E0D8CE0F5F15
:101640001F4F73CD0894811C911C69CD01965BCD11
:1016500001964FCDE090C403F090C5030091C603FE
:101660001091C7036090C8037090C9038090CA03AB
:101670009090CB03A090E403B090E503C090E60304
:10168000D090E7032091E8033091E9034091EA0309
:101690005091EB0329833A834B835C83EA14FB0468
:1016A0000C051D0509F4F2C1C601B5016E0D7F1DC3
:1016B000801F911F97FD0CC220E834E84EE150E0F6
:1016C00028D4C901865A9F4F68E671E0FBD3843B5A
:1016D000910508F4FAC1845B904033243A948A352A
:1016E000910530F024EB30E0A901481B590BCA01E9
:1016F0008C5C9F4FFC012490C801B701E5D46D8339
:101700007E838F839887C601B501DED45B016C01AF
:10171000C401B301D9D47B018C0169817A818B81A9
:101720009C81D2D49B01AC012E193F09400B510B77
:10173000ED80FE800F811885AE18BF08C00AD10A5F
:10174000239C602D1124772767FD7095872F972F95
:101750008ED324E630E040E050E0FDD379018A01E9
:101760003324339428C02FEF62162FEF720620E047
:10177000820620E0920660F4D601C501D7FC27C09E
:101780008F3F3FEF930730E0A30730E0B30738F116
:10179000C801B70122E030E040E050E0DCD379013D
:1017A0008A01C601B50122E030E040E050E0D3D329
:1017B00059016A01330C3701480117FFD4CF662461
:1017C000772443016E187F08800A910ACCCF8827BE
:1017D0009927DC018A199B09AC09BD09D1CF8987FA
:1017E0009A87AB87BC87C801B701A80197013FD38F
:1017F00069837A838B839C83C601B501A601950119
:1018000036D3698B7A8B8B8B9C8B69817A818B81A8
:101810009C81492F55276627772789899A89AB8923
:10182000BC898B2F9927AA27BB278D879E87AF87D7
:10183000B88B480F591F6A1F7B1F4F3F5105610529
:10184000710509F008F44CC12224239429893A89AE
:101850004B895C89ED82FE820F831887AD86BE8638
:10186000CF86D88AA980BA80CB80DC80D694C794F2
:10187000B794A794D694C794B794A794A982BA8230
:10188000CB82DC8256954795379527955695479597
:1018900037952795220CE52EFF24002711278D2D43
:1018A0009927AA27BB27E80EF91E0A1F1B1F6FEFF7
:1018B000E616F1040105110509F0A0F6298B3A8B13
:1018C0004B8B5C8BED80FE800F811885AD84BE84D0
:1018D000CF84D88889819A81AB81BC8129893A8952
:1018E0004B895C89820F931FA41FB51F89839A833C
:1018F000AB83BC83B695A795979587958D839E837B
:10190000AF83B8870097A105B10509F4D2C080E084
:1019100090E09E878D870CC08D859E8501969E8761
:101920008D878A31910521F12D833E834F8358871E
:1019300069817A818B819C812D813E814F8158857F
:10194000E8D26D817E818F819885260F371F481FD1
:10195000591F5695479537952795DC01CB01821B7A
:10196000930BA40BB50B82309105A105B105A0F630
:10197000CA01B901222D30E040E050E078D26983FD
:101980007A838B839C83611571058105910509F428
:1019900046C029853A854B855C85621673068406A8
:1019A000950608F4A0C0CA01B90124E630E040E081
:1019B00050E05DD229813A814B815C81AAD2622EAE
:1019C00020E030E041E080E090E064EB862E912C56
:1019D0008C5C9F4FFC018491849F402D11246416E0
:1019E0000CF449C02A35310509F445C02F5F3F4F3B
:1019F000C90168E671E066D2843B910558F0845BCA
:101A000090404FEF8A35910518F3B401681B790BAC
:101A1000CB01DECF41E0F6CF60E070E0E8CC80E0C3
:101A200090E090933E0480933D0469817A818B819C
:101A30009C8125E331E040E050E019D228EE33E00C
:101A400040E050E066D279018A01232D30E040E089
:101A500050E0C801B7010BD26093390470933A0487
:101A600080933B0490933C04FACB6D817E812AE500
:101A700030E0261B370BA114B104C104D10409F0D6
:101A800077C017FD72C08AE590E0CBCF621673066F
:101A90008406950609F008CE1092390410923A0493
:101AA00010923B0410923C0410923E0410923D04AC
:101AB000D6CB69817A818B819C815CCF28173907CD
:101AC0000CF0A0CD4093DD039DCD3324339407CE9D
:101AD00090958095709561957F4F8F4F9F4FECCD7E
:101AE00022242394F7CEC401B30124E630E040E081
:101AF00050E0BDD129813A814B815C810AD2622EAE
:101B000060E070E041E080E090E028E631E054EBF6
:101B1000852E912C7E836D838C5C9F4FFC0184917C
:101B2000849F402D112464160CF49FCF4D815E815B
:101B30004A35510509F499CF4D815E814F5F5F4F62
:101B40005E834D83CA01B901BDD1843B910558F034
:101B5000845B90404FEF8A359105F0F2B401681B29
:101B6000790BCB01D9CF41E0F6CF8EE091E059CF90
:101B70001A141B041C041D043CF417FD0BC08AE559
:101B800090E0821B930B4DCF17FD08C0C901865A08
:101B90009F4F47CFC901825F9E4F43CF8EE091E0B8
:101BA000821B930B3ECF1F920F920FB60F92112400
:101BB0002F933F934F935F936F937F938F939F9355
:101BC000AF93BF93EF93FF93109285001092840020
:101BD00028E22A95F1F74A997AC080917C01909188
:101BE0007D01009709F435C020917F01213009F46F
:101BF00091C0223009F02DC0E3E1F1E03197F1F717
:101C000000C00000E0918401F0E0ED5AFC4F20E0BC
:101C100030813EBD219A000000000000000000005D
:101C200000000000000000000000000000000000B4
:101C300000000000000000000000000000000000A4
:101C4000000000002F5F7896233011F721980000E4
:101C50001EBC10927F01019690937D0180937C01C0
:101C60008E36910509F444C08F36910509F48FC072
:101C7000409182015091830184179507A0F1209132
:101C80005D0130915E0182179307B0F182179307CF
:101C900009F48EC09C01295630402831310530F4BA
:101CA00022E020937F01895680938401FF91EF9178
:101CB000BF91AF919F918F917F916F915F914F9164
:101CC0003F912F910F900FBE0F901F90189580910C
:101CD0007C0190917D01893C910540F310927D013A
:101CE00010927C01E3CF20915D0130915E01CECF57
:101CF00021E020938101BCCF21E020937F01841B50
:101D00008093840190915F01923081F68695809353
:101D10008401CCCF60918001E8E1EA95F1F7409130
:101D2000840150E070E021E230E0629FD001639FC7
:101D3000B00D729FB00D1124AB57BE4F429FF00102
:101D4000439FF00D529FF00D1124E55BFD4F21E202
:101D500016C0219A31913EBD000000000000000035
:101D60000000000000000000000000000000000073
:101D700000000000000000000000215061F03D91D3
:101D8000303211F0332329F721980000E3CF22E00D
:101D9000209381016DCF00000000000000000000D2
:101DA000000000000000000000001EBC219851CF80
:101DB00082E0809381018091800190E0019666E04D
:101DC00070E094D080938001FC01EE0FFF1FE05A79
:101DD000FE4F208131813093830120938201845909
:101DE0009E4FFC01808180935F0190E0880F991FD6
:101DF000880F991F880F991F820F931F90935E0180
:101E000080935D0181E08093840150CF1F920F92F7
:101E10000FB60F9211242F933F938F939F9380912E
:101E20007C0190917D0120917E0130E028173907D7
:101E300021F42BB138E023272BB980937E019F91A9
:101E40008F913F912F910F900FBE0F901F9018957B
:101E5000539FC001429FB001529F700D811D1124FC
:101E6000911D349F700D811D1124911D0895629F55
:101E7000D001739FF001829FE00DF11D649FE00D82
:101E8000F11D929FF00D839FF00D749FF00D659FE3
:101E9000F00D9927729FB00DE11DF91F639FB00DE2
:101EA000E11DF91FBD01CF0111240895991B79E0AF
:101EB00004C0991F961708F0961B881F7A95C9F7DA
:101EC00080950895AA1BBB1B51E107C0AA1FBB1F29
:101ED000A617B70710F0A61BB70B881F991F5A95B6
:101EE000A9F780959095BC01CD01089597FB092E27
:101EF00007260AD077FD04D0E5DF06D000201AF4CB
:101F0000709561957F4F0895F6F7909581959F4F55
:101F10000895A1E21A2EAA1BBB1BFD010DC0AA1F2A
:101F2000BB1FEE1FFF1FA217B307E407F50720F042
:101F3000A21BB30BE40BF50B661F771F881F991FBD
:101F40001A9469F760957095809590959B01AC0106
:101F5000BD01CF01089597FB092E05260ED057FD30
:101F600004D0D7DF0AD0001C38F450954095309546
:101F700021953F4F4F4F5F4F0895F6F7909580950D
:101F8000709561957F4F8F4F9F4F0895FB01DC0146
:101F90004150504030F08D910190801919F400208B
:101FA000B9F7881B990B0895FB01DC0141505040A3
:101FB00048F001900D920020C9F701C01D924150D8
:101FC0005040E0F70895DC01CB01FC01F999FECF08
:101FD00006C0F2BDE1BDF89A319600B40D924150B1
:0A1FE0005040B8F70895F894FFCFC1
:101FEA004E005300450057002D2D2E2D2D2D2D2D41
:101FFA002D2D3F002E004750474741004750524D74
:10200A00430056006A3100690068006A3200250000
:10201A002D0066004D54004E4F20484F4D4520502C
:10202A004F5300414C5400484447004B4D2F480041
:10203A003A00004650564C522E434F4D00020002C1
:10204A0032004200AA00CD00FF001801010102017E
:0C205A000102FFFF01010101010106016C
:00000001FF
