:1000000047C050CC60C05FC05EC05DC05CC05BC01C
:100010005AC059C058C057C056C075CD54C053C0FF
:1000200052C051C050C04FC04EC04DC04CC04BC05C
:100030004AC049C00002030507090A0C0E1011133B
:100040001516181A1C1D1F2122242527292A2C2D9C
:100050002F303234353638393B3C3E3F4042434402
:10006000454748494A4B4D4E4F50515253545556AF
:10007000575758595A5B5B5C5D5D5E5F5F606061BE
:1000800061616262626363636364646464646400A4
:1000900011241FBECFEFD4E0DEBFCDBF11E0A0E042
:1000A000B1E0E4EEFCE102C005900D92AA38B10780
:1000B000D9F714E0AAE8B1E001C01D92A636B10755
:1000C000E1F72FD50DCE9CCF68E671E078DD843B5B
:1000D000910520F0845B90404FEF01C041E08A35EC
:1000E000910530F024EB30E0B901681B790BCB01AE
:1000F000FC01EC5CFF4F8491849F802D11240895B6
:100100004F925F926F927F928F929F92AF92BF9227
:10011000CF92DF92EF92FF921F93CF93DF9300D0A5
:1001200000D0CDB7DEB76B017C0197FF0AC0F09419
:10013000E094D094C094C11CD11CE11CF11C1FEFB1
:1001400001C011E0C701B60120E432E44FE050E005
:100150007FDD422E552466247724C701B60120E1B5
:1001600037E240E050E074DD69837A838B839C83BF
:10017000C301B2012CE330E040E050E0E8DC4B0189
:100180005C01C301B20120EC3DEB40EF5FEFDFDC2F
:100190006C0D7D1D8E1D9F1D20E137E240E050E07B
:1001A00057DD820E911CA11CB11CC501B4012CE3CA
:1001B00030E040E050E0CBDC6B017C0169817A816A
:1001C0008B819C81C4DC4B015C01C701B60124E634
:1001D00030E040E050E0BBDC6B017C01C501B401C4
:1001E00015DDC20ED31EE41EF51E1F3F41F4F09430
:1001F000E094D094C094C11CD11CE11CF11CC70137
:10020000B6010F900F900F900F90DF91CF911F913B
:10021000FF90EF90DF90CF90BF90AF909F908F9026
:100220007F906F905F904F9008953F924F925F92B2
:100230006F927F928F929F92AF92BF92CF92DF92F6
:10024000EF92FF920F931F93CF93DF932C01362EE3
:1002500069017A0189019A01F7FE07C00027112779
:1002600098010C191D092E093F09C1E09AE0892E59
:10027000912CA12CB12C08C0C901B801A501940191
:10028000E7DC89019A01CF5F0A30110521053105AC
:100290009CF7F7FCCF5F832D90E09C012C0F311D64
:1002A000213231050CF056C04201880E991EF7FE2E
:1002B0000AC0F094E094D094C094C11CD11CE11CFD
:1002C000F11CDFEF01C0D0E0540100E08AE0482ECD
:1002D000512C612C712C01C0022FC701B601A30162
:1002E0009201B6DC69017A01605DF50161935F01FD
:1002F000202F2F5F1C141D041E041F046CF3DF3F0E
:1003000049F4E22FFF27E7FDF095E80DF91D8DE296
:1003100080832F5FE22FFF27E7FDF095E80DF91DA1
:1003200010822150522F569540E030E0842F90E00B
:10033000F401E80FF91F6081D901A81BB90BA80DC2
:10034000B91D8C9180836C934F5F541778F78C2F75
:10035000830D01C081E2DF91CF911F910F91FF903A
:10036000EF90DF90CF90BF90AF909F908F907F9055
:100370006F905F904F903F900895CF93DF93DC0193
:10038000D62FBA01FA0101900020E9F73197CE2F5C
:10039000C41B2D2F30E0C9018C0F911D81329105B6
:1003A0000CF0C1E24C2F50E0CD01820F931F79DC9D
:1003B0008C2F8D0FDF91CF9108950F931F93CF93C3
:1003C000DF93EC0132DF682FCE01A801D6DFDF9189
:1003D000CF911F910F9108954F925F926F927F92EC
:1003E0008F929F92AF92BF92CF92DF92EF92FF9245
:1003F0000F931F93CF93DF932C01C62F69017A01CE
:10040000D02F211531054105510521F448E051E077
:10041000B4DF7AC0002351F0121613061406150635
:100420007CF4F6E06F2EF1E07F2E13C01216130657
:100430001406150654F4E4E06E2EE1E07E2E09C0A9
:1004400070E0672E71E0772E04C062E0662E61E0F6
:10045000762EF7FE08C0F094E094D094C094C11CAE
:10046000D11CE11CF11CC701B60120E432E44FE0CD
:1004700050E0EEDB822E9924AA24BB24C501B401EE
:1004800020EC3DEB40EF5FEF62DB6C0D7D1D8E1DC0
:100490009F1D24E630E040E050E059DB2CE330E0E3
:1004A00040E050E0B3DB89019A01DD2339F05DE4DF
:1004B000C52E54E1D52EE12CF12C06C040EDC42E02
:1004C0004DE1D42EE12CF12CC00ED11EE21EF31E04
:1004D000C2016C2FA501940104E111E06EDF682FC9
:1004E00080E1C81687E2D80680E0E80680E0F806DA
:1004F00030F4C20120E030E0A90197DE682FC2018C
:10050000A7019601830159DFDF91CF911F910F91D0
:10051000FF90EF90DF90CF90BF90AF909F908F9023
:100520007F906F905F904F900895FF920F931F936D
:10053000CF93DF93D1E08091EC038D3209F0D0E0CE
:10054000CD2F00E010E0980116C0C901B8012AE0E3
:1005500030E040E050E0FBDADC01CB010F2D10E091
:1005600000531040222717FD2095322F080F191F26
:100570002A1F3B1FCF5FEC2FF0E0E451FC4FF080CF
:100580008F2D80538A3010F4CB30F8F2DD2321F028
:100590006FEF7FEFCB0104C061E070E080E090E09E
:1005A000A9019801D4DADF91CF911F910F91FF90AB
:1005B0000895FF920F931F93CF93DF93FF24F3943B
:1005C0008091EC038D3209F0FF24CF2D00E010E084
:1005D0009801EC2FF0E0E451FC4FD0818D2F805337
:1005E0008A3058F5C901B8012AE030E040E050E017
:1005F000AEDADC01CB010D2F10E0005310402227B2
:1006000017FD2095322F080F191F2A1F3B1FCF5FA0
:10061000CB30F8F2FF2021F06FEF7FEFCB0104C069
:1006200061E070E080E090E0A901980190DADF914C
:10063000CF911F910F91FF900895DE3241F3EACFE1
:100640008091EA03882301F58CEE93E066E171E086
:1006500045E050E018DB009731F481E08093EA0335
:100660001092770108958CEE93E06CE171E045E023
:1006700050E009DB009709F00DC182E08093EA03A6
:1006800084E68093770108958091E903882309F433
:1006900001C180917701853609F43FC08636E0F4C8
:1006A000843009F467C0853050F4823009F441C0C9
:1006B000833008F042C0813009F0ECC02EC0863093
:1006C00009F479C0863008F459C0873009F479C03C
:1006D000893009F0DFC07BC08A3609F44FC08B3601
:1006E00048F4883651F1893608F044C0873609F05D
:1006F000D1C01FC08C3609F486C08C3608F46FC098
:100700008D3609F488C0883C09F0C4C0ECEEF3E0F3
:1007100080E090E0DC0120E0B1C007DFDC01CB012C
:1007200080939B0190939C01A0939D01B0939E01A7
:1007300008953FDFDC01CB0114C08091EC038335C9
:1007400009F0A8C08091910190919201A09193012C
:10075000B0919401B095A095909581959F4FAF4F22
:10076000BF4F8093910190939201A0939301B09316
:10077000940108951EDFDC01CB0114C08091EC03CD
:10078000873509F087C08091950190919601A091DD
:100790009701B0919801B095A095909581959F4F44
:1007A000AF4FBF4F8093950190939601A09397010F
:1007B000B09398010895B9DEDC01CB0180939F01CD
:1007C0000895B3DEDC01CB018093A0010895ADDE76
:1007D000DC01CB0190939A01809399010895A5DEE5
:1007E000AB01BC012FEC31E0429FC001439F900D53
:1007F000529F900D11246AEF70E0E1D97093A2012D
:100800006093A101089591DEDC01CB019093A401D6
:100810008093A301089589DEDC01CB018093A501BB
:100820009093A601A093A701B093A801089534E086
:10083000880F991FAA1FBB1F3A95D1F7342F315447
:10084000363020F450E0475350400FC0342F31561B
:10085000363020F450E04755504007C0342F305315
:100860003A3058F450E040535040662757FD6095A9
:10087000762F840F951FA61FB71F2F5F419144232A
:1008800011F02B30A1F621E03091EB03381320E07A
:100890002093A9010895CF92DF92EF92FF92CF9318
:1008A000DF93EC01E62FF0E0EE0FFF1FE55BFB4F5F
:1008B000C080DD24EE24FF24218130E040E050E0C0
:1008C00064E0B3DCFE01E80FF11D9EE29083682F27
:1008D0006F5F9AE0C916D104E104F10434F4FE011B
:1008E000E60FF11D90E390836F5FCE01A7019601A3
:1008F0009CDC682FCE0142E251E03FDDDF91CF91D9
:10090000FF90EF90DF90CF900895883108F568311F
:10091000F8F4482F46954695469550E080958770A7
:1009200021E030E002C0220F331F8A95E2F7FA017E
:10093000EE0FFF1FE40FF51FA3E0EE0FFF1FAA95B8
:10094000E1F7E60FF11DE550FC4F8081822B80839B
:100950000895CF92DF92EF92FF920F931F93CF9360
:10096000DF93382FA62FC42F422F50E0461B51098A
:1009700057FF03C0509541955F4FEC2FF0E0E31B0C
:10098000F109F7FF03C0F095E195FF4FD1E0E417BF
:10099000F50714F0D0E006C08C2FC22F282F832F2C
:1009A0003A2FA82FC31730F48A2FA22F282F832F76
:1009B0003C2FC82F1C2F131BE22FF0E0EA1BF1097C
:1009C000F7FF03C0F095E195FF4F0E2F812F62E0F6
:1009D000E9D8F82EDA2EA21718F4CC24C39402C05A
:1009E000CC24CA94E32E0EC0DD2319F08D2D6E2D7C
:1009F00002C08E2D6D2D89DFF01AF7FE02C0DC0CCF
:100A0000F10EE394CE1580F7DF91CF911F910F91F6
:100A1000FF90EF90DF90CF900895FF920F931F9378
:100A2000CF93DF9300D000D00F92CDB7DEB7182F51
:100A300081E0982F911B9D838C83812F8195880F56
:100A40008B831A821983BBE0FB2EF10E8BE06F2D96
:100A50005CDF0BE0011B8BE0602F57DF8F2D6BE01D
:100A600054DF802F6BE051DF1BE04BC08D8187FD91
:100A70000AC08981815089838B818E5F8B839D81A0
:100A80008B81890F8D838A818F5F8A838C818E5FB2
:100A90008C839D818C81890F8D838A816981655FBB
:100AA000855F33DF8A816981655F912F981B892F6C
:100AB0002CDF8A819981612F691B855F26DF8A81FE
:100AC0009981612F691B912F981B892F1EDF8981C6
:100AD0006A81655F855F19DF89816A81655F912F12
:100AE000981B892F12DF89819A81612F691B855F8D
:100AF0000CDF89819A81612F691B912F981B892FA7
:100B000004DF9A81898198170CF4B0CF0F900F9071
:100B10000F900F900F90DF91CF911F910F91FF9049
:100B20000895CF93DF93CDB7DEB762970FB6F894F1
:100B3000DEBF0FBECDBF20E12BB988E08AB929986E
:100B40008CE084B980916F00816080936F00809108
:100B5000810082608093810083E08093690031E0AE
:100B60003DBB80E880BF10927B001EBC8DB58E7FA0
:100B70008DBD84E58CBDE091CE01F0E0EE0FFF1F4E
:100B8000E559FE4F808191819093E8038093E703BC
:100B900010927E0080917C00806480937C00809124
:100BA0007A00866080937A0010927B003093C500B3
:100BB00087E38093C40086E08093C2002093C10045
:100BC00078948091C00087FF89C00091C600909101
:100BD00077019F3F21F4043209F080C010C0043235
:100BE00071F0053230F40A30A9F10D3009F063C01C
:100BF00031C00A32C9F00C3209F05DC010C0109249
:100C0000E9031092EA031092EB0310927701ECEEE5
:100C1000F3E080E011928F5F8B30E1F75FC080914D
:100C2000EB0380278093EB030BDDECEEF3E080E039
:100C300011928F5F8B30E1F71092E9038091770179
:100C40008F5F809377010A3209F048C088EC809367
:100C5000770144C0F5DC4FEF409377012091990173
:100C600030919A018091BC019091BD018217930748
:100C700024F481E08093F70305C02817390714F4A2
:100C80004093F7038091A901882341F1A4EBB1E0DF
:100C9000E1E9F1E089E101900D928150E1F781E015
:100CA0008093F80380918C0190918D019093FA03C9
:100CB0008093F90313C08091E903E82FF0E0E45139
:100CC000FC4F0083983C29F09091EB039027909380
:100CD000EB038A3018F48F5F8093E9034C9925C0A9
:100CE00081E080938F0180919001833330F11092E5
:100CF00090015B9A8091A9018823F9F080919F016E
:100D00008823D9F0AAEAB1E0E4EBF1E08AE00190AF
:100D10000D928150E1F781E08093CD0110928E0118
:100D200010928C0110928D0108C080918F01811169
:100D30005B9810928F011092900180918A0182300D
:100D400009F084C010928A018091CE01A5E98A2E13
:100D5000A2E09A2ED40120E030E060E070E090E064
:100D6000AC0115E0440F551F1A95E1F7480F591FC4
:100D700041535E4FFA01E60FF71F80818032E1F0A8
:100D80008823D1F08B3550F4282F30E0F3E0220F88
:100D9000331FFA95E1F72852314010C0982F95562D
:100DA000993060F4282F30E0E3E0220F331FEA95FA
:100DB000E1F72057314002C02FEF3FEF2D933D93D5
:100DC0006F5F7F4F61327105A9F600E010E078E0B7
:100DD000E72ECC24CA94D4014D905D904D018091B2
:100DE0006A01992787FD90958415950569F0BFEFF5
:100DF0004B16BFEF5B0681F087ED92E0B20148E051
:100E000050E05ED740926A01A7EDB2E020E030E00A
:100E1000C80181529D4F09C0E7EDF2E0AE2C11925E
:100E2000AA94E9F7C0926A01EFCF4D91FC01E20F5D
:100E3000F31F40832F5D3F4F41E028303407A9F76F
:100E40000F5F1F4F0132110531F6BBCE80918A0131
:100E5000813009F0B6CE10928A0180918F018823EB
:100E600029F0809190018F5F8093900180918E0195
:100E700069E18CD6992309F002C380919F018823F0
:100E800011F05B9A04C08BB198E089278BB98091EF
:100E9000CD01882309F4EFC1C090B401D090B50111
:100EA000E090B601F090B7018090B8019090B90140
:100EB000A090BA01B090BB0189829A82AB82BC82B9
:100EC0008090AA019090AB01A090AC01B090AD01D0
:100ED0002091AE013091AF014091B0015091B1012C
:100EE0002D833E834F835887C814D904EA04FB043A
:100EF000B1F489819A81AB81BC8182179307A407E1
:100F0000B50769F410924504109246041092470404
:100F1000109248041092440410924304ACC1D501CD
:100F2000C4018C0D9D1DAE1DBF1DB7FF07C0B09540
:100F3000A095909581959F4FAF4FBF4FBC01CD01BC
:100F400020E834E84EE150E061D6C901865A9F4F4F
:100F5000BBD8382EC701B601D3D88B019C01C5017F
:100F6000B401298B3A8BCCD82B013C0169817A8161
:100F70008B819C81C5D86B017C016D817E818F81C5
:100F80009885BED86C197D098E099F0929893A89EF
:100F9000401A510A620A730A232D332727FD309520
:100FA000432F532FD4D524E630E040E050E050D614
:100FB0003324339462E0C62ED12CE12CF12C49016C
:100FC0005A010FC0C501B401A701960141D64901DC
:100FD0005A01C301B201A70196013AD629013A018B
:100FE000330CB501A401B7FE07C044275527BA0149
:100FF000481959096A097B094F3F9FEF590790E04B
:10100000690790E07907F0F6D301C20177FE07C0C7
:1010100088279927DC0184199509A609B7098F3F0C
:10102000EFEF9E07E0E0AE07E0E0BE0758F68982EA
:101030009A82AB82BC8249875A876B877C878D876F
:101040009E87AF87B88BC501B401A50194017FD5F8
:101050006B017C01C301B201A301920178D5DC01CF
:10106000CB0161E0E62F0FC022E0F694E794D7941D
:10107000C7942A95D1F732E0B695A79597958795AD
:101080003A95D1F7EE0F4B2F5527662777270F2D6F
:10109000112722273327400F511F621F731F4F3F15
:1010A00051056105710509F0F8F66E2F4C015D01DF
:1010B0008C0C9D1CAE1CBF1C8D829E82AF82B8869C
:1010C000B694A7949794879481149104A104B104D1
:1010D00039F100E010E02E2E02C0460157016D816B
:1010E0007E818F819885A501940190D569017A014F
:1010F000C80CD91CEA1CFB1CF694E794D794C7943F
:101100008C189D08AE08BF0822E082169104A10445
:10111000B10458F00F5F1F4F0A311105F1F605C0F9
:10112000CD80DE80EF80F88401C0622D262F30E074
:1011300040E050E0C701B6010AD56B017C016115A2
:1011400071058105910509F46EC089849A84AB8488
:10115000BC842D853E854F85588982169306A4064A
:10116000B506D8F0CA01B90124E630E040E050E00D
:10117000EED4A70196014AD5022F20E030E04901C4
:1011800003C00894811C911CC4019ED708171CF150
:101190003AE583169104A9F71EC069857A858B8587
:1011A0009C8524E630E040E050E0D1D4A7019601D0
:1011B0002DD500E010E0822E02C00F5F1F4FC80146
:1011C00083D788161CF00A351105B9F72AE530E0F7
:1011D000201B310B01C0940189809A80AB80BC80B8
:1011E000411451046104710429F4B7FC1FC08AE55D
:1011F00090E01EC014141504160417044CF4B7FC38
:1012000003C08AE590E00CC0C901825F9E4F10C008
:10121000B7FC04C0C901865A9F4F0AC08EE091E016
:10122000821B930B05C080E090E002C08EE091E04D
:101230009093440480934304C701B60125E331E051
:1012400040E050E084D428EE33E040E050E0DED4CB
:1012500069017A01232D30E040E050E0C701B6017A
:1012600076D4DC01CB018093450490934604A0938F
:101270004704B093480499E5292E94E0392E28E7D5
:1012800031E03A8329834CE751E05E834D836CE47F
:10129000E62E64E0F62E80E07AE0472E512C612C99
:1012A000712C8D8780917C00807F80937C00809161
:1012B0007C008D84882980937C0080917A00806AEC
:1012C00080937A0080917A00806480937A009D8573
:1012D00080917A0084FFFCCF9D8780917A008061A5
:1012E00080937A0080917A008F7580937A00609164
:1012F000780070917900D1016D937D931D0180E09C
:1013000090E026E331E040E050E021D4A3019201D7
:101310007DD4E981FA816191FA83E98370E080E00C
:1013200090E015D4AD81BE812D91BE83AD8330E0B8
:1013300040E050E06BD489019A01480159016AE00C
:10134000B694A794979487946A95D1F789869A86DC
:10135000AB86BC8667010894C108D108882D90E04F
:10136000982F8827990F990FA0E0B0E04801590104
:10137000881A990AAA0ABB0AC501B40124E630E01A
:1013800040E050E0E4D3DC01CB01EAE0B695A7955C
:1013900097958795EA95D1F7F6018083E985D7017E
:1013A000EC93FD85FF5FFD8782E0882E912CE80C91
:1013B000F91CF43009F076CF80914B0490914C04E5
:1013C00090934A048093490480914D0490914E0477
:1013D00090935404809353049091500484E6989F12
:1013E000C001112420914F04820F911D21E0853FFF
:1013F000920798F48937910598F08857904044E611
:1014000050E0849F9001859F300D949F300D1124F2
:10141000C9016CE771E0D3D305C064E670E002C097
:1014200060E070E0362F6093550490914A0484E6A2
:10143000989FC001112420914904820F911D21E041
:1014400043E0883E940708F020E0209356049091F2
:10145000540484E6989FC001112420915304820F04
:10146000911D21E053E0883E950708F020E020938D
:10147000570481E03E3108F080E080935804809169
:101480008E018F5F80938E0180918E01823378F080
:1014900010928E0180918C018F5F80938C018091DE
:1014A0008B0190E001968170907080938B01809108
:1014B0008C018C3338F010928C0180918D018F5FFC
:1014C00080938D0180918D018C3310F010928D01ED
:1014D0009FECE92E91E0F92E80E0C82E55C1F7016E
:1014E000E80FF91F1082019681329105C1F7CC20D7
:1014F00081F58FEC91E061E044E251E03ED78091CC
:101500005604882321F080918B01882321F08FECF1
:1015100091E060E0C0D980915504882331F08FECD0
:1015200091E06CE047E251E028D78FEC91E062E176
:1015300049E251E022D7682F6E5F2091B4013091CB
:10154000B5014091B6015091B7018FEC91E001E0F7
:1015500057C081E0C81609F055C09091540484E644
:10156000989FC001112420915304820F911D009770
:1015700091F080EF91E061E04BE251E0FED6809186
:101580005704882321F080918B01882321F080EF7C
:1015900091E061E080D980915804882321F0809106
:1015A0008B01882369F020915504222349F030E013
:1015B00040E050E080EF91E06CE00EE211E0FDD6FB
:1015C0008091C201882351F02091C30130E040E0B6
:1015D00050E080EF91E062E128D606C080EF91E014
:1015E00062E140E351E0C9D62091B8013091B901E0
:1015F0004091BA015091BB0180EF91E065E100E0BC
:10160000EBD6B6C092E0C91639F58091CD0188239A
:10161000C1F081E192E060E042E351E0AED681E1C9
:1016200092E062E044E351E0A8D620914504309175
:101630004604409147045091480481E192E065E0FE
:1016400089C080918B01882309F492C081E192E0E6
:101650006AE047E351E08BC0A3E0CA1609F040C03E
:1016600082E392E060E043E451E087D68091F703A3
:10167000813031F482E392E065E047E451E00DC04F
:101680008F3F31F482E392E065E049E451E005C028
:1016900082E392E065E04BE451E06FD62091BC011B
:1016A0003091BD018091B2019091B301281B390B9B
:1016B000442737FD4095542F82E392E067E0B5D58B
:1016C00082E392E069E14DE451E057D62091C601F2
:1016D0003091C70140E050E082E392E06DE13AC012
:1016E000B4E0CB16C9F52091C4013091C50140E0AA
:1016F00050E083E592E060E098D583E592E065E014
:1017000041E551E03AD680918D018A3028F480E39A
:1017100080936E026CE101C06BE120918D0130E09D
:1017200040E050E083E592E006E511E046D6682F00
:1017300080918C018A3038F4E62FF0E0ED5AFD4FAD
:1017400080E380836F5F20918C0130E040E050E0C7
:1017500083E592E06AD50CC084E792E060E048E55A
:1017600051E00BD684E792E068E140E651E005D60F
:10177000C394E1E2F0E0EE0EFF1EF6E0CF1621F496
:101780002BEF33E043E010C080E090E0A8CEF901F9
:10179000E80FF91F1082019688319105C1F7415079
:1017A000285E3F4F442319F080E090E0F0CFE090B6
:1017B0004304F09044048091C6019091C701E81A57
:1017C000F90A8BE02AD98091450490914604A091B2
:1017D0004704B09148048A309105A105B10518F479
:1017E00082E01BD9EEC980919F01882351F485E0E6
:1017F00065E041E121E1ADD885E061E141E125E02D
:101800004FC0C701865A9F4F5FD4082FC7015CD4D1
:10181000E82F802F992787FD909513E0880F991F57
:101820001A95E1F724E630E0B901DDD16B018E2F86
:10183000992787FD909503E0880F991F0A95E1F796
:10184000B901D1D14B016C2D082D055F8BE0E82E3D
:10185000EC18655F8819402F2E2D7BD882E0482E2A
:10186000512CC601B201BFD1709561957F4F462FB3
:10187000455FC401B201B7D19B01309521953F4F1F
:10188000255F802F6E2D65D8C601B201ACD1462FE1
:10189000455FC401B201A7D1262F255F802F6E2D91
:1018A00058D88FC91F920F920FB60F9211242F9301
:1018B0003F934F935F936F937F938F939F93AF93D8
:1018C000BF93EF93FF93109285001092840088E2FB
:1018D0008A95F1F780916104909162044A99FBC066
:1018E000009709F48CC080916304813021F082302C
:1018F00009F085C053C02091CE0198E19A95F1F787
:101900008091640490E0BC0155E0660F771F5A9502
:10191000E1F7680F791F80E090E030E0A901E5E091
:10192000440F551FEA95E1F7420F531F41535E4F95
:1019300061527D4FFA01E80FF91F2081203221F01A
:10194000222311F0219A02C021980000FB01E80F28
:10195000F91F20812EBD00000000000000000000E3
:101960000000000000000000000000000000000077
:10197000000000000000000001968132910509F08E
:10198000D9CF0000000000000000000000000000AF
:101990000000000000001EBC219831C0E3E1F1E02E
:1019A0003197F1F700C000002091640430E080E03E
:1019B00090E025503C4FF901E80FF91F40814EBDE2
:1019C000219A00000000000000000000000000005C
:1019D0000000000000000000000000000000000007
:1019E00000000000000000000000000000000000F7
:1019F000489688349105F9F6219800001EBC109293
:101A000063044091610450916204CA01019690936D
:101A10006204809361048E36910511F421E004C0C4
:101A20008F36910519F422E020938A016091E70333
:101A30007091E8032091800130918101861797070A
:101A400080F08217930768F491E090936304861BFB
:101A50008093640490918201923009F043C086958E
:101A60002DC08217930769F582E080938A018091E7
:101A7000CE0190E0019666E070E0B5D08093CE0193
:101A8000FC01EE0FFF1FE559FE4F2081318130939D
:101A9000E8032093E7038D579E4FFC0180818093DC
:101AA000820190E043E0880F991F4A95E1F7820F89
:101AB000931F909381018093800181E0809364045F
:101AC00011C0485650404831510560F492E090935F
:101AD00063048956F3CF893C910520F0109262048B
:101AE00010926104FF91EF91BF91AF919F918F91FF
:101AF0007F916F915F914F913F912F910F900FBE0A
:101B00000F901F9018951F920F920FB60F921124ED
:101B10002F933F938F939F932091650430E08091A2
:101B20006104909162042817390721F48BB198E081
:101B300089278BB980916104809365049F918F916F
:101B40003F912F910F900FBE0F901F901895629F9D
:101B5000D001739FF001829FE00DF11D649FE00DA5
:101B6000F11D929FF00D839FF00D749FF00D659F06
:101B7000F00D9927729FB00DE11DF91F639FB00D05
:101B8000E11DF91FBD01CF0111240895991B79E0D2
:101B900004C0991F961708F0961B881F7A95C9F7FD
:101BA0008095089587FB082E062687FD819567FDA1
:101BB0006195ECDF0EF4919507FC81950895AA1BC1
:101BC000BB1B51E107C0AA1FBB1FA617B70710F028
:101BD000A61BB70B881F991F5A95A9F7809590955A
:101BE000BC01CD01089597FB092E07260AD077FD89
:101BF00004D0E5DF06D000201AF4709561957F4F80
:101C00000895F6F7909581959F4F0895A1E21A2EB9
:101C1000AA1BBB1BFD010DC0AA1FBB1FEE1FFF1F90
:101C2000A217B307E407F50720F0A21BB30BE40BE0
:101C3000F50B661F771F881F991F1A9469F7609527
:101C40007095809590959B01AC01BD01CF010895E1
:101C500097FB092E05260ED057FD04D0D7DF0AD0FA
:101C6000001C38F450954095309521953F4F4F4FCB
:101C70005F4F0895F6F790958095709561957F4F29
:101C80008F4F9F4F0895FB01DC014150504030F0D1
:101C90008D910190801919F40020B9F7881B990BD8
:101CA0000895FB01DC014150504048F001900D9235
:101CB0000020C9F701C01D9241505040E0F708953F
:101CC000DC01CB01FC01F999FECF06C0F2BDE1BDFC
:101CD000F89A319600B40D9241505040B8F70895EB
:041CE000F894FFCFA6
:101CE4005300570045004E002D2D2E2D2D2D2D2D4A
:101CF4002D2D3F002E004750474741004750524D7D
:101D0400430056006A3100690068006A3200250009
:101D14002D0066004D54004E4F20484F4D45205035
:101D24004F5300414C54006C006D003D0048444743
:101D3400004B4D2F48003A00723131312D313600BD
:101D44004650564C522E434F4D00FF32004200AADB
:101D540000CD00FF001801FF01010101010106018E
:0A1D64000200020101020101020069
:00000001FF
