:1000000047C0A4CD60C05FC05EC05DC05CC05BC0C7
:100010005AC059C058C057C056C0C5CE54C053C0AE
:1000200052C051C050C04FC04EC04DC04CC04BC05C
:100030004AC049C00002030507090A0C0E1011133B
:100040001516181A1C1D1F2122242527292A2C2D9C
:100050002F303234353638393B3C3E3F4042434402
:10006000454748494A4B4D4E4F50515253545556AF
:10007000575758595A5B5B5C5D5D5E5F5F606061BE
:1000800061616262626363636364646464646400A4
:1000900011241FBECFEFD4E0DEBFCDBF11E0A0E042
:1000A000B1E0E4E8FFE102C005900D92A037B1078E
:1000B000D9F714E0A0E7B1E001C01D92AC34B1075C
:1000C000E1F7C9D55DCF9CCF4F925F926F927F923F
:1000D0008F929F92AF92BF92CF92DF92EF92FF9258
:1000E0001F93CF93DF9300D000D0CDB7DEB76B0165
:1000F0007C0197FD74C011E0C701B60120E432E431
:100100004FE050E0F5DE422E552466247724C701E7
:10011000B60120E137E240E050E0EADE69837A830D
:100120008B839C83C301B2012CE330E040E050E0BC
:100130006BDE4B015C01C301B20120EC3DEB40EFF3
:100140005FEF62DE6C0D7D1D8E1D9F1D20E137E28D
:1001500040E050E0CDDE820E911CA11CB11CC50117
:10016000B4012CE330E040E050E04EDE6B017C0156
:1001700069817A818B819C8147DE4B015C01C701DB
:10018000B60124E630E040E050E03EDE6B017C0149
:10019000C501B4018BDEC20ED31EE41EF51E1F3F47
:1001A00041F4F094E094D094C094C11CD11CE11CA3
:1001B000F11CC701B6010F900F900F900F90DF91C7
:1001C000CF911F91FF90EF90DF90CF90BF90AF90B5
:1001D0009F908F907F906F905F904F900895F094D4
:1001E000E094D094C094C11CD11CE11CF11C1FEF01
:1001F00083CF4F925F926F927F928F929F92AF9236
:10020000BF92CF92DF92EF92FF920F931F93CF9303
:10021000DF932C01D62F49015A0189019A01B7FCBD
:1002200079C0C1E00A3011052105310594F09AE04A
:10023000C92ED12CE12CF12CC901B801A7019601DE
:1002400057DE89019A01CF5F0A301105210531057A
:100250009CF7B7FC5DC08D2F90E09C012C0F311DE9
:100260002132310594F081E2DF91CF911F910F91FE
:10027000FF90EF90DF90CF90BF90AF909F908F90C6
:100280007F906F905F904F900895480E591EB7FC75
:1002900049C010E0320100E08AE0C82ED12CE12CE8
:1002A000F12C01C0082FC501B401A701960120DE81
:1002B000605DF30161933F01802F8F5F49015A0117
:1002C00012161306140615066CF31F3FA9F1E82F4A
:1002D000FF27E7FDF095E40DF51D10828150682F92
:1002E0006695282F30E040E0842F90E0F201E80F7F
:1002F000F91F5081D901A81BB90BA40DB51D8C9114
:1003000080835C934F5F641778F78C2F8D0FACCF91
:10031000CF5FA1CF002711279801081919092A09D1
:100320003B097FCFB094A09490948094811C911C41
:10033000A11CB11C1FEFAECFE82FFF27E7FDF09502
:10034000E40DF51D8DE28083802F8E5FC0CF0F936B
:100350001F93CF93DF938C01D62FFA01DA010D9012
:100360000020E9F71197CA2FC41B70E08C2F90E092
:100370009B01280F391F213231057CF041E250E00A
:10038000C1E2C801860F971FBF01DBDD8C2F8D0FE7
:10039000DF91CF911F910F910895AC01F2CF4F9251
:1003A0005F926F927F929F92AF92BF92CF92DF92B5
:1003B000EF92FF920F931F93CF93DF9300D000D063
:1003C000CDB7DEB75C01962EDA01C90121153105E2
:1003D0004105510509F4C5C0002309F088C0121673
:1003E0001306140615060CF0C1C004E011E06C0100
:1003F0007D01B7FDC1C0C701B60120E432E44FE082
:1004000050E076DD822F90E0A0E0B0E089839A830F
:10041000AB83BC83BC01CD0120EC3DEB40EF5FEF33
:10042000F3DC6C0D7D1D8E1D9F1D24E630E040E049
:1004300050E0EADC2CE330E040E050E037DD290119
:100440003A0184E790E0A0E0B0E0480E591E6A1E31
:100450007B1EC501692D29813A814B815C81C9DEF2
:10046000682FC50144E151E072DF982E90E14916F2
:1004700097E2590690E0690690E07906D8F4730196
:100480006201C701B6012AE030E040E050E0BCDC88
:100490006B017C01C501692D20E030E0A901A9DED6
:1004A000982EA0E1CA16A7E2DA06A0E0EA06A0E0CC
:1004B000FA0638F3C501692DA30192019ADE682F6F
:1004C000C501A80144DF0F900F900F900F90DF91AE
:1004D000CF911F910F91FF90EF90DF90CF90BF9041
:1004E000AF909F907F906F905F904F9008951216FD
:1004F000130614061506ECF502E011E06C017D010F
:10050000B7FD43C0C701B60120E432E44FE050E03C
:10051000EFDC822F90E0A0E0B0E089839A83AB8388
:10052000BC83BC01CD0120EC3DEB40EF5FEF6CDC08
:100530006C0D7D1D8E1D9F1D24E630E040E050E0D7
:1005400063DC2CE330E040E050E0B0DC29013A010C
:1005500081E390E0A0E0B0E0480E591E6A1E7B1EC9
:1005600078CFC50148E051E0F2DEADCF06E011E002
:100570003ECF00E011E0C2CFF094E094D094C0945C
:10058000C11CD11CE11CF11C36CFF094E094D09436
:10059000C094C11CD11CE11CF11CB4CFFF920F937D
:1005A0001F93CF93DF93FF24F3948091D2038D3276
:1005B00009F0FF24EF2DF0E0EE52FC4FD0818D2F9B
:1005C00080538A3090F000E010E09801FF20A1F500
:1005D00061E070E080E090E0A901980115DCDF9116
:1005E000CF911F910F91FF900895CF2D00E010E063
:1005F0009801C901B8012AE030E040E050E004DC95
:10060000DC01CB010D2F10E000531040222717FD15
:100610002095322F080F191F2A1F3B1FCF5FEC2F89
:10062000F0E0EE52FC4FD0818D2F80538A3070F66F
:10063000CB30F8F2FF2061F26FEF7FEFCB01CCCF30
:10064000FF920F931F93CF93DF93FF24F394809136
:10065000D2038D3209F0FF24CF2D00E010E0980185
:1006600018C0C901B8012AE030E040E050E0CCDB1E
:10067000DC01CB010D2F10E000531040222717FDA5
:100680002095322F080F191F2A1F3B1FCF5FCB3039
:1006900058F4EC2FF0E0EE52FC4FD0818D2F8053B8
:1006A0008A30F8F2DE3291F3FF2069F461E070E005
:1006B00080E090E0A9019801A7DBDF91CF911F9125
:1006C0000F91FF9008956FEF7FEFCB01F3CF8091F3
:1006D000D003882381F18091CF03882359F1809141
:1006E0005D01853689F0863608F044C0843009F40F
:1006F00075C0853008F07EC0823009F447C0833071
:1007000008F021C18130B1F449DFDC01CB018093D5
:10071000810190938201A0938301B0938401089595
:1007200080E090E0DC0121E03091D103381320E03B
:1007300020938F01089582ED93E066E171E045E03A
:1007400050E0F1DB009781F082ED93E06CE171E025
:1007500045E050E0E8DB009769F782E08093D00342
:1007600084E680935D01089581E08093D003109228
:100770005D0108958A36B1F08B3608F04EC0883698
:1007800009F4E1C0893650F58736A1F659DFDC015E
:10079000CB018093770190937801A0937901B09376
:1007A0007A0108958091D203873521F680917B01EB
:1007B00090917C01A0917D01B0917E01B095A095B2
:1007C000909581959F4FAF4FBF4F80937B01909342
:1007D0007C01A0937D01B0937E01089531DFDC019F
:1007E000CB0180937B0190937C01A0937D01B0931A
:1007F0007E010895863009F4A0C0863098F28730D3
:1008000009F495C0893009F095CFC8DEDC01CB0131
:100810009093800180937F0108958C3609F47FC006
:100820008C3608F468C08D3609F459C0883C09F04C
:1008300081CF2091D203222309F472CFE3EDF3E0BC
:1008400080E090E0DC0115C030E027533040A90182
:10085000662757FD6095762F840F951FA61FB71F3B
:100860002191222309F45FCF33E0EE3DF30709F431
:100870005ACF880F991FAA1FBB1F880F991FAA1F45
:10088000BB1F880F991FAA1FBB1F880F991FAA1F84
:10089000BB1F322F31543630B8F2322F315636303A
:1008A00068F430E027553040A901662757FD609570
:1008B000762F840F951FA61FB71FD2CF322F30532C
:1008C0003A3070F630E020533040A901662757FDDA
:1008D0006095762F840F951FA61FB71FC1CF5EDED0
:1008E000DC01CB0180938B0190938C01A0938D014F
:1008F000B0938E01089552DEAB01BC012FEC31E0C4
:10090000429FC001439F900D529F900D11246AEFAA
:1009100070E0A5DA709388016093870108953EDE48
:10092000DC01CB0190938A0180938901089536DE22
:10093000DC01CB0180938601089530DEDC01CB0120
:100940008093850108958091D203833509F0F2CE1A
:100950008091770190917801A0917901B0917A010D
:10096000B095A095909581959F4FAF4FBF4F8093C5
:10097000770190937801A0937901B0937A0108955B
:10098000CF92DF92EF92FF92CF93DF93EC01E62FAD
:10099000F0E0EE0FFF1FEF5CFB4FC080DD24EE2484
:1009A000FF24218130E040E050E064E022DCFE01E1
:1009B000E80FF11D9EE29083682F6F5F9AE0C916E1
:1009C000D104E104F10434F4FE01E60FF11D90E3DB
:1009D00090836F5FCE01A70196010BDC682FCE01DB
:1009E00042E251E0B4DCDF91CF91FF90EF90DF90D5
:1009F000CF900895883110F4683108F00895482F99
:100A000046954695469550E08095877021E030E008
:100A100002C0220F331F8A95E2F7FA01EE0FFF1F83
:100A2000E40FF51FEE0FFF1FEE0FFF1FEE0FFF1F6E
:100A3000E60FF11DEF51FC4F8081822B80830895DA
:100A4000CF92DF92EF92FF920F931F93CF93DF939A
:100A5000982FC42F022F10E0E62EFF24C42EDD2491
:100A6000A82FB0E0A8014E195F0957FD5AC0F60142
:100A7000EA1BFB0BF7FD5DC0D1E0E417F507ECF1D5
:100A8000D0E06801D701C91708F43FC0AD01D60115
:100A90006A01621708F442C0EE24EA94C91720F1F3
:100AA000FC2EF91A1F2DF7FC4CC01595062FAC191A
:100AB000BD09B7FD42C0DA2EC92E09C0802F6C2DAA
:100AC00099DF1D1917FD0BC0C394CC1568F0DD2309
:100AD000A9F78C2D602F8EDF1D1917FFF5CF0E0D96
:100AE0001F0DC394CC1598F7DF91CF911F910F91F3
:100AF000FF90EF90DF90CF9008958C2FC22F282F7A
:100B0000892F962F682FC91708F6862F622F282F56
:100B1000892F9C2FC82F621708F0BECFEE24E394D4
:100B2000BDCF509541955F4FF601EA1BFB0BF7FFD8
:100B3000A3CFF095E195FF4F9FCFB095A195BF4F03
:100B4000BACF1F5FB2CFFF920F931F93CF93DF9364
:100B500000D000D00F92CDB7DEB7182F81E0982FCC
:100B6000911B9D838C83812F8195880F8B831A82A3
:100B70001983BBE0FB2EF10E8BE06F2D3BDF0BE00A
:100B8000011B8BE0602F36DF8F2D6BE033DF802F72
:100B90006BE030DF9A81898198170CF051C01BE01F
:100BA0008D8187FD0AC08981815089838B818E5F09
:100BB0008B839D818B81890F8D838A818F5F8A834F
:100BC0008C818E5F8C839D818C81890F8D838A813E
:100BD0006981655F855F0EDF8A816981655F912F1D
:100BE000981B892F07DF8A819981612F691B855F97
:100BF00001DF8A819981612F691B912F981B892FB1
:100C0000F9DE89816A81655F855FF4DE89816A81A9
:100C1000655F912F981B892FEDDE89819A81612F65
:100C2000691B855FE7DE89819A81612F691B912F9E
:100C3000981B892FDFDE9A81898198170CF4B0CF39
:100C40000F900F900F900F900F90DF91CF911F9109
:100C50000F91FF900895CF93DF93CDB7DEB76797DD
:100C60000FB6F894DEBF0FBECDBF20E12BB988E0F0
:100C70008AB929988CE084B980916F008160809353
:100C80006F008091810082608093810083E0809377
:100C9000690031E03DBB80E880BF10927B001EBC44
:100CA0008DB58E7F8DBD84E58CBDE091B401F0E003
:100CB000EE0FFF1FEF5AFE4F808191819093CE037C
:100CC0008093CD0310927E0080917C00806480939D
:100CD0007C0080917A00866080937A0010927B007D
:100CE0003093C50087E38093C40086E08093C20000
:100CF0002093C10078946DEB662E62E0762E809191
:100D0000C00087FD11C14C9992C081E080937501AC
:100D1000809176018333E8F0109276015B9A80919E
:100D20008F018823B1F080918501882391F0A0E99B
:100D3000B1E0EAE9F1E08AE001900D928150E1F73B
:100D400081E08093B30110927401109272011092AD
:100D5000730180917001823009F476C08091700136
:100D6000813069F61092700180917501882329F015
:100D7000809176018F5F809376018091740169E1A3
:100D800062D8992309F496C2809174018F5F809391
:100D9000740180917401823378F010927401809113
:100DA00072018F5F809372018091710190E00196D2
:100DB0008170907080937101809172018C3338F052
:100DC00010927201809173018F5F80937301809103
:100DD00073018C3310F01092730181E010E0E82E63
:100DE000212F30E081E290E0289FF001299FF00D53
:100DF000389FF00D1124EB54FE4F81E21192815087
:100E0000E9F7112309F4B8C0113009F4C2C1123056
:100E100009F4F8C1133009F454C3143009F40AC2B8
:100E200076E0E71609F4DCC01F5FE394D9CF809128
:100E3000750181115B981092750110927601809175
:100E40007001823009F08ACF109270012091B401B4
:100E500030E081E290E0289FD001299FB00D389FBB
:100E6000B00D1124AB54BE4F4BE7E42E42E0F42EFC
:100E7000F70180E090E013C02B3508F071C1822F9C
:100E800090E0880F991F880F991F880F991F88522B
:100E900091408193919342E0ED3BF40769F02D91ED
:100EA000203211F0222341F78FEF9FEF819391932E
:100EB00042E0ED3BF40799F700E010E0A8E0DA2EFD
:100EC000CC24CA94D7018D909D907D0180915001D2
:100ED000992787FD90958816990671F0BFEF8B16BC
:100EE000BFEF9B0609F44CC18DEB92E0B40148E0E2
:100EF00050E036D8809250018091BD02F801EB534A
:100F0000FD4FAEEBB2E001C08D918083B19622E03F
:100F1000A53CB207C9F70F5F1F4F0132110591F6CB
:100F20008091C00087FFEFCE1091C60090915D01C7
:100F30009F3F09F4FFC3143209F4FFC3153208F0D0
:100F400012C31A3009F409C41D3009F406C4809193
:100F5000CF03E82FF0E0EE52FC4F1083983C29F0CD
:100F60009091D10391279093D1038A3008F0CBCE92
:100F70008F5F8093CF03C7CE85EB91E061E044E2C1
:100F800051E0E5D980913C04882321F080917101E2
:100F9000882321F085EB91E060E0F2DC80913B0456
:100FA000882331F085EB91E06CE047E251E0CFD946
:100FB00085EB91E062E149E251E0C9D9682F6E5FAB
:100FC00020919A0130919B0140919C0150919D018B
:100FD00085EB91E001E0E3D976E0E71609F024CF54
:100FE00080E090E0FC01EE0FFF1FE80FF91FEE0F0D
:100FF000FF1FEE0FFF1FEE0FFF1FEF51FC4F20E012
:1010000011922F5F2831E1F701968330910551F756
:10101000E0902904F0902A040091AC011091AD01F8
:101020008BE091DD80912B0490912C04A0912D04F4
:10103000B0912E048A309105A105B10508F46CC267
:1010400080918501882309F46AC2C701801B910B36
:101050008C01865A9F4F68E671E001D7843B910569
:1010600008F426C1845B90404FEF8A35910530F03B
:1010700024EB30E0D901A81BB90BCD018C5C9F4F4C
:10108000FC018491849F202D1124C80168E671E041
:10109000E6D6843B910508F409C1845B90403FEF9C
:1010A0008A35910530F064EB70E04B01881A990A9B
:1010B000C4018C5C9F4FFC018491839F402D1124BF
:1010C000822F992787FD9095880F991F880F991F68
:1010D000880F991F24E630E0B901D5D64B01842F43
:1010E000992787FD9095880F991F880F991F880F62
:1010F000991FB901C8D68B01682DBBE0EB2EE00E1D
:101100008BE0D82ED818655F801B4E2D2D2D98DCD6
:10111000C40197FC5CC395958795909581959F4FE9
:10112000482F455F980117FD4FC3C90195958795D5
:10113000909581959F4F282F255F8E2D6D2D80DCFA
:1011400097FC3EC3A40155954795455F17FD35C3F0
:1011500015950795202F255F8E2D6D2D71DCCFCD38
:10116000322F3556393008F094CE822F90E0880F18
:10117000991F880F991F880F991F8057914089CE1A
:10118000F3018D2C11928A94E9F7C092500180E00E
:10119000B5CE90913A0484E6989FC0011124209125
:1011A0003904820F911D009791F086ED91E061E086
:1011B0004BE251E0CCD880913D04882321F080910E
:1011C0007101882321F086ED91E061E0D9DB809107
:1011D000A801882341F12091A90130E040E050E0CE
:1011E00086ED91E06CE005D820919E0130919F0141
:1011F0004091A0015091A10186ED91E06FE000E0E7
:10120000CED80ECE8091B301882309F093C180918E
:101210007101882309F404CE87EF91E06AE045E389
:1012200051E095D8FDCD86ED91E06CE04EE251E0C5
:101230008ED8DACF2091AA013091AB0140E050E086
:1012400089E392E060E0D5D789E392E065E049E484
:1012500051E07DD8809173018A3008F05BC180E352
:10126000809354026CE12091730130E040E050E043
:1012700089E392E0BED7682F89E392E04EE451E023
:1012800066D8682F809172018A3038F4E62FF0E03A
:10129000E75CFD4F80E380836F5F2091720130E057
:1012A00040E050E089E392E0A4D7BACD31E0F8CE37
:1012B00041E0DBCE80918501882309F474C15B9AFB
:1012C0008091B301882309F077C1FFE34F2EF4E04A
:1012D0005F2EAEE52A2EA1E03A2E22E631E03E83D3
:1012E0002D8382E394E01982BAE0CB2ED12CE12C3D
:1012F000F12C988B8F8780917C00807F80937C007D
:1013000080917C008980882980937C0080917A007C
:10131000806A80937A0080917A00806480937A005A
:101320002F85388980917A0084FFFCCF388B2F87F6
:1013300080917A00806180937A0080917A008F7525
:1013400080937A002091780030917900D2012D931A
:101350003D932D0146E351E048D5A7019601A6D55E
:10136000F10161911F0170E080E090E04DD5AD8109
:10137000BE812D91BE83AD8330E040E050E096D534
:1013800089019A01480159018AE0B694A79497947B
:1013900087948A95D1F78B869C86AD86BE864F85CD
:1013A0005889415050405A874987882D90E0982F9E
:1013B0008827990F990FA0E0B0E048015901881AD9
:1013C000990AAA0ABB0AC501B40124E630E040E04C
:1013D00050E01AD5DC01CB01EAE0B695A7959795C8
:1013E0008795EA95D1F7E985FA858083EB85AF8506
:1013F000B889EC93F981FF5FF9831296B88BAF87B8
:10140000F43009F078CF80913104909132049093B8
:10141000300480932F04809133049091340490938E
:101420003A04809339042091360484E6289F900181
:10143000112480913504280F311D41E0253F3407E8
:1014400008F0B8C12937310508F4C3C12857304026
:1014500044E650E0249FC001259F900D349F900DDD
:1014600011246CE771E0FBD421E06E3108F020E03C
:1014700060933B049091300484E6989FC00111244E
:1014800030912F04830F911D31E053E0883E950782
:1014900008F030E030933C0490913A0484E6989F41
:1014A000C001112430913904830F911D31E063E0B4
:1014B000883E960708F030E030933D0420933E04C8
:1014C00063CC88E192E060E041E451E040D72091B4
:1014D000A2013091A3018091980190919901281B5C
:1014E000390B442737FD4095542F88E192E067E09F
:1014F00080D688E192E069E145E451E028D7209167
:10150000AC013091AD0140E050E088E192E06DE146
:1015100070D68ACC6BE1A7CE82E015DBF0CB85E0FC
:1015200065E041E121E18CDA85E061E141E125E01E
:1015300087DAE5CB87EF91E060E040E351E007D741
:1015400087EF91E062E042E351E001D720912B0464
:1015500030912C0440912D0450912E0487EF91E09E
:1015600065E047D661CC1A3241F01C3209F0EFCC6D
:101570008091D10381278093D103A9D8E2EDF3E0D4
:10158000119233E0ED3DF307D9F71092CF0380912C
:101590005D018F5F80935D011A3209F0B4CB88EC56
:1015A00080935D01B0CB8BB198E089278BB9809196
:1015B000B301882309F489CEC0909A01D0909B0191
:1015C000E0909C01F0909D0120909E0130909F0141
:1015D0004090A0015090A1018090900190909101C5
:1015E000A0909201B0909301409194015091950187
:1015F000609196017091970149835A836B837C8334
:10160000C814D904EA04FB0409F418C2D701C601BE
:10161000880D991DAA1DBB1DB7FD81C2BC01CD015E
:1016200020E834E84EE150E041D4C901865A9F4F8A
:1016300068E671E014D4843B910508F419C2845B18
:1016400090405FEF5D838A35910530F024EB30E008
:10165000A901481B590BCA018C5C9F4FFC014491A6
:10166000C701B6014F8B30D58B019C01C501B40178
:101670002B8B3C8B29D54B015C01C201B10124D5D8
:101680006B017C0169817A818B819C811DD56C19EC
:101690007D098E099F092B893C89801A910AA20A2B
:1016A000B30A4F893D81439F202D1124332727FD05
:1016B0003095432F532FA8D324E630E040E050E08C
:1016C00017D469017A01F2E02F2E312C412C512CD4
:1016D00011E024C04F3F8FEF580780E0680780E09B
:1016E000780768F4D501C401B7FC76C08F3FEFEFEF
:1016F0009E07E0E0AE07E0E0BE0708F475C0C70152
:10170000B601A2019101F4D369017A01C501B401C6
:10171000A2019101EDD349015A01110FB701A601B0
:10172000F7FED8CF44275527BA014C195D096E0939
:101730007F09D0CF143209F0E6CA1092CF0310927D
:10174000D0031092D10310925D01E2EDF3E011920B
:1017500023E0ED3DF207D9F7D6CAB9D74FEF409352
:101760005D0120917F01309180018091A2019091D3
:10177000A301821793070CF074C181E08093DD030D
:1017800080918F01882309F4BECAAAE9B1E0E7E796
:10179000F1E089E101900D928150E1F781E08093C1
:1017A000DE0380917201909173019093E003809326
:1017B000DF03A9CA20E064E65BCE0F5F1F4FC8CCF1
:1017C0000894811C911CBECC2F5F3F4FAECC01967C
:1017D000A2CC21E060E04CCE88279927DC01881953
:1017E0009909AA09BB0982CF19871A012B018F8792
:1017F000988BA98BBA8BC701B601A701960104D3B8
:1018000069837A838B839C83C501B401A50194010C
:10181000FBD28B019C01892F9927AA27BB274981DD
:101820005A816B817C81472F552766277727840F44
:10183000951FA61FB71F8F3F9105A105B10509F0A0
:1018400008F419C169817A818B819C81969587956D
:1018500077956795969587957795679569837A8348
:101860008B839C83369527951795079536952795F5
:101870001795079582E090E0A0E0B0E08B879C8709
:10188000AD87BE8769817A818B819C81600F711FD2
:10189000821F931F69837A838B839C839695879598
:1018A000779567956D837E838F8398876115710522
:1018B0008105910509F4BDC080E090E09E8B8D8B81
:1018C0000CC0AD89BE891196BE8BAD8BAA31B10516
:1018D00021F10D831E832F83388769817A818B8163
:1018E0009C812D813E814F815885E0D289019A01EA
:1018F0008D819E81AF81B885080F191F2A1F3B1F5C
:101900003695279517950795801B910BA20BB30B66
:1019100082309105A105B105A0F6C901B8012B855A
:101920003C854D855E8570D269837A838B839C83E9
:10193000611571058105910509F478C02F853889F5
:1019400049895A89221633064406550608F4ACC064
:10195000CA01B90124E630E040E050E055D22981C7
:101960003A814B815C81A2D2422E20E030E041E0FE
:1019700080E090E018E6212E11E0312E04EB10E01B
:101980008C5C9F4FFC018491849F402D1124441650
:10199000E4F02A353105C9F02F5F3F4FC901B1018D
:1019A0005ED2843B910558F0845B90404FEF8A35BE
:1019B000910530F3B801681B790BCB01E1CF41E011
:1019C000F6CF2AE530E02219330981149104A104ED
:1019D000B10409F05CC0F7FC57C08AE590E0909331
:1019E0002A048093290469817A818B819C8125E373
:1019F00031E040E050E008D228EE33E040E050E033
:101A000055D269017A018984282D30E040E050E008
:101A1000C701B601F9D1DC01CB0180932B0490936F
:101A20002C04A0932D04B0932E044FCC80E090E0C2
:101A3000D6CF09811A812B813C816FCF24163506C0
:101A40004606570609F0E2CD10922B0410922C04A2
:101A500010922D0410922E0410922A041092290440
:101A600034CC281739070CF08BCE4093DD0388CE99
:101A700021E02D83E8CD41E050E060E070E04B874D
:101A80005C876D877E87FECE8EE091E0A8CF18142C
:101A900019041A041B040CF04EC0F7FC48C08AE578
:101AA00090E0821B930B9BCFC201B10124E630E092
:101AB00040E050E0A9D129813A814B815C81F6D187
:101AC000422E41E02224332480E090E028E631E0F9
:101AD00004EB10E08C5C9F4FFC018491849F402DAF
:101AE000112444160CF46DCFFAE52F16310409F4D5
:101AF00068CF0894211C311CC101B901B0D1843BCD
:101B0000910558F0845B90404FEF8A35910510F3B2
:101B1000B801681B790BCB01DDCF41E0F6CFB09562
:101B2000A095909581959F4FAF4FBF4F77CDC9013D
:101B3000825F9E4F54CFF7FC04C0C901865A9F4F65
:101B40004ECF8EE091E0821B930B49CF1F920F92F4
:101B50000FB60F9211242F933F934F935F936F9380
:101B60007F938F939F93AF93BF93EF93FF931092C5
:101B700085001092840088E28A95F1F74A997EC028
:101B800060914704709148046115710509F439C0EA
:101B900080914904813009F48FC0823009F031C04E
:101BA000E3E1F1E03197F1F700C0000020914A0431
:101BB00030E080E090E02F513C4FF901E80FF91F31
:101BC00040814EBD219A000000000000000000008E
:101BD0000000000000000000000000000000000005
:101BE00000000000000000000000000000000000F5
:101BF00000000000489688349105F9F6219800000D
:101C00001EBC10924904CB01019690934804809326
:101C100047048E369105F1F18F36910509F484C0A1
:101C20004091CD035091CE03209166013091670120
:101C30008417950718F08217930780F1821793078E
:101C400009F483C0685670406831710530F492E041
:101C500090934904895680934A04FF91EF91BF9174
:101C6000AF919F918F917F916F915F914F913F9134
:101C70002F910F900FBE0F901F90189580914704E1
:101C800090914804893C910540F3109248041092C9
:101C90004704E3CF21E020937001C2CF91E09093FD
:101CA0004904841B80934A04909168019230A9F6FC
:101CB000869580934A04D1CF2091B40198E19A95FA
:101CC000F1F7A0914A0430E081E290E0289FF00112
:101CD000299FF00D389FF00D1124EB54FE4F81E247
:101CE000A89FD0011124AB53BD4F16C0219A9D91DE
:101CF0009EBD000000000000000000000000000089
:101D000000000000000000000000000000000000D3
:101D100000000000815061F09191903211F0992300
:101D200029F721980000E3CF22E02093700178CFBB
:101D300000000000000000000000000000000000A3
:101D4000000000001EBC21985CCF82E080937001EF
:101D50008091B40190E0019666E070E094D08093A9
:101D6000B401FC01EE0FFF1FEF5AFE4F20813181BD
:101D70003093CE032093CD0387599E4FFC01808181
:101D80008093680190E0880F991F880F991F880F32
:101D9000991F820F931F909367018093660181E0E2
:101DA00080934A045ACF1F920F920FB60F921124BC
:101DB0002F933F938F939F93809147049091480472
:101DC00020914B0430E02817390721F42BB138E07B
:101DD00023272BB980934B049F918F913F912F9193
:101DE0000F900FBE0F901F901895539FC001429FF8
:101DF000B001529F700D811D1124911D349F700DF3
:101E0000811D1124911D0895629FD001739FF001DF
:101E1000829FE00DF11D649FE00DF11D929FF00D7A
:101E2000839FF00D749FF00D659FF00D9927729FB1
:101E3000B00DE11DF91F639FB00DE11DF91FBD013C
:101E4000CF0111240895991B79E004C0991F9617BA
:101E500008F0961B881F7A95C9F780950895AA1BEC
:101E6000BB1B51E107C0AA1FBB1FA617B70710F085
:101E7000A61BB70B881F991F5A95A9F780959095B7
:101E8000BC01CD01089597FB092E07260AD077FDE6
:101E900004D0E5DF06D000201AF4709561957F4FDD
:101EA0000895F6F7909581959F4F0895A1E21A2E17
:101EB000AA1BBB1BFD010DC0AA1FBB1FEE1FFF1FEE
:101EC000A217B307E407F50720F0A21BB30BE40B3E
:101ED000F50B661F771F881F991F1A9469F7609585
:101EE0007095809590959B01AC01BD01CF0108953F
:101EF00097FB092E05260ED057FD04D0D7DF0AD058
:101F0000001C38F450954095309521953F4F4F4F28
:101F10005F4F0895F6F790958095709561957F4F86
:101F20008F4F9F4F0895FB01DC014150504030F02E
:101F30008D910190801919F40020B9F7881B990B35
:101F40000895FB01DC014150504048F001900D9292
:101F50000020C9F701C01D9241505040E0F708959C
:101F6000DC01CB01FC01F999FECF06C0F2BDE1BD59
:101F7000F89A319600B40D9241505040B8F7089548
:041F8000F894FFCF03
:101F840053004E00450057002D2D2E2D2D2D2D2DA7
:101F94002D2D3F002E004750474741004750524DDA
:101FA400430056006A3100690068006A32002D005F
:101FB40066004D54004E4F20484F4D4520504F531E
:101FC40000414C5400484447004B4D2F48003A0010
:101FD400FF32004200AA00CD00FF001801FF0101FA
:101FE40001010101060102000201010201010200D6
:00000001FF
