:1000000047C0A3CD60C05FC05EC05DC05CC05BC0C8
:100010005AC059C058C057C056C0C4CE54C053C0AF
:1000200052C051C050C04FC04EC04DC04CC04BC05C
:100030004AC049C00002030507090A0C0E1011133B
:100040001516181A1C1D1F2122242527292A2C2D9C
:100050002F303234353638393B3C3E3F4042434402
:10006000454748494A4B4D4E4F50515253545556AF
:10007000575758595A5B5B5C5D5D5E5F5F606061BE
:1000800061616262626363636364646464646400A4
:1000900011241FBECFEFD4E0DEBFCDBF11E0A0E042
:1000A000B1E0E2E8FFE102C005900D92A237B1078E
:1000B000D9F714E0A2E7B1E001C01D92AE34B10758
:1000C000E1F7AFD55CCF9CCF4F925F926F927F925A
:1000D0008F929F92AF92BF92CF92DF92EF92FF9258
:1000E0001F93CF93DF9300D000D0CDB7DEB76B0165
:1000F0007C0197FD74C011E0C701B60120E432E431
:100100004FE050E0F4DE422E552466247724C701E8
:10011000B60120E137E240E050E0E9DE69837A830E
:100120008B839C83C301B2012CE330E040E050E0BC
:100130006ADE4B015C01C301B20120EC3DEB40EFF4
:100140005FEF61DE6C0D7D1D8E1D9F1D20E137E28E
:1001500040E050E0CCDE820E911CA11CB11CC50118
:10016000B4012CE330E040E050E04DDE6B017C0157
:1001700069817A818B819C8146DE4B015C01C701DC
:10018000B60124E630E040E050E03DDE6B017C014A
:10019000C501B4018ADEC20ED31EE41EF51E1F3F48
:1001A00041F4F094E094D094C094C11CD11CE11CA3
:1001B000F11CC701B6010F900F900F900F90DF91C7
:1001C000CF911F91FF90EF90DF90CF90BF90AF90B5
:1001D0009F908F907F906F905F904F900895F094D4
:1001E000E094D094C094C11CD11CE11CF11C1FEF01
:1001F00083CF4F925F926F927F928F929F92AF9236
:10020000BF92CF92DF92EF92FF920F931F93CF9303
:10021000DF932C01D62F49015A0189019A01B7FCBD
:1002200079C0C1E00A3011052105310594F09AE04A
:10023000C92ED12CE12CF12CC901B801A7019601DE
:1002400056DE89019A01CF5F0A301105210531057B
:100250009CF7B7FC5DC08D2F90E09C012C0F311DE9
:100260002132310594F081E2DF91CF911F910F91FE
:10027000FF90EF90DF90CF90BF90AF909F908F90C6
:100280007F906F905F904F900895480E591EB7FC75
:1002900049C010E0320100E08AE0C82ED12CE12CE8
:1002A000F12C01C0082FC501B401A70196011FDE82
:1002B000605DF30161933F01802F8F5F49015A0117
:1002C00012161306140615066CF31F3FA9F1E82F4A
:1002D000FF27E7FDF095E40DF51D10828150682F92
:1002E0006695282F30E040E0842F90E0F201E80F7F
:1002F000F91F5081D901A81BB90BA40DB51D8C9114
:1003000080835C934F5F641778F78C2F8D0FACCF91
:10031000CF5FA1CF002711279801081919092A09D1
:100320003B097FCFB094A09490948094811C911C41
:10033000A11CB11C1FEFAECFE82FFF27E7FDF09502
:10034000E40DF51D8DE28083802F8E5FC0CF0F936B
:100350001F93CF93DF938C01D62FFA01DA010D9012
:100360000020E9F71197CA2FC41B70E08C2F90E092
:100370009B01280F391F213231057CF041E250E00A
:10038000C1E2C801860F971FBF01DADD8C2F8D0FE8
:10039000DF91CF911F910F910895AC01F2CF0F9390
:1003A0001F93CF93DF93EC0124DF682FCE01A801C8
:1003B000CEDFDF91CF911F910F9108954F925F9201
:1003C0006F927F928F929F92AF92BF92CF92DF9265
:1003D000EF92FF920F931F93CF933C01C62F6901B9
:1003E0007A01211531054105510509F49DC000230D
:1003F00009F063C012161306140615060CF098C017
:1004000044E0442E41E0542EF7FC9CC0C701B601E5
:1004100020E432E44FE050E06ADD49015A019924BA
:10042000AA24BB24C501B40120EC3DEB40EF5FEFF3
:10043000EADC6C0D7D1D8E1D9F1D24E630E040E042
:1004400050E0E1DC2CE330E040E050E02EDD6901DB
:100450007A0180ED9DE1A0E0B0E0C80ED91EEA1E51
:10046000FB1EC3016C2FA501940104E111E097DF8D
:10047000682F90E1C91697E2D90690E0E90690E06E
:10048000F90630F4C30120E030E0A901B2DE682FA4
:10049000C301A7019601820182DFCF911F910F91C5
:1004A000FF90EF90DF90CF90BF90AF909F908F9094
:1004B0007F906F905F904F90089512161306140668
:1004C0001506DCF552E0452E51E0552EF7FC43C0F1
:1004D000C701B60120E432E44FE050E008DD4901F5
:1004E0005A019924AA24BB24C501B40120EC3DEB98
:1004F00040EF5FEF88DC6C0D7D1D8E1D9F1D24E697
:1005000030E040E050E07FDC2CE330E040E050E0C1
:10051000CCDC69017A018DE494E1A0E0B0E0C80E82
:10052000D91EEA1EFB1E9DCF48E051E010DFB5CF7B
:1005300026E0422E21E0522E67CF30E0432E31E0FC
:10054000532EC4CFF094E094D094C094C11CD11C1D
:10055000E11CF11C5BCFF094E094D094C094C11CDA
:10056000D11CE11CF11CB4CFFF920F931F93CF93CA
:10057000DF93FF24F3948091D4038D3209F0FF249C
:10058000EF2DF0E0EC52FC4FD0818D2F80538A305C
:1005900090F000E010E09801FF20A1F561E070E02C
:1005A00080E090E0A90198012EDCDF91CF911F91AE
:1005B0000F91FF900895CF2D00E010E09801C90140
:1005C000B8012AE030E040E050E01DDCDC01CB0166
:1005D0000D2F10E000531040222717FD2095322FD9
:1005E000080F191F2A1F3B1FCF5FEC2FF0E0EC52C2
:1005F000FC4FD0818D2F80538A3070F6CB30F8F2CB
:10060000FF2061F26FEF7FEFCB01CCCFFF920F9312
:100610001F93CF93DF93FF24F3948091D4038D3203
:1006200009F0FF24CF2D00E010E0980118C0C901A7
:10063000B8012AE030E040E050E0E5DBDC01CB012E
:100640000D2F10E000531040222717FD2095322F68
:10065000080F191F2A1F3B1FCF5FCB3058F4EC2F18
:10066000F0E0EC52FC4FD0818D2F80538A30F8F2AD
:10067000DE3291F3FF2069F461E070E080E090E009
:10068000A9019801C0DBDF91CF911F910F91FF90DD
:1006900008956FEF7FEFCB01F3CF8091D2038823D2
:1006A00081F18091D103882359F180915F018536D2
:1006B00089F0863608F044C0843009F475C085306E
:1006C00008F07EC0823009F447C0833008F021C1B1
:1006D0008130B1F449DFDC01CB0180938301909339
:1006E0008401A0938501B0938601089580E090E095
:1006F000DC0121E03091D303381320E020939101F5
:10070000089584ED93E066E171E045E050E00ADC95
:10071000009781F084ED93E06CE171E045E050E0FA
:1007200001DC009769F782E08093D20384E680932E
:100730005F01089581E08093D20310925F010895D4
:100740008A36B1F08B3608F04EC0883609F4E1C025
:10075000893650F58736A1F659DFDC01CB0180934D
:10076000790190937A01A0937B01B0937C01089565
:100770008091D403873521F680917D0190917E018F
:10078000A0917F01B0918001B095A0959095819541
:100790009F4FAF4FBF4F80937D0190937E01A093F9
:1007A0007F01B0938001089531DFDC01CB0180939C
:1007B0007D0190937E01A0937F01B0938001089505
:1007C000863009F4A0C0863098F2873009F495C0CD
:1007D000893009F095CFC8DEDC01CB01909382010E
:1007E0008093810108958C3609F47FC08C3608F41B
:1007F00068C08D3609F459C0883C09F081CF20913A
:10080000D403222309F472CFE5EDF3E080E090E019
:10081000DC0115C030E027533040A901662757FDA1
:100820006095762F840F951FA61FB71F2191222355
:1008300009F45FCF33E0E03EF30709F45ACF880FA5
:10084000991FAA1FBB1F880F991FAA1FBB1F880FC4
:10085000991FAA1FBB1F880F991FAA1FBB1F322FEA
:1008600031543630B8F2322F3156363068F430E039
:1008700027553040A901662757FD6095762F840FD4
:10088000951FA61FB71FD2CF322F30533A3070F6C4
:1008900030E020533040A901662757FD6095762F40
:1008A000840F951FA61FB71FC1CF5EDEDC01CB01F1
:1008B00080938D0190938E01A0938F01B09390014E
:1008C000089552DEAB01BC012FEC31E0429FC00124
:1008D000439F900D529F900D11246AEF70E0BEDA95
:1008E00070938A016093890108953EDEDC01CB019B
:1008F00090938C0180938B01089536DEDC01CB014F
:1009000080938801089530DEDC01CB01809387015C
:1009100008958091D403833509F0F2CE8091790156
:1009200090917A01A0917B01B0917C01B095A09546
:10093000909581959F4FAF4FBF4F809379019093D2
:100940007A01A0937B01B0937C010895CF92DF924E
:10095000EF92FF92CF93DF93EC01E62FF0E0EE0FE2
:10096000FF1FED5CFB4FC080DD24EE24FF242181BE
:1009700030E040E050E064E03CDCFE01E80FF11DB7
:100980009EE29083682F6F5F9AE0C916D104E1045C
:10099000F10434F4FE01E60FF11D90E390836F5FE4
:1009A000CE01A701960125DC682FCE0142E251E07D
:1009B000CEDCDF91CF91FF90EF90DF90CF90089544
:1009C000883110F4683108F00895482F469546950F
:1009D000469550E08095877021E030E002C0220FFC
:1009E000331F8A95E2F7FA01EE0FFF1FE40FF51FA0
:1009F000EE0FFF1FEE0FFF1FEE0FFF1FE60FF11DA3
:100A0000ED51FC4F8081822B80830895CF92DF923D
:100A1000EF92FF920F931F93CF93DF93982FC42FE2
:100A2000022F10E0E62EFF24C42EDD24A82FB0E014
:100A3000A8014E195F0957FD5AC0F601EA1BFB0BCE
:100A4000F7FD5DC0D1E0E417F507ECF1D0E06801F7
:100A5000D701C91708F43FC0AD01D6016A0162177A
:100A600008F442C0EE24EA94C91720F1FC2EF91ACA
:100A70001F2DF7FC4CC01595062FAC19BD09B7FD0D
:100A800042C0DA2EC92E09C0802F6C2D99DF1D19A6
:100A900017FD0BC0C394CC1568F0DD23A9F78C2D8E
:100AA000602F8EDF1D1917FFF5CF0E0D1F0DC3949C
:100AB000CC1598F7DF91CF911F910F91FF90EF9098
:100AC000DF90CF9008958C2FC22F282F892F962F3B
:100AD000682FC91708F6862F622F282F892F9C2F81
:100AE000C82F621708F0BECFEE24E394BDCF509517
:100AF00041955F4FF601EA1BFB0BF7FFA3CFF09583
:100B0000E195FF4F9FCFB095A195BF4FBACF1F5F23
:100B1000B2CFFF920F931F93CF93DF9300D000D0FB
:100B20000F92CDB7DEB7182F81E0982F911B9D83D0
:100B30008C83812F8195880F8B831A8219839BE088
:100B4000F92EF10E8BE06F2D3BDF0BE0011B8BE0EC
:100B5000602F36DF8F2D6BE033DF802F6BE030DFCF
:100B60009A81898198170CF051C01BE08D8187FD17
:100B70000AC08981815089838B818E5F8B839D819F
:100B80008B81890F8D838A818F5F8A838C818E5FB1
:100B90008C839D818C81890F8D838A816981655FBA
:100BA000855F0EDF8A816981655F912F981B892F90
:100BB00007DF8A819981612F691B855F01DF8A8147
:100BC0009981612F691B912F981B892FF9DE8981EB
:100BD0006A81655F855FF4DE89816A81655F912F37
:100BE000981B892FEDDE89819A81612F691B855FB2
:100BF000E7DE89819A81612F691B912F981B892FCC
:100C0000DFDE9A81898198170CF4B0CF0F900F9096
:100C10000F900F900F90DF91CF911F910F91FF9048
:100C20000895CF93DF93CDB7DEB767970FB6F894EB
:100C3000DEBF0FBECDBF20E12BB988E08AB929986D
:100C40008CE084B980916F00816080936F00809107
:100C5000810082608093810083E08093690031E0AD
:100C60003DBB80E880BF10927B001EBC8DB58E7F9F
:100C70008DBD84E58CBDE091B601F0E0EE0FFF1F65
:100C8000ED5AFE4F808191819093D0038093CF03E2
:100C900010927E0080917C00806480937C00809123
:100CA0007A00866080937A0010927B003093C500B2
:100CB00087E38093C40086E08093C2002093C10044
:100CC00078946FEB662E62E0762E8091C00087FDEF
:100CD00016C14C9997C081E080937701809178018B
:100CE0008333E8F0109278015B9A80919101882318
:100CF000B1F080918701882391F0A2E9B1E0ECE99D
:100D0000F1E08AE001900D928150E1F781E080935B
:100D1000B5011092760110927401109275018091C4
:100D20007201823009F47BC080917201813069F6D2
:100D30001092720180917701882329F080917801C7
:100D40008F5F809378018091760169E17BD8992348
:100D500009F4A4C2809176018F5F8093760180911F
:100D60007601823378F010927601809174018F5F62
:100D7000809374018091730190E00196817090706E
:100D800080937301809174018C3338F01092740158
:100D9000809175018F5F80937501809175018C330F
:100DA00010F01092750191E080E0D92EE82E2E2DE2
:100DB00030E081E290E0289FF001299FF00D389FFC
:100DC000F00D1124E954FE4F81E211928150E9F7B0
:100DD000EE2009F4BCC071E0E71609F4C5C182E059
:100DE000E81609F407C293E0E91609F46BC3A4E01E
:100DF000EA1609F417C2B6E0DB1609F4DCC0E39486
:100E0000D394D5CF8091770181115B9810927701AF
:100E10001092780180917201823009F085CF109292
:100E200072012091B60130E081E290E0289FD0016C
:100E3000299FB00D389FB00D1124A954BE4F4DE726
:100E4000E42E42E0F42EF70180E090E013C02B3551
:100E500008F071C1822F90E0880F991F880F991FA9
:100E6000880F991F885291408193919342E0EF3B04
:100E7000F40769F02D91203211F0222341F78FEF12
:100E80009FEF8193919342E0EF3BF40799F700E0E5
:100E900010E0A8E0DA2ECC24CA94D7018D909D9062
:100EA0007D0180915201992787FD909588169906BA
:100EB00071F0BFEF8B16BFEF9B0609F44CC18FEBAF
:100EC00092E0B40148E050E04AD88092520180910B
:100ED000BF02F801E953FD4FA0ECB2E001C08D91D3
:100EE0008083B19622E0A73CB207C9F70F5F1F4F7E
:100EF0000132110591F68091C00087FFEACE009182
:100F0000C60090915F019F3F09F4F2C3043209F4D7
:100F1000F2C3053208F0FFC30A3009F41CC40D30D7
:100F200009F419C48091D103E82FF0E0EC52FC4F92
:100F30000083983C29F09091D30390279093D3039A
:100F40008A3008F0C6CE8F5F8093D103C2CE87EB84
:100F500091E061E044E251E0FAD980913E048823B7
:100F600021F080917301882321F087EB91E060E00C
:100F7000EDDC80913D04882331F087EB91E06CE05B
:100F800047E251E0E4D987EB91E062E149E251E0C8
:100F9000DED9682F6E5F20919C0130919D014091B8
:100FA0009E0150919F0187EB91E001E007DAB6E0E6
:100FB000DB1609F024CF80E090E0FC01EE0FFF1F6C
:100FC000E80FF91FEE0FFF1FEE0FFF1FEE0FFF1FC1
:100FD000ED51FC4F28E111922150E9F70196833041
:100FE000910559F7E0902B04F0902C040091AE018C
:100FF0001091AF018BE08DDD80912D0490912E0436
:10100000A0912F04B09130048A309105A105B1055B
:1010100008F455C280918701882309F45EC3F70163
:10102000E01BF10B8F01CF01865A9F4F68E671E0FC
:1010300015D7843B910508F42DC1845B90404FEF98
:101040008A35910530F024EB30E04901881A990A7D
:10105000C4018C5C9F4FFC018491849F202D11243E
:10106000C80168E671E0FAD6843B910508F414C122
:10107000845B90403FEF8A35910530F064EB70E07F
:101080004B01881A990AC4018C5C9F4FFC01849122
:10109000839F402D1124822F992787FD9095880FDB
:1010A000991F880F991F880F991F24E630E0B90116
:1010B000E9D64B01842F992787FD9095880F991FBA
:1010C000880F991F880F991FB901DCD68B01682DF5
:1010D000BBE0EB2EE00E8BE0D82ED818655F801BAE
:1010E0004E2D2D2D93DCC40197FC6FC395958795EC
:1010F000909581959F4F482F455F980117FD62C3DA
:10110000C90195958795909581959F4F282F255FCB
:101110008E2D6D2D7BDC97FC51C3A4015595479511
:10112000455F17FD48C315950795202F255F8E2D28
:101130006D2D6CDCCACD322F3556393008F094CE87
:10114000822F90E0880F991F880F991F880F991F91
:101150008057914089CEF3018D2C11928A94E9F742
:10116000C092520180E0B5CE90913C0484E6989FF5
:10117000C001112420913B04820F911D009791F032
:1011800088ED91E061E04BE251E0E1D880913F04CD
:10119000882321F080917301882321F088ED91E06C
:1011A00061E0D4DB80914004882321F080917301B9
:1011B000882329F020913D04222309F076C18091F3
:1011C000AA01882341F12091AB0130E040E050E0DA
:1011D00088ED91E062E10DD82091A0013091A1014C
:1011E0004091A2015091A30188ED91E065E100E0FA
:1011F000E5D801CE8091B501882309F055C28091D0
:101200007301882309F4F7CD89EF91E06AE047E3A1
:1012100051E09DD8F0CD88ED91E062E140E351E0EE
:1012200096D8DACF2091AC013091AD0140E050E08A
:101230008BE392E060E0DDD78BE392E065E04BE486
:1012400051E085D8809175018A3008F064C180E34F
:10125000809356026CE12091750130E040E050E04F
:101260008BE392E000E511E09AD8682F8091740139
:101270008A3038F4E62FF0E0E55CFD4F80E38083B0
:101280006F5F2091740130E040E050E08BE392E02A
:10129000B0D7B1CD41E0D4CE31E0EDCE8091870121
:1012A000882309F43AC15B9A8091B501882309F03B
:1012B0003DC1F1E44F2EF4E05F2EA0E62A2EA1E01E
:1012C0003A2E24E631E03E832D8384E394E01982B4
:1012D000BAE0CB2ED12CE12CF12C988B8F8780910A
:1012E0007C00807F80937C0080917C0089808829AD
:1012F00080937C0080917A00806A80937A0080914C
:101300007A00806480937A002F85388980917A00F2
:1013100084FFFCCF388B2F8780917A008061809387
:101320007A0080917A008F7580937A0020917800FE
:1013300030917900D2012D933D932D0146E351E088
:1013400053D5A7019601B1D5F10161911F0170E05C
:1013500080E090E058D5AD81BE812D91BE83AD83F4
:1013600030E040E050E0A1D589019A0148015901DF
:101370008AE0B694A794979487948A95D1F78B8640
:101380009C86AD86BE864F855889415050405A870D
:101390004987882D90E0982F8827990F990FA0E012
:1013A000B0E048015901881A990AAA0ABB0AC50186
:1013B000B40124E630E040E050E025D5DC01CB016B
:1013C000EAE0B695A79597958795EA95D1F7E985CF
:1013D000FA858083EB85AF85B889EC93F981FF5F4F
:1013E000F9831296B88BAF87F43009F078CF8091EB
:1013F00033049091340490933204809331048091AB
:1014000035049091360490933C0480933B042091E2
:10141000380484E6289F9001112480913704280F16
:10142000311D41E0253F340708F0C2C1293731059D
:1014300008F4C4C22857304044E650E0249FC0015D
:10144000259F900D349F900D11246CE771E006D517
:1014500021E06E3108F020E060933D049091320469
:1014600084E6989FC001112430913104830F911DAF
:1014700031E053E0883E950708F030E030933E04B9
:1014800090913C0484E6989FC001112430913B0464
:10149000830F911D31E063E0883E960708F030E04D
:1014A00030933F042093400455CC30E040E050E0BE
:1014B00088ED91E06CE00EE211E071D780CE82E021
:1014C00028DB03CC8AE192E060E043E451E03FD7BF
:1014D0002091A4013091A50180919A0190919B01E6
:1014E000281B390B442737FD4095542F8AE192E0A1
:1014F00067E07FD68AE192E069E147E451E027D7CF
:101500002091AE013091AF0140E050E08AE192E0DD
:101510006DE16FD674CC6BE19ECE8BB198E08927DC
:101520008BB98091B501882309F4C3CEC0909C018A
:10153000D0909D01E0909E01F0909F012090A0012D
:101540003090A1014090A2015090A301809092019F
:1015500090909301A0909401B090950140919601D4
:1015600050919701609198017091990149835A8334
:101570006B837C83C814D904EA04FB0409F459C2C0
:10158000D701C601880D991DAA1DBB1DB7FD73C2E9
:10159000BC01CD0120E834E84EE150E086D4C90119
:1015A000865A9F4F68E671E059D4843B910508F450
:1015B0005FC2845B90405FEF5D838A35910530F0B8
:1015C00024EB30E0A901481B590BCA018C5C9F4FEA
:1015D000FC014491C701B6014F8B76D58B019C016C
:1015E000C501B4012B8B3C8B6FD54B015C01C20153
:1015F000B1016AD56B017C0169817A818B819C8103
:1016000063D56C197D098E099F092B893C89801A45
:10161000910AA20AB30A4F893D81439F202D1124CC
:10162000332727FD3095432F532FEDD324E630E0A9
:1016300040E050E05CD469017A01F2E02F2E312CB9
:10164000412C512C01E024C04F3F8FEF580780E020
:10165000680780E0780768F4D501C401B7FCB7C01B
:101660008F3FEFEF9E07E0E0AE07E0E0BE0708F433
:10167000B6C0C701B601A201910139D469017A014E
:10168000C501B401A201910132D449015A01000FF0
:10169000B701A601F7FED8CF44275527BA014C1948
:1016A0005D096E097F09D0CF89EF91E060E042E3E8
:1016B00051E04DD689EF91E062E044E351E047D636
:1016C00020912D0430912E0440912F04509130042C
:1016D00089EF91E065E08DD592CB85E065E041E151
:1016E00021E194D985E061E141E125E08FD9EDCA9E
:1016F000043209F0EECA1092D1031092D203109274
:10170000D30310925F01E4EDF3E0119223E0EF3D8B
:10171000F207D9F7DECA0A3241F00C3209F002CCE6
:101720008091D30380278093D303B7D7E4EDF3E010
:10173000119233E0EF3DF307D9F71092D103809176
:101740005F018F5F80935F010A3209F0C2CA88ECA3
:1017500080935F01BECAA1D74FEF40935F012091F4
:101760008101309182018091A4019091A50182179D
:1017700093070CF076C181E08093DF0380919101A3
:10178000882309F4A6CAACE9B1E0E9E7F1E089E110
:1017900001900D928150E1F781E08093E003809108
:1017A0007401909175019093E2038093E10391CAD3
:1017B00020E064E651CE0F5F1F4FB5CC0894811C2A
:1017C000911CABCC2F5F3F4F9BCC01968FCC8827D1
:1017D0009927DC0188199909AA09BB0941CF098712
:1017E0001A012B018F87988BA98BBA8BC701B60181
:1017F000A701960108D369837A838B839C83C501F3
:10180000B401A5019401FFD28B019C01892F992776
:10181000AA27BB2749815A816B817C81472F552795
:1018200066277727840F951FA61FB71F8F3F910547
:10183000A105B10509F008F426C169817A818B817F
:101840009C819695879577956795969587957795D9
:10185000679569837A838B839C8336952795179543
:101860000795369527951795079582E090E0A0E0BB
:10187000B0E08B879C87AD87BE8769817A818B8139
:101880009C81600F711F821F931F69837A838B83F2
:101890009C8396958795779567956D837E838F83D7
:1018A0009887611571058105910509F4D5C080E01F
:1018B00090E09E8B8D8B0CC0AD89BE891196BE8B3E
:1018C000AD8BAA31B10521F10D831E832F8338879B
:1018D00069817A818B819C812D813E814F815885E0
:1018E000E4D289019A018D819E81AF81B885080F6C
:1018F000191F2A1F3B1F3695279517950795801BA3
:10190000910BA20BB30B82309105A105B105A0F696
:10191000C901B8012B853C854D855E8574D26983EC
:101920007A838B839C83611571058105910509F488
:1019300048C02F85388949895A89221633064406BA
:10194000550608F4A9C0CA01B90124E630E040E018
:1019500050E059D229813A814B815C81A6D2422E36
:1019600020E030E041E080E090E018E6212E11E038
:10197000312E04EB10E08C5C9F4FFC018491849F1E
:10198000402D112444160CF449C02A35310509F4C0
:1019900045C02F5F3F4FC901B10160D2843B910523
:1019A00058F0845B90404FEF8A35910520F3B801E1
:1019B000681B790BCB01DFCF41E0F6CF21E060E07F
:1019C0004BCD80E090E090932C0480932B046981B0
:1019D0007A818B819C8125E331E040E050E013D295
:1019E00028EE33E040E050E060D269017A0189845A
:1019F000282D30E040E050E0C701B60104D2DC0100
:101A0000CB0180932D0490932E04A0932F04B093C8
:101A100030044FCC2AE530E02219330981149104B7
:101A2000A104B10409F076C0F7FC71C08AE590E02A
:101A3000CACF241635064606570609F0A1CD1092E6
:101A40002D0410922E0410922F0410923004109244
:101A50002C0410922B042DCC09811A812B813C81FE
:101A600057CF281739070CF089CE4093DF0386CE75
:101A700021E02D83A2CDB095A095909581959F4FA3
:101A8000AF4FBF4F85CD41E050E060E070E04B8745
:101A90005C876D877E87F1CEC201B10124E630E01C
:101AA00040E050E0B0D129813A814B815C81FDD189
:101AB000422E41E02224332480E090E028E631E009
:101AC00004EB10E08C5C9F4FFC018491849F402DBF
:101AD000112444160CF49ECFFAE52F16310409F4B4
:101AE00099CF0894211C311CC101B901B7D1843BA5
:101AF000910558F0845B90404FEF8A35910510F3C3
:101B0000B801681B790BCB01DDCF41E0F6CF8EE049
:101B100091E059CF181419041A041B043CF4F7FC83
:101B20000BC08AE590E0821B930B4DCFF7FC08C0F9
:101B3000C901865A9F4F47CFC901825F9E4F43CF4D
:101B40008EE091E0821B930B3ECF1F920F920FB657
:101B50000F9211242F933F934F935F936F937F9333
:101B60008F939F93AF93BF93EF93FF931092850052
:101B70001092840088E28A95F1F74A997EC06091BC
:101B8000490470914A046115710509F439C08091C6
:101B90004B04813009F48FC0823009F031C0E3E199
:101BA000F1E03197F1F700C0000020914C0430E0E3
:101BB00080E090E02D513C4FF901E80FF91F408182
:101BC0004EBD219A0000000000000000000000004F
:101BD0000000000000000000000000000000000005
:101BE00000000000000000000000000000000000F5
:101BF0000000489688349105F9F6219800001EBC33
:101C000010924B04CB01019690934A0480934904AF
:101C10008E369105F1F18F36910509F484C040911B
:101C2000CF035091D003209168013091690184174E
:101C3000950718F08217930780F18217930709F42C
:101C400083C0685670406831710530F492E090931B
:101C50004B04895680934C04FF91EF91BF91AF9153
:101C60009F918F917F916F915F914F913F912F91B4
:101C70000F900FBE0F901F9018958091490490917E
:101C80004A04893C910540F310924A041092490499
:101C9000E3CF21E020937201C2CF91E090934B04F7
:101CA000841B80934C0490916A019230A9F686952A
:101CB00080934C04D1CF2091B60198E19A95F1F729
:101CC000A0914C0430E081E290E0289FF001299F30
:101CD000F00D389FF00D1124E954FE4F81E2A89FCA
:101CE000D0011124A953BD4F16C0219A9D919EBDCC
:101CF00000000000000000000000000000000000E4
:101D000000000000000000000000000000000000D3
:101D10000000815061F09191903211F0992329F7E0
:101D200021980000E3CF22E02093720178CF0000D9
:101D300000000000000000000000000000000000A3
:101D400000001EBC21985CCF82E0809372018091DC
:101D5000B60190E0019666E070E094D08093B60101
:101D6000FC01EE0FFF1FED5AFE4F208131813093B1
:101D7000D0032093CF0385599E4FFC01808180932F
:101D80006A0190E0880F991F880F991F880F991F8B
:101D9000820F931F909369018093680181E0809383
:101DA0004C045ACF1F920F920FB60F9211242F930B
:101DB0003F938F939F938091490490914A0420917F
:101DC0004D0430E02817390721F42BB138E02327E0
:101DD0002BB980934D049F918F913F912F910F903C
:101DE0000FBE0F901F901895539FC001429FB001E6
:101DF000529F700D811D1124911D349F700D811D06
:101E00001124911D0895629FD001739FF001829F5C
:101E1000E00DF11D649FE00DF11D929FF00D839F79
:101E2000F00D749FF00D659FF00D9927729FB00D16
:101E3000E11DF91F639FB00DE11DF91FBD01CF0129
:101E400011240895991B79E004C0991F961708F092
:101E5000961B881F7A95C9F780950895AA1BBB1B0E
:101E600051E107C0AA1FBB1FA617B70710F0A61B9A
:101E7000B70B881F991F5A95A9F780959095BC01BB
:101E8000CD01089597FB092E07260AD077FD04D0CF
:101E9000E5DF06D000201AF4709561957F4F089514
:101EA000F6F7909581959F4F0895A1E21A2EAA1BEF
:101EB000BB1BFD010DC0AA1FBB1FEE1FFF1FA217FA
:101EC000B307E407F50720F0A21BB30BE40BF50BF7
:101ED000661F771F881F991F1A9469F76095709580
:101EE000809590959B01AC01BD01CF01089597FBB2
:101EF000092E05260ED057FD04D0D7DF0AD0001CCE
:101F000038F450954095309521953F4F4F4F5F4F96
:101F10000895F6F790958095709561957F4F8F4F56
:101F20009F4F0895FB01DC014150504030F08D91EE
:101F30000190801919F40020B9F7881B990B0895B6
:101F4000FB01DC014150504048F001900D9200200F
:101F5000C9F701C01D9241505040E0F70895DC01DF
:101F6000CB01FC01F999FECF06C0F2BDE1BDF89AA4
:101F7000319600B40D9241505040B8F70895F8944E
:021F8000FFCF91
:101F820053004E00450057002D2D2E2D2D2D2D2DA9
:101F92002D2D3F002E004750474741004750524DDC
:101FA200430056006A3100690068006A3200250069
:101FB2002D0066004D54004E4F20484F4D45205095
:101FC2004F5300414C5400484447004B4D2F4800AA
:101FD2003A00FF32004200AA00CD00FF001801FFC4
:101FE20001010101010106010200020101020101D8
:021FF2000200EB
:00000001FF
